{"abi":[{"type":"constructor","inputs":[{"name":"_owner","type":"address","internalType":"address"}],"stateMutability":"nonpayable"},{"type":"function","name":"czb","inputs":[],"outputs":[{"name":"","type":"address","internalType":"address"}],"stateMutability":"view"},{"type":"function","name":"czusd","inputs":[],"outputs":[{"name":"","type":"address","internalType":"address"}],"stateMutability":"view"},{"type":"function","name":"factory","inputs":[],"outputs":[{"name":"","type":"address","internalType":"contract TidalDexFactory"}],"stateMutability":"view"},{"type":"function","name":"owner","inputs":[],"outputs":[{"name":"","type":"address","internalType":"address"}],"stateMutability":"view"},{"type":"function","name":"renounceOwnership","inputs":[],"outputs":[],"stateMutability":"nonpayable"},{"type":"function","name":"rescueToken","inputs":[{"name":"token","type":"address","internalType":"address"}],"outputs":[],"stateMutability":"nonpayable"},{"type":"function","name":"rescueTokenFromLP","inputs":[{"name":"trappedToken","type":"address","internalType":"address"}],"outputs":[],"stateMutability":"nonpayable"},{"type":"function","name":"rescueTokenFromLPCzbOnly","inputs":[{"name":"trappedToken","type":"address","internalType":"address"}],"outputs":[],"stateMutability":"nonpayable"},{"type":"function","name":"rescueTokenFromLPCzusdOnly","inputs":[{"name":"trappedToken","type":"address","internalType":"address"}],"outputs":[],"stateMutability":"nonpayable"},{"type":"function","name":"router","inputs":[],"outputs":[{"name":"","type":"address","internalType":"contract TidalDexRouter"}],"stateMutability":"view"},{"type":"function","name":"transferOwnership","inputs":[{"name":"newOwner","type":"address","internalType":"address"}],"outputs":[],"stateMutability":"nonpayable"},{"type":"event","name":"OwnershipTransferred","inputs":[{"name":"previousOwner","type":"address","indexed":true,"internalType":"address"},{"name":"newOwner","type":"address","indexed":true,"internalType":"address"}],"anonymous":false},{"type":"error","name":"OwnableInvalidOwner","inputs":[{"name":"owner","type":"address","internalType":"address"}]},{"type":"error","name":"OwnableUnauthorizedAccount","inputs":[{"name":"account","type":"address","internalType":"address"}]},{"type":"error","name":"ReentrancyGuardReentrantCall","inputs":[]}],"bytecode":{"object":"0x60806040523462000037576200001e6200001862000110565b62000136565b620000286200003d565b6119a5620003f582396119a590f35b62000043565b60405190565b5f80fd5b601f801991011690565b634e487b7160e01b5f52604160045260245ffd5b90620000719062000047565b810190811060018060401b038211176200008a57604052565b62000051565b90620000a76200009f6200003d565b928362000065565b565b5f80fd5b60018060a01b031690565b620000c390620000ad565b90565b620000d181620000b8565b03620000d957565b5f80fd5b90505190620000ec82620000c6565b565b906020828203126200010a5762000107915f01620000dd565b90565b620000a9565b6200013362001d9a80380380620001278162000090565b928339810190620000ee565b90565b6200014190620001e5565b565b90565b90565b90565b620001656200015f6200016b9262000143565b62000149565b62000146565b90565b6200017a60016200014c565b90565b5f1b90565b90620001905f19916200017d565b9181191691161790565b620001b3620001ad620001b99262000146565b62000149565b62000146565b90565b90565b90620001d9620001d3620001e1926200019a565b620001bc565b825462000182565b9055565b620001f09062000261565b62000206620001fe6200016e565b6001620001bf565b565b90565b620002246200021e6200022a9262000208565b62000149565b620000ad565b90565b62000238906200020b565b90565b6200024690620000b8565b9052565b91906200025f905f602085019401906200023b565b565b80620002826200027b620002755f6200022d565b620000b8565b91620000b8565b146200029557620002939062000389565b565b620002c5620002a45f6200022d565b620002ae6200003d565b918291631e4fbdf760e01b8352600483016200024a565b0390fd5b5f1c90565b60018060a01b031690565b620002e8620002ee91620002c9565b620002ce565b90565b620002fd9054620002d9565b90565b906200031360018060a01b03916200017d565b9181191691161790565b62000336620003306200033c92620000ad565b62000149565b620000ad565b90565b6200034a906200031d565b90565b62000358906200033f565b90565b90565b90620003786200037262000380926200034d565b6200035b565b825462000300565b9055565b5f0190565b620003945f620002f1565b620003a0825f6200035e565b90620003d8620003d17f8be0079c531659141344cd1fd0a4f28419497f9722a3daafe3b4186f6b6457e0936200034d565b916200034d565b91620003e36200003d565b80620003ef8162000384565b0390a356fe60806040526004361015610013575b61051c565b61001d5f356100cc565b80634460d3cf146100c7578063503a0e4f146100c2578063715018a6146100bd5780638da5cb5b146100b8578063994f5c79146100b3578063acb62dd4146100ae578063c45a0155146100a9578063d59dab18146100a4578063e3aa275b1461009f578063f2fde38b1461009a5763f887ea400361000e576104e7565b610423565b6103f0565b6103bb565b610363565b610294565b61025f565b610207565b6101b2565b610170565b61013d565b60e01c90565b60405190565b5f80fd5b5f80fd5b60018060a01b031690565b6100f4906100e0565b90565b610100816100eb565b0361010757565b5f80fd5b90503590610118826100f7565b565b9060208282031261013357610130915f0161010b565b90565b6100dc565b5f0190565b3461016b5761015561015036600461011a565b6107ad565b61015d6100d2565b8061016781610138565b0390f35b6100d8565b3461019e5761018861018336600461011a565b610803565b6101906100d2565b8061019a81610138565b0390f35b6100d8565b5f9103126101ad57565b6100dc565b346101e0576101c23660046101a3565b6101ca61085e565b6101d26100d2565b806101dc81610138565b0390f35b6100d8565b6101ee906100eb565b9052565b9190610205905f602085019401906101e5565b565b34610237576102173660046101a3565b61023361022261089d565b61022a6100d2565b918291826101f2565b0390f35b6100d8565b73d963b2236d227a0302e19f2f9595f424950dc18690565b61025c61023c565b90565b3461028f5761026f3660046101a3565b61028b61027a610254565b6102826100d2565b918291826101f2565b0390f35b6100d8565b346102c2576102ac6102a736600461011a565b61090f565b6102b46100d2565b806102be81610138565b0390f35b6100d8565b90565b6102de6102d96102e3926100e0565b6102c7565b6100e0565b90565b6102ef906102ca565b90565b6102fb906102e6565b90565b61031b73907e8c7d471877b4742da8aa53d257d0d565a47e6102f2565b90565b6103266102fe565b90565b610332906102ca565b90565b61033e90610329565b90565b61034a90610335565b9052565b9190610361905f60208501940190610341565b565b34610393576103733660046101a3565b61038f61037e61031e565b6103866100d2565b9182918261034e565b0390f35b6100d8565b73e68b79e51bf826534ff37aa9cee71a3842ee9c7090565b6103b8610398565b90565b346103eb576103cb3660046101a3565b6103e76103d66103b0565b6103de6100d2565b918291826101f2565b0390f35b6100d8565b3461041e5761040861040336600461011a565b610965565b6104106100d2565b8061041a81610138565b0390f35b6100d8565b346104515761043b61043636600461011a565b6109dc565b6104436100d2565b8061044d81610138565b0390f35b6100d8565b61045f906102ca565b90565b61046b90610456565b90565b610477906102ca565b90565b6104839061046e565b90565b6104ab6104a67371ab950a0c349103967e711b931c460e9580c631610462565b61047a565b90565b6104b6610486565b90565b6104c290610456565b90565b6104ce906104b9565b9052565b91906104e5905f602085019401906104c5565b565b34610517576104f73660046101a3565b6105136105026104ae565b61050a6100d2565b918291826104d2565b0390f35b6100d8565b5f80fd5b6105319061052c6109e7565b610533565b565b6105449061053f610ae6565b610699565b61054c610b71565b565b610557906102ca565b90565b6105639061054e565b90565b61056f90610329565b90565b61057b90610329565b90565b5f80fd5b601f801991011690565b634e487b7160e01b5f52604160045260245ffd5b906105aa90610582565b810190811067ffffffffffffffff8211176105c457604052565b61058c565b60e01b90565b90565b6105db816105cf565b036105e257565b5f80fd5b905051906105f3826105d2565b565b9060208282031261060e5761060b915f016105e6565b90565b6100dc565b61061b6100d2565b3d5f823e3d90fd5b151590565b61063181610623565b0361063857565b5f80fd5b9050519061064982610628565b565b9060208282031261066457610661915f0161063c565b90565b6100dc565b610672906105cf565b9052565b91602061069792949361069060408201965f8301906101e5565b0190610669565b565b6106e160206106af6106aa8461055a565b610566565b6370a08231906106d66106c130610572565b926106ca6100d2565b958694859384936105c9565b8352600483016101f2565b03915afa80156107a857610703610708916020935f9161077b575b509361055a565b610566565b9163a9059cbb9261072d5f3393956107386107216100d2565b978896879586946105c9565b845260048401610676565b03925af180156107765761074a575b50565b61076a9060203d811161076f575b61076281836105a0565b81019061064b565b610747565b503d610758565b610613565b61079b9150843d81116107a1575b61079381836105a0565b8101906105f5565b5f6106fc565b503d610789565b610613565b6107b690610520565b565b6107c9906107c46109e7565b6107cb565b565b6107dc906107d7610ae6565b6107e6565b6107e4610b71565b565b610801906107fc816107f6610398565b90610c94565b611013565b565b61080c906107b8565b565b6108166109e7565b61081e61084b565b565b90565b61083761083261083c92610820565b6102c7565b6100e0565b90565b61084890610823565b90565b61085c6108575f61083f565b611171565b565b61086661080e565b565b5f90565b5f1c90565b60018060a01b031690565b61088861088d9161086c565b610871565b90565b61089a905461087c565b90565b6108a5610868565b506108af5f610890565b90565b6108c3906108be6109e7565b6108c5565b565b6108d6906108d1610ae6565b6108e0565b6108de610b71565b565b61090d906108f6816108f0610398565b90610c94565b6109088161090261023c565b90610c94565b611013565b565b610918906108b2565b565b61092b906109266109e7565b61092d565b565b61093e90610939610ae6565b610948565b610946610b71565b565b6109639061095e8161095861023c565b90610c94565b611013565b565b61096e9061091a565b565b6109819061097c6109e7565b610983565b565b8061099e6109986109935f61083f565b6100eb565b916100eb565b146109ae576109ac90611171565b565b6109d86109ba5f61083f565b6109c26100d2565b918291631e4fbdf760e01b8352600483016101f2565b0390fd5b6109e590610970565b565b6109ef61089d565b610a08610a026109fd6111d0565b6100eb565b916100eb565b03610a0f57565b610a38610a1a6111d0565b610a226100d2565b91829163118cdaa760e01b8352600483016101f2565b0390fd5b90565b610a4b610a509161086c565b610a3c565b90565b610a5d9054610a3f565b90565b90565b610a77610a72610a7c92610a60565b6102c7565b6105cf565b90565b610a896002610a63565b90565b5f1b90565b90610a9d5f1991610a8c565b9181191691161790565b610abb610ab6610ac0926105cf565b6102c7565b6105cf565b90565b90565b90610adb610ad6610ae292610aa7565b610ac3565b8254610a91565b9055565b610af06001610a53565b610b09610b03610afe610a7f565b6105cf565b916105cf565b14610b2257610b20610b19610a7f565b6001610ac6565b565b610b2a6100d2565b633ee5aeb560e01b815280610b4160048201610138565b0390fd5b90565b610b5c610b57610b6192610b45565b6102c7565b6105cf565b90565b610b6e6001610b48565b90565b610b83610b7c610b64565b6001610ac6565b565b610b8e906102ca565b90565b610b9a90610b85565b90565b610ba690610329565b90565b5f910312610bb357565b6100dc565b90505190610bc5826100f7565b565b90602082820312610be057610bdd915f01610bb8565b90565b6100dc565b916020610c06929493610bff60408201965f8301906101e5565b01906101e5565b565b90565b610c1f610c1a610c2492610c08565b6102c7565b6105cf565b90565b634e487b7160e01b5f52601160045260245ffd5b610c4a610c50919392936105cf565b926105cf565b91610c5c8382026105cf565b928184041490151715610c6b57565b610c27565b610c79906102ca565b90565b610c8590610c70565b90565b610c9190610329565b90565b610c9d8261128c565b610cae610ca983610b91565b610b9d565b633f4ba83a90803b1561100e57610cd1915f91610cc96100d2565b9384926105c9565b8252818381610ce260048201610138565b03925af1801561100957610fdd575b50610d02610cfd6102fe565b610335565b602063e6a43905918390610d288694610d33610d1c6100d2565b968795869485946105c9565b845260048401610be5565b03915afa908115610fd8575f91610faa575b5091610d736020610d5d610d588461055a565b610566565b6318160ddd90610d6b6100d2565b9384926105c9565b82528180610d8360048201610138565b03915afa908115610fa5575f91610f77575b50610dd66020610dac610da78561055a565b610566565b6370a0823190610dcb8892610dbf6100d2565b958694859384936105c9565b8352600483016101f2565b03915afa8015610f7257610dfe915f91610f44575b50610df8620186a0610c0b565b90610c3b565b90610e10610e0b84610c7c565b610c88565b6340c10f19610e1e30610572565b8492803b15610f3f57610e445f8094610e4f610e386100d2565b978896879586946105c9565b845260048401610676565b03925af1958615610f3a57610e7c610e8d96610e8895610e8294610e929a610f0e575b50879190916114dc565b846116a4565b826118ce565b610b91565b610b9d565b638456cb5990803b15610f0957610eb5915f91610ead6100d2565b9384926105c9565b8252818381610ec660048201610138565b03925af18015610f0457610ed8575b50565b610ef7905f3d8111610efd575b610eef81836105a0565b810190610ba9565b5f610ed5565b503d610ee5565b610613565b61057e565b610f2d905f3d8111610f33575b610f2581836105a0565b810190610ba9565b5f610e72565b503d610f1b565b610613565b61057e565b610f65915060203d8111610f6b575b610f5d81836105a0565b8101906105f5565b5f610deb565b503d610f53565b610613565b610f98915060203d8111610f9e575b610f9081836105a0565b8101906105f5565b5f610d95565b503d610f86565b610613565b610fcb915060203d8111610fd1575b610fc381836105a0565b810190610bc7565b5f610d45565b503d610fb9565b610613565b610ffc905f3d8111611002575b610ff481836105a0565b810190610ba9565b5f610cf1565b503d610fea565b610613565b61057e565b61105b60206110296110248461055a565b610566565b6370a082319061105061103b30610572565b926110446100d2565b958694859384936105c9565b8352600483016101f2565b03915afa80156111225761107d611082916020935f916110f5575b509361055a565b610566565b9163a9059cbb926110a75f3393956110b261109b6100d2565b978896879586946105c9565b845260048401610676565b03925af180156110f0576110c4575b50565b6110e49060203d81116110e9575b6110dc81836105a0565b81019061064b565b6110c1565b503d6110d2565b610613565b6111159150843d811161111b575b61110d81836105a0565b8101906105f5565b5f611076565b503d611103565b610613565b9061113860018060a01b0391610a8c565b9181191691161790565b61114b90610329565b90565b90565b9061116661116161116d92611142565b61114e565b8254611127565b9055565b61117a5f610890565b611184825f611151565b906111b86111b27f8be0079c531659141344cd1fd0a4f28419497f9722a3daafe3b4186f6b6457e093611142565b91611142565b916111c16100d2565b806111cb81610138565b0390a3565b6111d8610868565b503390565b6111e6906102ca565b90565b6111f2906111dd565b90565b6111fe90610329565b90565b60209181520190565b5f7f546f6b656e206973206e6f742070617573656400000000000000000000000000910152565b61123e6013602092611201565b6112478161120a565b0190565b6112609060208101905f818303910152611231565b90565b1561126a57565b6112726100d2565b62461bcd60e51b8152806112886004820161124b565b0390fd5b60206112a261129d6112b8936111e9565b6111f5565b635c975abb906112b06100d2565b9384926105c9565b825281806112c860048201610138565b03915afa8015611313576112e3915f916112e5575b50611263565b565b611306915060203d811161130c575b6112fe81836105a0565b81019061064b565b5f6112dd565b503d6112f4565b610613565b9061132b6113246100d2565b92836105a0565b565b67ffffffffffffffff81116113455760208091020190565b61058c565b9061135c6113578361132d565b611318565b918252565b369037565b9061138b6113738361134a565b92602080611381869361132d565b9201910390611361565b565b634e487b7160e01b5f52603260045260245ffd5b5190565b906113af826113a1565b8110156113c0576020809102010190565b61138d565b6113d96113d46113de92610820565b6102c7565b6105cf565b90565b906113eb906100eb565b9052565b6113f890610329565b90565b611404906113c5565b9052565b60209181520190565b60200190565b611420906100eb565b9052565b9061143181602093611417565b0190565b60200190565b9061145861145261144b846113a1565b8093611408565b92611411565b905f5b8181106114685750505090565b90919261148161147b6001928651611424565b94611435565b910191909161145b565b906114c86114d3916114da969897956114bb6080966114b160a08801945f890190610669565b60208701906113fb565b848203604086015261143b565b9660608301906101e5565b0190610669565b565b61153661153b919392936115316114fb6114f66002610a63565b611366565b95611518836115138961150d5f6113c5565b906113a5565b6113e1565b61152c876115266001610b48565b906113a5565b6113e1565b61055a565b610566565b602063095ea7b39161155361154e610486565b6113ef565b906115715f869561157c6115656100d2565b978896879586946105c9565b845260048401610676565b03925af180156116575761162b575b5061159c611597610486565b6113ef565b635c11d79591905f93926115af30610572565b4291833b15611626576115e36115d8935f979388946115cc6100d2565b9a8b998a9889976105c9565b87526004870161148b565b03925af18015611621576115f5575b50565b611614905f3d811161161a575b61160c81836105a0565b810190610ba9565b5f6115f2565b503d611602565b610613565b61057e565b61164b9060203d8111611650575b61164381836105a0565b81019061064b565b61158b565b503d611639565b610613565b611665906102ca565b90565b6116719061165c565b90565b61167d90610329565b90565b611689906102ca565b90565b61169590611680565b90565b6116a190610329565b90565b906116e560206116bb6116b68561055a565b610566565b6370a08231906116da85926116ce6100d2565b958694859384936105c9565b8352600483016101f2565b03915afa9081156118475761170b91611706915f91611819575b5093611668565b611674565b916379cc679090829093803b15611814576117395f809461174461172d6100d2565b988996879586946105c9565b845260048401610676565b03925af190811561180f5761176792611762926117e3575b5061168c565b611698565b63fff6cae990803b156117de5761178a915f916117826100d2565b9384926105c9565b825281838161179b60048201610138565b03925af180156117d9576117ad575b50565b6117cc905f3d81116117d2575b6117c481836105a0565b810190610ba9565b5f6117aa565b503d6117ba565b610613565b61057e565b611802905f3d8111611808575b6117fa81836105a0565b810190610ba9565b5f61175c565b503d6117f0565b610613565b61057e565b61183a915060203d8111611840575b61183281836105a0565b8101906105f5565b5f6116ff565b503d611828565b610613565b5f7f546f6b656e20737570706c79206d69736d617463680000000000000000000000910152565b6118806015602092611201565b6118898161184c565b0190565b6118a29060208101905f818303910152611873565b90565b156118ac57565b6118b46100d2565b62461bcd60e51b8152806118ca6004820161188d565b0390fd5b9060206118e56118e06118fb9461055a565b610566565b6318160ddd906118f36100d2565b9485926105c9565b8252818061190b60048201610138565b03915afa801561196a5761192e6119349161193a945f9161193c575b50926105cf565b916105cf565b106118a5565b565b61195d915060203d8111611963575b61195581836105a0565b8101906105f5565b5f611927565b503d61194b565b61061356fea2646970667358221220465ddee7eee091b7f00bdd240060ce56247fbfd6be656d550dd64c4d0a06641c64736f6c63430008170033","linkReferences":{}},"methodIdentifiers":{"czb()":"994f5c79","czusd()":"d59dab18","factory()":"c45a0155","owner()":"8da5cb5b","renounceOwnership()":"715018a6","rescueToken(address)":"4460d3cf","rescueTokenFromLP(address)":"acb62dd4","rescueTokenFromLPCzbOnly(address)":"e3aa275b","rescueTokenFromLPCzusdOnly(address)":"503a0e4f","router()":"f887ea40","transferOwnership(address)":"f2fde38b"},"id":72}