{"abi":[{"type":"function","name":"DOMAIN_SEPARATOR","inputs":[],"outputs":[{"name":"","type":"bytes32","internalType":"bytes32"}],"stateMutability":"view"},{"type":"function","name":"allowance","inputs":[{"name":"owner","type":"address","internalType":"address"},{"name":"spender","type":"address","internalType":"address"}],"outputs":[{"name":"","type":"uint256","internalType":"uint256"}],"stateMutability":"view"},{"type":"function","name":"approve","inputs":[{"name":"spender","type":"address","internalType":"address"},{"name":"amount","type":"uint256","internalType":"uint256"}],"outputs":[{"name":"","type":"bool","internalType":"bool"}],"stateMutability":"nonpayable"},{"type":"function","name":"balanceOf","inputs":[{"name":"owner","type":"address","internalType":"address"}],"outputs":[{"name":"","type":"uint256","internalType":"uint256"}],"stateMutability":"view"},{"type":"function","name":"decimals","inputs":[],"outputs":[{"name":"","type":"uint8","internalType":"uint8"}],"stateMutability":"view"},{"type":"function","name":"init","inputs":[{"name":"name_","type":"string","internalType":"string"},{"name":"symbol_","type":"string","internalType":"string"},{"name":"decimals_","type":"uint8","internalType":"uint8"}],"outputs":[],"stateMutability":"nonpayable"},{"type":"function","name":"initialize","inputs":[{"name":"name_","type":"string","internalType":"string"},{"name":"symbol_","type":"string","internalType":"string"},{"name":"decimals_","type":"uint8","internalType":"uint8"}],"outputs":[],"stateMutability":"nonpayable"},{"type":"function","name":"mint","inputs":[{"name":"to","type":"address","internalType":"address"},{"name":"amount","type":"uint256","internalType":"uint256"}],"outputs":[],"stateMutability":"nonpayable"},{"type":"function","name":"name","inputs":[],"outputs":[{"name":"","type":"string","internalType":"string"}],"stateMutability":"view"},{"type":"function","name":"nonces","inputs":[{"name":"","type":"address","internalType":"address"}],"outputs":[{"name":"","type":"uint256","internalType":"uint256"}],"stateMutability":"view"},{"type":"function","name":"permit","inputs":[{"name":"owner","type":"address","internalType":"address"},{"name":"spender","type":"address","internalType":"address"},{"name":"value","type":"uint256","internalType":"uint256"},{"name":"deadline","type":"uint256","internalType":"uint256"},{"name":"v","type":"uint8","internalType":"uint8"},{"name":"r","type":"bytes32","internalType":"bytes32"},{"name":"s","type":"bytes32","internalType":"bytes32"}],"outputs":[],"stateMutability":"nonpayable"},{"type":"function","name":"symbol","inputs":[],"outputs":[{"name":"","type":"string","internalType":"string"}],"stateMutability":"view"},{"type":"function","name":"totalSupply","inputs":[],"outputs":[{"name":"","type":"uint256","internalType":"uint256"}],"stateMutability":"view"},{"type":"function","name":"transfer","inputs":[{"name":"to","type":"address","internalType":"address"},{"name":"amount","type":"uint256","internalType":"uint256"}],"outputs":[{"name":"","type":"bool","internalType":"bool"}],"stateMutability":"nonpayable"},{"type":"function","name":"transferFrom","inputs":[{"name":"from","type":"address","internalType":"address"},{"name":"to","type":"address","internalType":"address"},{"name":"amount","type":"uint256","internalType":"uint256"}],"outputs":[{"name":"","type":"bool","internalType":"bool"}],"stateMutability":"nonpayable"},{"type":"event","name":"Approval","inputs":[{"name":"owner","type":"address","indexed":true,"internalType":"address"},{"name":"spender","type":"address","indexed":true,"internalType":"address"},{"name":"value","type":"uint256","indexed":false,"internalType":"uint256"}],"anonymous":false},{"type":"event","name":"Transfer","inputs":[{"name":"from","type":"address","indexed":true,"internalType":"address"},{"name":"to","type":"address","indexed":true,"internalType":"address"},{"name":"value","type":"uint256","indexed":false,"internalType":"uint256"}],"anonymous":false}],"bytecode":{"object":"0x60806040523461001f57610011610024565b611bc761002f8239611bc790f35b61002a565b60405190565b5f80fdfe60806040526004361015610013575b610919565b61001d5f3561010c565b806306fdde0314610107578063095ea7b3146101025780631624f6c6146100fd57806318160ddd146100f857806323b872dd146100f3578063313ce567146100ee5780633644e515146100e957806340c10f19146100e457806370a08231146100df5780637ecebe00146100da57806395d89b41146100d5578063a9059cbb146100d0578063d505accf146100cb578063dd62ed3e146100c65763f57b01820361000e576108e5565b6108af565b610848565b61077f565b61074a565b610715565b61064d565b6105fb565b6105c6565b61056c565b610514565b6104a5565b61044f565b61029f565b6101b2565b60e01c90565b60405190565b5f80fd5b5f80fd5b5f91031261012a57565b61011c565b5190565b60209181520190565b5f5b83811061014e575050905f910152565b80602091830151818501520161013e565b601f801991011690565b6101886101916020936101969361017f8161012f565b93848093610133565b9586910161013c565b61015f565b0190565b6101af9160208201915f818403910152610169565b90565b346101e2576101c2366004610120565b6101de6101cd610a39565b6101d5610112565b9182918261019a565b0390f35b610118565b5f80fd5b60018060a01b031690565b6101ff906101eb565b90565b61020b816101f6565b0361021257565b5f80fd5b9050359061022382610202565b565b90565b61023181610225565b0361023857565b5f80fd5b9050359061024982610228565b565b91906040838203126102735780610267610270925f8601610216565b9360200161023c565b90565b61011c565b151590565b61028690610278565b9052565b919061029d905f6020850194019061027d565b565b346102d0576102cc6102bb6102b536600461024b565b90610ac2565b6102c3610112565b9182918261028a565b0390f35b610118565b5f80fd5b5f80fd5b634e487b7160e01b5f52604160045260245ffd5b906102fb9061015f565b810190811067ffffffffffffffff82111761031557604052565b6102dd565b9061032d610326610112565b92836102f1565b565b67ffffffffffffffff811161034d5761034960209161015f565b0190565b6102dd565b90825f939282370152565b9092919261037261036d8261032f565b61031a565b9381855260208501908284011161038e5761038c92610352565b565b6102d9565b9080601f830112156103b1578160206103ae9335910161035d565b90565b6102d5565b60ff1690565b6103c5816103b6565b036103cc57565b5f80fd5b905035906103dd826103bc565b565b9091606082840312610445575f82013567ffffffffffffffff8111610440578361040a918401610393565b9260208301359067ffffffffffffffff821161043b5761042f81610438938601610393565b936040016103d0565b90565b6101e7565b6101e7565b61011c565b5f0190565b3461047e576104686104623660046103df565b91610e8e565b610470610112565b8061047a8161044a565b0390f35b610118565b61048c90610225565b9052565b91906104a3905f60208501940190610483565b565b346104d5576104b5366004610120565b6104d16104c0610f1c565b6104c8610112565b91829182610490565b0390f35b610118565b909160608284031261050f5761050c6104f5845f8501610216565b936105038160208601610216565b9360400161023c565b90565b61011c565b346105455761054161053061052a3660046104da565b91610f51565b610538610112565b9182918261028a565b0390f35b610118565b610553906103b6565b9052565b919061056a905f6020850194019061054a565b565b3461059c5761057c366004610120565b6105986105876110b7565b61058f610112565b91829182610557565b0390f35b610118565b90565b6105ad906105a1565b9052565b91906105c4905f602085019401906105a4565b565b346105f6576105d6366004610120565b6105f26105e16110f5565b6105e9610112565b918291826105b1565b0390f35b610118565b3461062a5761061461060e36600461024b565b90611143565b61061c610112565b806106268161044a565b0390f35b610118565b9060208282031261064857610645915f01610216565b90565b61011c565b3461067d5761067961066861066336600461062f565b61114f565b610670610112565b91829182610490565b0390f35b610118565b90565b61069961069461069e926101eb565b610682565b6101eb565b90565b6106aa90610685565b90565b6106b6906106a1565b90565b906106c3906106ad565b5f5260205260405f2090565b1c90565b90565b6106e69060086106eb93026106cf565b6106d3565b90565b906106f991546106d6565b90565b6107129061070d6008915f926106b9565b6106ee565b90565b346107455761074161073061072b36600461062f565b6106fc565b610738610112565b91829182610490565b0390f35b610118565b3461077a5761075a366004610120565b61077661076561116e565b61076d610112565b9182918261019a565b0390f35b610118565b346107b0576107ac61079b61079536600461024b565b90611184565b6107a3610112565b9182918261028a565b0390f35b610118565b6107be816105a1565b036107c557565b5f80fd5b905035906107d6826107b5565b565b60e081830312610843576107ee825f8301610216565b926107fc8360208401610216565b9261080a816040850161023c565b92610818826060830161023c565b9261084061082984608085016103d0565b936108378160a086016107c9565b9360c0016107c9565b90565b61011c565b3461087d5761086761085b3660046107d8565b959490949391936114cb565b61086f610112565b806108798161044a565b0390f35b610118565b91906040838203126108aa578061089e6108a7925f8601610216565b93602001610216565b90565b61011c565b346108e0576108dc6108cb6108c5366004610882565b906116ae565b6108d3610112565b91829182610490565b0390f35b610118565b34610914576108fe6108f83660046103df565b916116d6565b610906610112565b806109108161044a565b0390f35b610118565b5f80fd5b606090565b634e487b7160e01b5f52602260045260245ffd5b9060016002830492168015610956575b602083101461095157565b610922565b91607f1691610946565b60209181520190565b5f5260205f2090565b905f929180549061098c61098583610936565b8094610960565b916001811690815f146109e357506001146109a7575b505050565b6109b49192939450610969565b915f925b8184106109cb57505001905f80806109a2565b600181602092959395548486015201910192906109b8565b92949550505060ff19168252151560200201905f80806109a2565b90610a0891610972565b90565b90610a2b610a2492610a1b610112565b938480926109fe565b03836102f1565b565b610a3690610a0b565b90565b610a4161091d565b50610a4b5f610a2d565b90565b5f90565b90610a5c906106ad565b5f5260205260405f2090565b5f1b90565b90610a795f1991610a68565b9181191691161790565b610a97610a92610a9c92610225565b610682565b610225565b90565b90565b90610ab7610ab2610abe92610a83565b610a9f565b8254610a6d565b9055565b90610acb610a4e565b50610aeb81610ae6610adf60053390610a52565b85906106b9565b610aa2565b33919091610b37610b25610b1f7f8c5be1e5ebec7d5bd14f71427d1e84f3dd0314c0f7b2291e5b200ac8c7c3b925936106ad565b936106ad565b93610b2e610112565b91829182610490565b0390a3600190565b5f1c90565b60ff1690565b610b56610b5b91610b3f565b610b44565b90565b610b689054610b4a565b90565b5f7f414c52454144595f494e495449414c495a454400000000000000000000000000910152565b610b9f6013602092610133565b610ba881610b6b565b0190565b610bc19060208101905f818303910152610b92565b90565b15610bcb57565b610bd3610112565b62461bcd60e51b815280610be960048201610bac565b0390fd5b601f602091010490565b1b90565b91906008610c16910291610c105f1984610bf7565b92610bf7565b9181191691161790565b9190610c36610c31610c3e93610a83565b610a9f565b908354610bfb565b9055565b5f90565b610c5891610c52610c42565b91610c20565b565b5b818110610c66575050565b80610c735f600193610c46565b01610c5b565b9190601f8111610c89575b505050565b610c95610cba93610969565b906020610ca184610bed565b83019310610cc2575b610cb390610bed565b0190610c5a565b5f8080610c84565b9150610cb381929050610caa565b90610ce0905f19906008026106cf565b191690565b81610cef91610cd0565b906002021790565b90610d018161012f565b9067ffffffffffffffff8211610dc157610d2582610d1f8554610936565b85610c79565b602090601f8311600114610d5957918091610d48935f92610d4d575b5050610ce5565b90555b565b90915001515f80610d41565b601f19831691610d6885610969565b925f5b818110610da957509160029391856001969410610d8f575b50505002019055610d4b565b610d9f910151601f841690610cd0565b90555f8080610d83565b91936020600181928787015181550195019201610d6b565b6102dd565b90610dd091610cf7565b565b90610dde60ff91610a68565b9181191691161790565b610dfc610df7610e01926103b6565b610682565b6103b6565b90565b90565b90610e1c610e17610e2392610de8565b610e04565b8254610dd2565b9055565b610e30906105a1565b90565b610e3c90610b3f565b90565b90610e54610e4f610e5b92610e27565b610e33565b8254610a6d565b9055565b610e6890610278565b90565b90565b90610e83610e7e610e8a92610e5f565b610e6b565b8254610dd2565b9055565b610ec99291610ebb610ec292610eb5610eb0610eaa6009610b5e565b15610278565b610bc4565b5f610dc6565b6001610dc6565b6002610e07565b610edb610ed46116e9565b6006610aa2565b610eed610ee661183d565b6007610e3f565b610ef960016009610e6e565b565b610f07610f0c91610b3f565b6106d3565b90565b610f199054610efb565b90565b610f24610c42565b50610f2f6003610f0f565b90565b90565b610f49610f44610f4e92610f32565b610682565b610225565b90565b919091610f5c610a4e565b50610f7b610f76610f6f60058490610a52565b33906106b9565b610f0f565b80610f9f610f99610f94610f8e5f610f35565b19610225565b610225565b91610225565b0361105d575b50610fd8610fc7610fc0610fbb600485906106b9565b610f0f565b84906119a5565b610fd3600484906106b9565b610aa2565b61100a610ff9610ff2610fed600487906106b9565b610f0f565b8490611a7f565b611005600486906106b9565b610aa2565b91909161105561104361103d7fddf252ad1be2c89b69c2b068fc378daa952ba7f163c4a11628f55a4df523b3ef936106ad565b936106ad565b9361104c610112565b91829182610490565b0390a3600190565b61106b6110869184906119a5565b61108161107a60058590610a52565b33906106b9565b610aa2565b5f610fa5565b5f90565b60ff1690565b6110a26110a791610b3f565b611090565b90565b6110b49054611096565b90565b6110bf61108c565b506110ca60026110aa565b90565b5f90565b90565b6110e06110e591610b3f565b6110d1565b90565b6110f290546110d4565b90565b6110fd6110cd565b506111066116e9565b61112161111b6111166006610f0f565b610225565b91610225565b145f146111365761113260076110e8565b5b90565b61113e61183d565b611133565b9061114d91611ab4565b565b61116661116b9161115e610c42565b5060046106b9565b610f0f565b90565b61117661091d565b506111816001610a2d565b90565b9061118d610a4e565b506111c06111af6111a86111a3600433906106b9565b610f0f565b83906119a5565b6111bb600433906106b9565b610aa2565b6111f26111e16111da6111d5600486906106b9565b610f0f565b8390611a7f565b6111ed600485906106b9565b610aa2565b3391909161123e61122c6112267fddf252ad1be2c89b69c2b068fc378daa952ba7f163c4a11628f55a4df523b3ef936106ad565b936106ad565b93611235610112565b91829182610490565b0390a3600190565b5f7f5045524d49545f444541444c494e455f45585049524544000000000000000000910152565b61127a6017602092610133565b61128381611246565b0190565b61129c9060208101905f81830391015261126d565b90565b156112a657565b6112ae610112565b62461bcd60e51b8152806112c460048201611287565b0390fd5b634e487b7160e01b5f52601160045260245ffd5b6112e590610225565b5f1981146112f35760010190565b6112c8565b611301906101f6565b9052565b919461134d6113579298979561134360a09661133961135e9a61132f60c08a019e5f8b01906105a4565b60208901906112f8565b60408701906112f8565b6060850190610483565b6080830190610483565b0190610483565b565b60200190565b5190565b905090565b5f61190160f01b910152565b6113876002809261136a565b6113908161136f565b0190565b90565b6113a36113a8916105a1565b611394565b9052565b60208093926113c76113c06113cf9461137b565b8092611397565b018092611397565b0190565b61140861140f946113fe6060949897956113f4608086019a5f8701906105a4565b602085019061054a565b60408301906105a4565b01906105a4565b565b611419610112565b3d5f823e3d90fd5b61143561143061143a92610f32565b610682565b6101eb565b90565b61144690611421565b90565b5f7f494e56414c49445f5349474e4552000000000000000000000000000000000000910152565b61147d600e602092610133565b61148681611449565b0190565b61149f9060208101905f818303910152611470565b90565b156114a957565b6114b1610112565b62461bcd60e51b8152806114c76004820161148a565b0390fd5b936115d85f939692976020956114f4816114ed6114e742610225565b91610225565b101561129f565b6115b28a61157a8a61156c8d6115086110f5565b967f6e71edae12b1b97f4d1f60370fef10105fa2faae0126114a169c64845d6126c9936115398197939160086106b9565b61155561154582610f0f565b9161154f836112dc565b90610aa2565b919261155f610112565b9760209689978801611305565b8b82018103825203826102f1565b61158c61158682611366565b91611360565b20916115a4611599610112565b9384928b84016113ac565b8982018103825203826102f1565b6115c46115be82611366565b91611360565b2092936115cf610112565b948594856113d3565b838052039060015afa156116a95761163a6115f35f51610a68565b8061160e6116086116035f61143d565b6101f6565b916101f6565b14158061168a575b61161f906114a2565b61163561162e85926005610a52565b86906106b9565b610aa2565b91909161168561167361166d7f8c5be1e5ebec7d5bd14f71427d1e84f3dd0314c0f7b2291e5b200ac8c7c3b925936106ad565b936106ad565b9361167c610112565b91829182610490565b0390a3565b5061161f816116a161169b866101f6565b916101f6565b149050611616565b611411565b6116d3916116c96116ce926116c1610c42565b506005610a52565b6106b9565b610f0f565b90565b916116e392919091610e8e565b565b5f90565b6116f1610c42565b5061170560016116ff6116e5565b50611b7f565b90565b90565b60209181520190565b5f5260205f2090565b905f929180549061173761173083610936565b809461170b565b916001811690815f1461178e5750600114611752575b505050565b61175f9192939450611714565b915f925b81841061177657505001905f808061174d565b60018160209295939554848601520191019290611763565b92949550505060ff19168252151560200201905f808061174d565b906117b39161171d565b90565b906117d66117cf926117c6610112565b938480926117a9565b03836102f1565b565b6117e1906117b6565b90565b6117ed906106a1565b90565b9095949261183b9461182a6118349261182060809661181660a088019c5f8901906105a4565b60208701906105a4565b60408501906105a4565b6060830190610483565b01906112f8565b565b6118456110cd565b507f8b73c3c69bb8fe3d512ecc4cf759cc79239f7b179b0ffacaa9a75d522b39400f6118e861187b6118765f611708565b6117d8565b61188d61188782611366565b91611360565b20916118d97fc89efdaa54c0f20c7adf612882df0950f5a951637e0307cdcb4c672f298b8bc66118bb6116e9565b6118c4306117e4565b916118cd610112565b968795602087016117f0565b602082018103825203826102f1565b6118fa6118f482611366565b91611360565b2090565b5f7f45524332303a207375627472616374696f6e20756e646572666c6f7700000000910152565b611932601c602092610133565b61193b816118fe565b0190565b6119549060208101905f818303910152611925565b90565b1561195e57565b611966610112565b62461bcd60e51b81528061197c6004820161193f565b0390fd5b61198f61199591939293610225565b92610225565b82039182116119a057565b6112c8565b906119d5916119b2610c42565b506119d0816119c96119c385610225565b91610225565b1015611957565b611980565b90565b6119e76119ed91939293610225565b92610225565b82018092116119f857565b6112c8565b5f7f45524332303a206164646974696f6e206f766572666c6f770000000000000000910152565b611a316018602092610133565b611a3a816119fd565b0190565b611a539060208101905f818303910152611a24565b90565b15611a5d57565b611a65610112565b62461bcd60e51b815280611a7b60048201611a3e565b0390fd5b90611a96611ab191611a8f610c42565b50836119d8565b91611aaa611aa48492610225565b91610225565b1015611a56565b90565b90611ad3611acc611ac56003610f0f565b8390611a7f565b6003610aa2565b611b05611af4611aed611ae8600486906106b9565b610f0f565b8390611a7f565b611b00600485906106b9565b610aa2565b611b0e5f61143d565b919091611b59611b47611b417fddf252ad1be2c89b69c2b068fc378daa952ba7f163c4a11628f55a4df523b3ef936106ad565b936106ad565b93611b50610112565b91829182610490565b0390a3565b611b66610c42565b504690565b634e487b7160e01b5f52605160045260245ffd5b600103611b6b57611b8e611b5e565b9056fea264697066735822122095fbabd8c2d53f280e870e2c0d4f87933a1196b593e3bf7a06dd8f632591850064736f6c63430008170033","linkReferences":{}},"methodIdentifiers":{"DOMAIN_SEPARATOR()":"3644e515","allowance(address,address)":"dd62ed3e","approve(address,uint256)":"095ea7b3","balanceOf(address)":"70a08231","decimals()":"313ce567","init(string,string,uint8)":"f57b0182","initialize(string,string,uint8)":"1624f6c6","mint(address,uint256)":"40c10f19","name()":"06fdde03","nonces(address)":"7ecebe00","permit(address,address,uint256,uint256,uint8,bytes32,bytes32)":"d505accf","symbol()":"95d89b41","totalSupply()":"18160ddd","transfer(address,uint256)":"a9059cbb","transferFrom(address,address,uint256)":"23b872dd"},"id":48}