{"abi":[{"type":"constructor","inputs":[{"name":"factory_","type":"address","internalType":"address"},{"name":"periodSize_","type":"uint32","internalType":"uint32"}],"stateMutability":"nonpayable"},{"type":"function","name":"MIN_BLOCKS","inputs":[],"outputs":[{"name":"","type":"uint256","internalType":"uint256"}],"stateMutability":"view"},{"type":"function","name":"consult","inputs":[{"name":"tokenIn","type":"address","internalType":"address"},{"name":"amountIn","type":"uint256","internalType":"uint256"},{"name":"tokenOut","type":"address","internalType":"address"}],"outputs":[{"name":"amountOut","type":"uint256","internalType":"uint256"}],"stateMutability":"view"},{"type":"function","name":"consultAmountsOut","inputs":[{"name":"amountIn","type":"uint256","internalType":"uint256"},{"name":"path","type":"address[]","internalType":"address[]"}],"outputs":[{"name":"amounts","type":"uint256[]","internalType":"uint256[]"}],"stateMutability":"view"},{"type":"function","name":"factory","inputs":[],"outputs":[{"name":"","type":"address","internalType":"address"}],"stateMutability":"view"},{"type":"function","name":"owner","inputs":[],"outputs":[{"name":"","type":"address","internalType":"address"}],"stateMutability":"view"},{"type":"function","name":"pairObservation","inputs":[{"name":"","type":"address","internalType":"address"}],"outputs":[{"name":"timestamp","type":"uint32","internalType":"uint32"},{"name":"commit_block","type":"uint256","internalType":"uint256"},{"name":"price0Cumulative","type":"uint256","internalType":"uint256"},{"name":"price1Cumulative","type":"uint256","internalType":"uint256"},{"name":"price0Average","type":"tuple","internalType":"struct FixedPoint.uq112x112","components":[{"name":"_x","type":"uint224","internalType":"uint224"}]},{"name":"price1Average","type":"tuple","internalType":"struct FixedPoint.uq112x112","components":[{"name":"_x","type":"uint224","internalType":"uint224"}]},{"name":"prev_price0Average","type":"tuple","internalType":"struct FixedPoint.uq112x112","components":[{"name":"_x","type":"uint224","internalType":"uint224"}]},{"name":"prev_price1Average","type":"tuple","internalType":"struct FixedPoint.uq112x112","components":[{"name":"_x","type":"uint224","internalType":"uint224"}]}],"stateMutability":"view"},{"type":"function","name":"periodSize","inputs":[],"outputs":[{"name":"","type":"uint32","internalType":"uint32"}],"stateMutability":"view"},{"type":"function","name":"renounceOwnership","inputs":[],"outputs":[],"stateMutability":"nonpayable"},{"type":"function","name":"transferOwnership","inputs":[{"name":"newOwner","type":"address","internalType":"address"}],"outputs":[],"stateMutability":"nonpayable"},{"type":"function","name":"updateAll","inputs":[],"outputs":[{"name":"updatedPairs","type":"uint256","internalType":"uint256"}],"stateMutability":"nonpayable"},{"type":"function","name":"updatePath","inputs":[{"name":"path","type":"address[]","internalType":"address[]"}],"outputs":[],"stateMutability":"nonpayable"},{"type":"function","name":"updatePeriodSize","inputs":[{"name":"periodSize_","type":"uint32","internalType":"uint32"}],"outputs":[],"stateMutability":"nonpayable"},{"type":"event","name":"OwnershipTransferred","inputs":[{"name":"previousOwner","type":"address","indexed":true,"internalType":"address"},{"name":"newOwner","type":"address","indexed":true,"internalType":"address"}],"anonymous":false},{"type":"event","name":"UpdatePeriodSize","inputs":[{"name":"old_period_size","type":"uint32","indexed":false,"internalType":"uint32"},{"name":"period_size","type":"uint32","indexed":false,"internalType":"uint32"}],"anonymous":false},{"type":"error","name":"OwnableInvalidOwner","inputs":[{"name":"owner","type":"address","internalType":"address"}]},{"type":"error","name":"OwnableUnauthorizedAccount","inputs":[{"name":"account","type":"address","internalType":"address"}]}],"bytecode":{"object":"0x60a0604052346200004f576200001f620000186200016a565b9062000350565b6200002962000055565b612ec3620005d882396080518181816108aa015281816113f901526119f80152612ec390f35b6200005b565b60405190565b5f80fd5b601f801991011690565b634e487b7160e01b5f52604160045260245ffd5b9062000089906200005f565b810190811060018060401b03821117620000a257604052565b62000069565b90620000bf620000b762000055565b92836200007d565b565b5f80fd5b60018060a01b031690565b620000db90620000c5565b90565b620000e981620000d0565b03620000f157565b5f80fd5b905051906200010482620000de565b565b63ffffffff1690565b6200011a8162000106565b036200012257565b5f80fd5b9050519062000135826200010f565b565b91906040838203126200016457806200015762000161925f8601620000f5565b9360200162000126565b90565b620000c1565b6200018d6200349b803803806200018181620000a8565b92833981019062000137565b9091565b90565b90565b620001b0620001aa620001b69262000191565b62000194565b62000106565b90565b60209181520190565b60207f3630207365636f6e647300000000000000000000000000000000000000000000917f706572696f6453697a65206d7573742062652067726561746572207468616e205f8201520152565b6200021e602a604092620001b9565b6200022981620001c2565b0190565b620002449060208101905f8183039101526200020f565b90565b156200024f57565b6200025962000055565b62461bcd60e51b81528062000271600482016200022d565b0390fd5b60a01c90565b63ffffffff1690565b62000293620002999162000275565b6200027b565b90565b620002a8905462000284565b90565b620002b69062000106565b9052565b916020620002df929493620002d760408201965f830190620002ab565b0190620002ab565b565b60a01b90565b90620002fb63ffffffff60a01b91620002e1565b9181191691161790565b6200031e62000318620003249262000106565b62000194565b62000106565b90565b90565b90620003446200033e6200034c9262000305565b62000327565b8254620002e7565b9055565b90620003d7916200036133620003d9565b62000384826200037d62000376603c62000197565b9162000106565b1162000247565b608052620003925f6200029c565b817fa463f39011a143cdabe04cb9e0820737d0e7063af8d9d65d58959769e215f7a991620003cd620003c362000055565b92839283620002ba565b0390a15f6200032a565b565b620003e4906200043f565b565b90565b62000402620003fc6200040892620003e6565b62000194565b620000c5565b90565b6200041690620003e9565b90565b6200042490620000d0565b9052565b91906200043d905f6020850194019062000419565b565b806200046062000459620004535f6200040b565b620000d0565b91620000d0565b14620004735762000471906200056c565b565b620004a3620004825f6200040b565b6200048c62000055565b918291631e4fbdf760e01b83526004830162000428565b0390fd5b5f1c90565b60018060a01b031690565b620004c6620004cc91620004a7565b620004ac565b90565b620004db9054620004b7565b90565b5f1b90565b90620004f660018060a01b0391620004de565b9181191691161790565b62000519620005136200051f92620000c5565b62000194565b620000c5565b90565b6200052d9062000500565b90565b6200053b9062000522565b90565b90565b906200055b62000555620005639262000530565b6200053e565b8254620004e3565b9055565b5f0190565b620005775f620004cf565b62000583825f62000541565b90620005bb620005b47f8be0079c531659141344cd1fd0a4f28419497f9722a3daafe3b4186f6b6457e09362000530565b9162000530565b91620005c662000055565b80620005d28162000567565b0390a356fe60806040526004361015610013575b6109b7565b61001d5f356100dc565b806317e51a88146100d757806338af79a9146100d25780633e2b46f9146100cd578063424557d8146100c8578063480dc16a146100c357806353d78693146100be578063715018a6146100b95780638c86f1e4146100b45780638da5cb5b146100af578063c45a0155146100aa578063e4463eb2146100a55763f2fde38b0361000e57610984565b61094f565b6108cc565b610873565b61081b565b6107ae565b610779565b61073a565b6104c0565b610455565b6101e6565b61015e565b60e01c90565b60405190565b5f80fd5b5f80fd5b5f9103126100fa57565b6100ec565b90565b90565b90565b61011c610117610121926100ff565b610105565b610102565b90565b61012e6003610108565b90565b610139610124565b90565b61014590610102565b9052565b919061015c905f6020850194019061013c565b565b3461018e5761016e3660046100f0565b61018a610179610131565b6101816100e2565b91829182610149565b0390f35b6100e8565b5f80fd5b63ffffffff1690565b6101a981610197565b036101b057565b5f80fd5b905035906101c1826101a0565b565b906020828203126101dc576101d9915f016101b4565b90565b6100ec565b5f0190565b34610214576101fe6101f93660046101c3565b610bb5565b6102066100e2565b80610210816101e1565b0390f35b6100e8565b61022281610102565b0361022957565b5f80fd5b9050359061023a82610219565b565b5f80fd5b601f801991011690565b634e487b7160e01b5f52604160045260245ffd5b9061026890610240565b810190811067ffffffffffffffff82111761028257604052565b61024a565b9061029a6102936100e2565b928361025e565b565b67ffffffffffffffff81116102b45760208091020190565b61024a565b5f80fd5b60018060a01b031690565b6102d1906102bd565b90565b6102dd816102c8565b036102e457565b5f80fd5b905035906102f5826102d4565b565b9092919261030c6103078261029c565b610287565b938185526020808601920283019281841161034957915b8383106103305750505050565b6020809161033e84866102e8565b815201920191610323565b6102b9565b9080601f8301121561036c57816020610369933591016102f7565b90565b61023c565b9190916040818403126103b15761038a835f830161022d565b92602082013567ffffffffffffffff81116103ac576103a9920161034e565b90565b610193565b6100ec565b5190565b60209181520190565b60200190565b6103d290610102565b9052565b906103e3816020936103c9565b0190565b60200190565b9061040a6104046103fd846103b6565b80936103ba565b926103c3565b905f5b81811061041a5750505090565b90919261043361042d60019286516103d6565b946103e7565b910191909161040d565b6104529160208201915f8184039101526103ed565b90565b346104865761048261047161046b366004610371565b90610df5565b6104796100e2565b9182918261043d565b0390f35b6100e8565b906020828203126104bb575f82013567ffffffffffffffff81116104b6576104b3920161034e565b90565b610193565b6100ec565b346104ee576104d86104d336600461048b565b610fee565b6104e06100e2565b806104ea816101e1565b0390f35b6100e8565b9060208282031261050c57610509915f016102e8565b90565b6100ec565b61052561052061052a926102bd565b610105565b6102bd565b90565b61053690610511565b90565b6105429061052d565b90565b9061054f90610539565b5f5260205260405f2090565b5f1c90565b63ffffffff1690565b61057561057a9161055b565b610560565b90565b6105879054610569565b90565b90565b61059961059e9161055b565b61058a565b90565b6105ab905461058d565b90565b60018060e01b031690565b6105c56105ca9161055b565b6105ae565b90565b6105d790546105b9565b90565b60018060e01b031690565b906105ef906105da565b9052565b6105fd6020610287565b90565b9061061f6106175f6106106105f3565b94016105cd565b5f84016105e5565b565b61062c906001610545565b906106385f830161057d565b91610645600182016105a1565b91610652600283016105a1565b9161065f600382016105a1565b9161066c60048301610600565b9161067960058201610600565b91610692600761068b60068501610600565b9301610600565b90565b61069e90610197565b9052565b6106ab906105da565b9052565b905f806106c09301519101906106a2565b565b959391989796949290986101008701995f88016106de91610695565b602087016106eb9161013c565b604086016106f89161013c565b606085016107059161013c565b60808401610712916106af565b60a0830161071f916106af565b60c0820161072c916106af565b60e001610738916106af565b565b34610774576107706107556107503660046104f3565b610621565b946107679896989491949392936100e2565b988998896106c2565b0390f35b6100e8565b346107a9576107893660046100f0565b6107a56107946110ea565b61079c6100e2565b91829182610149565b0390f35b6100e8565b346107dc576107be3660046100f0565b6107c66112cf565b6107ce6100e2565b806107d8816101e1565b0390f35b6100e8565b9091606082840312610816576108136107fc845f85016102e8565b9361080a816020860161022d565b936040016102e8565b90565b6100ec565b3461084c576108486108376108313660046107e1565b916113df565b61083f6100e2565b91829182610149565b0390f35b6100e8565b61085a906102c8565b9052565b9190610871905f60208501940190610851565b565b346108a3576108833660046100f0565b61089f61088e61158a565b6108966100e2565b9182918261085e565b0390f35b6100e8565b7f000000000000000000000000000000000000000000000000000000000000000090565b346108fc576108dc3660046100f0565b6108f86108e76108a8565b6108ef6100e2565b9182918261085e565b0390f35b6100e8565b1c90565b61091590600861091a9302610901565b610560565b90565b906109289154610905565b90565b6109375f60149061091d565b90565b919061094d905f60208501940190610695565b565b3461097f5761095f3660046100f0565b61097b61096a61092b565b6109726100e2565b9182918261093a565b0390f35b6100e8565b346109b25761099c6109973660046104f3565b61160b565b6109a46100e2565b806109ae816101e1565b0390f35b6100e8565b5f80fd5b6109cc906109c7611616565b610b49565b565b90565b6109e56109e06109ea926109ce565b610105565b610197565b90565b60209181520190565b60207f3630207365636f6e647300000000000000000000000000000000000000000000917f706572696f6453697a65206d7573742062652067726561746572207468616e205f8201520152565b610a50602a6040926109ed565b610a59816109f6565b0190565b610a729060208101905f818303910152610a43565b90565b15610a7c57565b610a846100e2565b62461bcd60e51b815280610a9a60048201610a5d565b0390fd5b60a01c90565b610ab0610ab591610a9e565b610560565b90565b610ac29054610aa4565b90565b916020610ae6929493610adf60408201965f830190610695565b0190610695565b565b60a01b90565b90610b0063ffffffff60a01b91610ae8565b9181191691161790565b610b1e610b19610b2392610197565b610105565b610197565b90565b90565b90610b3e610b39610b4592610b0a565b610b26565b8254610aee565b9055565b610bb390610b6a81610b64610b5e603c6109d1565b91610197565b11610a75565b610b735f610ab8565b817fa463f39011a143cdabe04cb9e0820737d0e7063af8d9d65d58959769e215f7a991610baa610ba16100e2565b92839283610ac5565b0390a15f610b29565b565b610bbe906109bb565b565b606090565b5190565b90565b610be0610bdb610be592610bc9565b610105565b610102565b90565b5f7f416d6d4c6962726172793a20494e56414c49445f504154480000000000000000910152565b610c1c60186020926109ed565b610c2581610be8565b0190565b610c3e9060208101905f818303910152610c0f565b90565b15610c4857565b610c506100e2565b62461bcd60e51b815280610c6660048201610c29565b0390fd5b67ffffffffffffffff8111610c825760208091020190565b61024a565b90610c99610c9483610c6a565b610287565b918252565b369037565b90610cc8610cb083610c87565b92602080610cbe8693610c6a565b9201910390610c9e565b565b634e487b7160e01b5f52603260045260245ffd5b90610ce8826103b6565b811015610cf9576020809102010190565b610cca565b90565b610d15610d10610d1a92610cfe565b610105565b610102565b90565b90610d2790610102565b9052565b5f90565b6001610d3b9101610102565b90565b90565b610d55610d50610d5a92610d3e565b610105565b610102565b90565b634e487b7160e01b5f52601160045260245ffd5b610d80610d8691939293610102565b92610102565b8203918211610d9157565b610d5d565b90610da082610bc5565b811015610db1576020809102010190565b610cca565b610dc090516102c8565b90565b610dcd9051610102565b90565b610ddf610de591939293610102565b92610102565b8201809211610df057565b610d5d565b9190610dff610bc0565b50610e26610e0c82610bc5565b610e1f610e196002610bcc565b91610102565b1015610c41565b610e53610e3a610e3583610bc5565b610ca3565b93610e4e85610e485f610d01565b90610cde565b610d1d565b610e5b610d2b565b5b80610e8a610e84610e7f610e6f86610bc5565b610e796001610d41565b90610d71565b610102565b91610102565b1015610f1b57610f1690610f11610eec610ead610ea8868590610d96565b610db6565b610ec0610ebb898690610cde565b610dc3565b610ee6610ee188610edb88610ed56001610d41565b90610dd0565b90610d96565b610db6565b916113df565b610f0c8791610f0585610eff6001610d41565b90610dd0565b9092610cde565b610d1d565b610d2f565b610e5c565b5050565b610f3090610f2b611616565b610f32565b565b90610f59610f3f83610bc5565b610f52610f4c6002610bcc565b91610102565b1015610c41565b610f61610d2b565b5b80610f90610f8a610f85610f7587610bc5565b610f7f6001610d41565b90610d71565b610102565b91610102565b1015610fe957610fe490610fdc610fb0610fab868490610d96565b610db6565b610fd6610fd187610fcb86610fc56001610d41565b90610dd0565b90610d96565b610db6565b906119d4565b505050610d2f565b610f62565b509050565b610ff790610f1f565b565b5f90565b5f90565b5490565b5f5260205f2090565b61101781611001565b82101561103157611029600191611005565b910201905f90565b610cca565b60018060a01b031690565b6110519060086110569302610901565b611036565b90565b906110649154611041565b90565b61107090610511565b90565b61107c90611067565b90565b6110889061052d565b90565b60e01b90565b9050519061109e826102d4565b565b906020828203126110b9576110b6915f01611091565b90565b6100ec565b6110c66100e2565b3d5f823e3d90fd5b6110d790610102565b5f1981146110e55760010190565b610d5d565b6110f2610d2b565b906110fb610ff9565b50611104610ffd565b5061110d610d2b565b5b8061112a61112461111f6002611001565b610102565b91610102565b101561127f5761117161115061114b6111456002859061100e565b90611059565b611073565b602061115b8261107f565b630dfe1681906111696100e2565b94859261108b565b82528180611181600482016101e1565b03915afa90811561127a576111b9925f92611244575b506111a360209161107f565b63d21220a7906111b16100e2565b94859261108b565b825281806111c9600482016101e1565b03915afa90811561123f576111e5925f9261120f575b506119d4565b50506111fa575b6111f590610d2f565b61110e565b916112076111f5916110ce565b9290506111ec565b61123191925060203d8111611238575b611229818361025e565b8101906110a0565b905f6111df565b503d61121f565b6110be565b602091925061126b6111a391833d8111611273575b611263818361025e565b8101906110a0565b929150611197565b503d611259565b6110be565b50565b61128a611616565b6112926112bc565b565b6112a86112a36112ad92610cfe565b610105565b6102bd565b90565b6112b990611294565b90565b6112cd6112c85f6112b0565b611e29565b565b6112d7611282565b565b90565b6112f06112eb6112f592610cfe565b610105565b610197565b90565b60207f4400000000000000000000000000000000000000000000000000000000000000917f416d6d547761704f7261636c653a20504149525f554e494e495449414c495a455f8201520152565b61135260216040926109ed565b61135b816112f8565b0190565b6113749060208101905f818303910152611345565b90565b1561137e57565b6113866100e2565b62461bcd60e51b81528061139c6004820161135f565b0390fd5b6113a990610600565b90565b71ffffffffffffffffffffffffffffffffffff1690565b6113d76113d26113dc926113ac565b610105565b610102565b90565b9190916113ea610d2b565b5061145961142c6114276114207f0000000000000000000000000000000000000000000000000000000000000000858791611fc7565b6001610545565b6112d9565b9261145361143b5f860161057d565b61144d6114475f6112dc565b91610197565b11611377565b82612178565b506114704361146a600186016105a1565b90610d71565b61148961148361147e610124565b610102565b91610102565b10155f146114fb5761149e6114a491926102c8565b916102c8565b145f146114d3576114c66114d0926114c160046114cb94016113a0565b612307565b612424565b6113c3565b90565b6114ee6114f8926114e960056114f394016113a0565b612307565b612424565b6113c3565b90565b61150861150e91926102c8565b916102c8565b145f1461153d5761153061153a9261152b600661153594016113a0565b612307565b612424565b6113c3565b90565b61155861156292611553600761155d94016113a0565b612307565b612424565b6113c3565b90565b5f90565b61157561157a9161055b565b611036565b90565b6115879054611569565b90565b611592611565565b5061159c5f61157d565b90565b6115b0906115ab611616565b6115b2565b565b806115cd6115c76115c25f6112b0565b6102c8565b916102c8565b146115dd576115db90611e29565b565b6116076115e95f6112b0565b6115f16100e2565b918291631e4fbdf760e01b83526004830161085e565b0390fd5b6116149061159f565b565b61161e61158a565b61163761163161162c612454565b6102c8565b916102c8565b0361163e57565b611667611649612454565b6116516100e2565b91829163118cdaa760e01b83526004830161085e565b0390fd5b5f90565b90565b5f5260205f2090565b5490565b6116888161167b565b8210156116a25761169a600191611672565b910201905f90565b610cca565b1b90565b919060086116cb9102916116c560018060a01b03846116a7565b926116a7565b9181191691161790565b90565b91906116ee6116e96116f693610539565b6116d5565b9083546116ab565b9055565b908154916801000000000000000083101561172a57826117229160016117289501815561167f565b906116d8565b565b61024a565b6dffffffffffffffffffffffffffff1690565b61174b8161172f565b0361175257565b5f80fd5b9050519061176382611742565b565b90505190611772826101a0565b565b90916060828403126117a9576117a661178f845f8501611756565b9361179d8160208601611756565b93604001611765565b90565b6100ec565b5f1b90565b906117c263ffffffff916117ae565b9181191691161790565b906117e16117dc6117e892610b0a565b610b26565b82546117b3565b9055565b905051906117f982610219565b565b9060208282031261181457611811915f016117ec565b90565b6100ec565b906118255f19916117ae565b9181191691161790565b61184361183e61184892610102565b610105565b610102565b90565b90565b9061186361185e61186a9261182f565b61184b565b8254611819565b9055565b61187a61188091610197565b91610197565b90039063ffffffff821161189057565b610d5d565b906118a660018060e01b03916117ae565b9181191691161790565b6118c46118bf6118c9926105da565b610105565b6105da565b90565b90565b906118e46118df6118eb926118b0565b6118cc565b8254611895565b9055565b908082036118fc575b5050565b61190d5f80611913940192016105cd565b906118cf565b5f806118f8565b90611924916118ef565b565b61193a61193561193f92610197565b610105565b610102565b90565b634e487b7160e01b5f52601260045260245ffd5b61196261196891610102565b91610102565b908115611973570490565b611942565b61198c61198761199192610102565b610105565b6105da565b90565b61199e6020610287565b90565b6119ab90516105da565b90565b906119c05f806119c6940192016119a1565b906118cf565b565b906119d2916119ae565b565b611a1f909291926119e3610ffd565b936119ec611565565b506119f561166b565b507f0000000000000000000000000000000000000000000000000000000000000000919091611fc7565b90611a34611a2f60018490610545565b6112d9565b611a3f5f820161057d565b611a51611a4b5f6112dc565b91610197565b14611c26575b611a60836124a7565b919091611a7881611a725f870161057d565b9061186e565b80611a93611a8d611a885f610ab8565b610197565b91610197565b118015611c01575b611ab2575b505050505f611aaf910161057d565b90565b849750611bc49291611b82611b65611b60611bbb94611b5a611b548b611ae16004611bcd9e016006830161191a565b611af1600582016007830161191a565b611b41611b24611b1f611b108d611b0a600287016105a1565b90610d71565b611b1988611926565b90611956565b611978565b611b38611b2f611994565b915f83016105e5565b600483016119c8565b611b4e60038d92016105a1565b90610d71565b91611926565b90611956565b611978565b611b79611b70611994565b915f83016105e5565b60058b016119c8565b611b8e60018a016105a1565b611ba0611b9a5f610d01565b91610102565b14611bdc575b611bb34360018b0161184e565b5f89016117cc565b6002870161184e565b6003850161184e565b611aaf5f600194915f80611aa0565b611bec60048a0160068b0161191a565b611bfc60058a0160078b0161191a565b611ba6565b50611c0e600186016105a1565b611c20611c1a5f610d01565b91610102565b14611a9b565b611c3a611c33600261166f565b84906116fa565b611c666060611c50611c4b86611073565b61107f565b630902f1ac90611c5e6100e2565b93849261108b565b82528180611c76600482016101e1565b03915afa8015611de957611c99915f808093915050611dba575b505f83016117cc565b611cc56020611caf611caa86611073565b61107f565b635909c0d590611cbd6100e2565b93849261108b565b82528180611cd5600482016101e1565b03915afa8015611db557611cf4915f91611d87575b506002830161184e565b611d206020611d0a611d0586611073565b61107f565b635a3d549390611d186100e2565b93849261108b565b82528180611d30600482016101e1565b03915afa8015611d8257611d4f915f91611d54575b506003830161184e565b611a57565b611d75915060203d8111611d7b575b611d6d818361025e565b8101906117fb565b5f611d45565b503d611d63565b6110be565b611da8915060203d8111611dae575b611da0818361025e565b8101906117fb565b5f611cea565b503d611d96565b6110be565b611ddb915060603d8111611de2575b611dd3818361025e565b810190611774565b9150611c90565b503d611dc9565b6110be565b90611dff60018060a01b03916117ae565b9181191691161790565b90611e1e611e19611e2592610539565b6116d5565b8254611dee565b9055565b611e325f61157d565b611e3c825f611e09565b90611e70611e6a7f8be0079c531659141344cd1fd0a4f28419497f9722a3daafe3b4186f6b6457e093610539565b91610539565b91611e796100e2565b80611e83816101e1565b0390a3565b60601b90565b611e9790611e88565b90565b611ea390611e8e565b90565b611eb2611eb7916102c8565b611e9a565b9052565b601481611ecd611ed593839695611ea6565b018092611ea6565b0190565b60200190565b5190565b905090565b5f60ff60f81b910152565b611eff60018092611ee3565b611f0881611ee8565b0190565b90565b90565b611f1e611f2391611f0c565b611f0f565b9052565b5f7fc7b342b8afa208891f5b14c7c6d99044c437560e59c235232031de623ba8ccad910152565b611f5a60208092611ee3565b611f6381611f27565b0190565b91611f8e6014602093611f86611f7f611f9497611ef3565b8092611ea6565b018092611f12565b01611f4e565b90565b611fa3611fa89161055b565b61182f565b90565b611fbf611fba611fc492610102565b610105565b6102bd565b90565b61201561204f61206792611fea6120719661206c96611fe4611565565b50612178565b9390939193612006611ffa6100e2565b93849260208401611ebb565b6020820181038252038261025e565b61202761202182611edf565b91611ed9565b20916120406120346100e2565b93849260208401611f67565b6020820181038252038261025e565b61206161205b82611edf565b91611ed9565b20611f97565b611fab565b61052d565b90565b5f7f416d6d4c6962726172793a204944454e544943414c5f41444452455353455300910152565b6120a8601f6020926109ed565b6120b181612074565b0190565b6120ca9060208101905f81830391015261209b565b90565b156120d457565b6120dc6100e2565b62461bcd60e51b8152806120f2600482016120b5565b0390fd5b5f7f416d6d4c6962726172793a205a45524f5f414444524553530000000000000000910152565b61212a60186020926109ed565b612133816120f6565b0190565b61214c9060208101905f81830391015261211d565b90565b1561215657565b61215e6100e2565b62461bcd60e51b81528061217460048201612137565b0390fd5b612180611565565b50612189611565565b506121a7816121a061219a856102c8565b916102c8565b14156120cd565b806121ba6121b4846102c8565b916102c8565b105f146121ec57905b90916121ea836121e36121dd6121d85f6112b0565b6102c8565b916102c8565b141561214f565b565b6121c3565b6121fb6020610287565b90565b5f90565b61220a6121f1565b906020826122166121fe565b81525050565b612224612202565b90565b61223b612236612240926105da565b610105565b610102565b90565b61225261225891939293610102565b92610102565b91612264838202610102565b92818404149015171561227357565b610d5d565b5f7f4669786564506f696e743a3a6d756c3a206f766572666c6f7700000000000000910152565b6122ac60196020926109ed565b6122b581612278565b0190565b6122ce9060208101905f81830391015261229f565b90565b156122d857565b6122e06100e2565b62461bcd60e51b8152806122f6600482016122b9565b0390fd5b6123046020610287565b90565b61230f61221c565b506123195f610d01565b918061232d6123275f610d01565b91610102565b14918215612358575b5050612341906122d1565b61235561234c6122fa565b915f8301610d1d565b90565b90925061234191506123a361239d6123985f61239161238a61237b8388016119a1565b6123858a91612227565b612243565b9788611956565b94016119a1565b612227565b91610102565b14905f612336565b5f90565b90565b60ff1690565b6123cc6123c76123d1926123af565b610105565b6123b2565b90565b6123de60706123b8565b90565b612400906123fa6123f4612405946123b2565b91610102565b90610901565b610102565b90565b61241c61241761242192610102565b610105565b6113ac565b90565b61244c61243e5f612451936124376123ab565b5001610dc3565b6124466123d4565b906123e1565b612408565b90565b61245c611565565b503390565b9061246c9103610197565b90565b61248361247e6124889261172f565b610105565b610102565b90565b906124969102610102565b90565b906124a49101610102565b90565b6124af610d2b565b506124b8610d2b565b506124c161166b565b506124ca612785565b6124f660206124e06124db85611073565b61107f565b635909c0d5906124ee6100e2565b93849261108b565b82528180612506600482016101e1565b03915afa908115612723575f916126f5575b5092612546602061253061252b86611073565b61107f565b635a3d54939061253e6100e2565b93849261108b565b82528180612556600482016101e1565b03915afa9081156126f05761258161257c612597936060935f916126c2575b5096611073565b61107f565b630902f1ac9061258f6100e2565b93849261108b565b825281806125a7600482016101e1565b03915afa9081156126bd575f808092909361268a575b509190806125d36125cd87610197565b91610197565b036125de575b505050565b9161267561266f61266a5f61266461267b9661265e612658612652899f6126819d9f9c8f6126388961263261261961264c9561263d95612461565b9f61262c6126268c61246f565b9161246f565b90612992565b016119a1565b612227565b6126468d611926565b9061248b565b90612499565b9e61246f565b9161246f565b90612992565b016119a1565b612227565b91611926565b9061248b565b90612499565b915f80806125d9565b9150506126ae915060603d81116126b6575b6126a6818361025e565b810190611774565b90915f6125bd565b503d61269c565b6110be565b6126e3915060203d81116126e9575b6126db818361025e565b8101906117fb565b5f612575565b503d6126d1565b6110be565b612716915060203d811161271c575b61270e818361025e565b8101906117fb565b5f612518565b503d612704565b6110be565b90565b61273f61273a61274492612728565b610105565b610102565b90565b61275361275991610102565b91610102565b908115612764570690565b611942565b61277d61277861278292610102565b610105565b610197565b90565b61278d61166b565b506127ae6127a9426127a364010000000061272b565b90612747565b612769565b90565b5f90565b6127bd6105f3565b906020826127c96127b1565b81525050565b6127d76127b5565b90565b60207f79207a65726f0000000000000000000000000000000000000000000000000000917f4669786564506f696e743a3a6672616374696f6e3a206469766973696f6e20625f8201520152565b61283460266040926109ed565b61283d816127da565b0190565b6128569060208101905f818303910152612827565b90565b1561286057565b6128686100e2565b62461bcd60e51b81528061287e60048201612841565b0390fd5b61289661289161289b92610cfe565b610105565b6105da565b90565b6128b26128ad6128b792610cfe565b610105565b6113ac565b90565b90565b6128d16128cc6128d6926128ba565b610105565b610102565b90565b6128e6600160701b6128bd565b90565b5f7f4669786564506f696e743a3a6672616374696f6e3a206f766572666c6f770000910152565b61291d601e6020926109ed565b612926816128e9565b0190565b61293f9060208101905f818303910152612910565b90565b1561294957565b6129516100e2565b62461bcd60e51b8152806129676004820161292a565b0390fd5b61298a9061298461297e61298f946123b2565b91610102565b906116a7565b610102565b90565b61299a6127cf565b506129b7826129b16129ab5f610d01565b91610102565b11612859565b806129ca6129c45f610d01565b91610102565b14612ac557806129f36129ed6129e86129e25f61289e565b196113ac565b6113c3565b91610102565b11155f14612a6357612a4c91612a14612a1992612a0e6123d4565b9061296b565b611956565b612a4781612a40612a3a612a35612a2f5f612882565b196105da565b612227565b91610102565b1115612942565b611978565b612a60612a57611994565b915f83016105e5565b90565b612aae91612a7b9190612a746128d9565b9091612b99565b612aa981612aa2612a9c612a97612a915f612882565b196105da565b612227565b91610102565b1115612942565b611978565b612ac2612ab9611994565b915f83016105e5565b90565b50505f612ae4612adc612ad6611994565b92612882565b5f83016105e5565b90565b90612af29103610102565b90565b612b01612b0791610102565b91610102565b908115612b12570490565b611942565b5f7f46756c6c4d6174683a2046554c4c4449565f4f564552464c4f57000000000000910152565b612b4b601a6020926109ed565b612b5481612b17565b0190565b612b6d9060208101905f818303910152612b3e565b90565b15612b7757565b612b7f6100e2565b62461bcd60e51b815280612b9560048201612b58565b0390fd5b612ba1610d2b565b50612bad818390612c55565b929092919084918215612c5057099182612bcf612bc983610102565b91610102565b11612c32575b612be0919290612ae7565b9181612bf4612bee5f610d01565b91610102565b14612c2457612c2192612c1983612c13612c0d85610102565b91610102565b10612b70565b919091612cd6565b90565b9050612c2f91612af5565b90565b612c49612be092612c436001610d41565b90612ae7565b9150612bd5565b611942565b90612c5e610d2b565b50612c67610d2b565b50819080612c7d612c775f610d01565b19610102565b908115612cd157612c8f93099261248b565b91612c9b828490612ae7565b91612cae612ca885610102565b91610102565b10612cb6575b565b90612ccb90612cc56001610d41565b90612ae7565b90612cb4565b611942565b90612d43612e8491612d3d612e8a95612ced610d2b565b50612d37612d27612d16612d0e84612d058619610102565b16948590612af5565b988490612af5565b9492612d228119610102565b612af5565b612d316001610d41565b90612499565b9061248b565b90612499565b91612e7e612e62612e3e612e1a612df6612dd2612dae612d8a612d666001610d41565b612d846002612d7f612d798d859061248b565b91610bcc565b612ae7565b9061248b565b612da86002612da3612d9d8c859061248b565b91610bcc565b612ae7565b9061248b565b612dcc6002612dc7612dc18b859061248b565b91610bcc565b612ae7565b9061248b565b612df06002612deb612de58a859061248b565b91610bcc565b612ae7565b9061248b565b612e146002612e0f612e0989859061248b565b91610bcc565b612ae7565b9061248b565b612e386002612e33612e2d88859061248b565b91610bcc565b612ae7565b9061248b565b612e5c6002612e57612e5187859061248b565b91610bcc565b612ae7565b9061248b565b91612e79612e73600292859061248b565b91610bcc565b612ae7565b9061248b565b9061248b565b9056fea2646970667358221220e878a8d9a3daba949082a8fd34eef144803aeb8dbba5f7d0f6591c10c8e65f0664736f6c63430008170033","linkReferences":{}},"methodIdentifiers":{"MIN_BLOCKS()":"17e51a88","consult(address,uint256,address)":"8c86f1e4","consultAmountsOut(uint256,address[])":"3e2b46f9","factory()":"c45a0155","owner()":"8da5cb5b","pairObservation(address)":"480dc16a","periodSize()":"e4463eb2","renounceOwnership()":"715018a6","transferOwnership(address)":"f2fde38b","updateAll()":"53d78693","updatePath(address[])":"424557d8","updatePeriodSize(uint32)":"38af79a9"},"id":39}