{"abi":[{"type":"constructor","inputs":[{"name":"owner","type":"address","internalType":"address"}],"stateMutability":"nonpayable"},{"type":"function","name":"INIT_CODE_PAIR_HASH","inputs":[],"outputs":[{"name":"","type":"bytes32","internalType":"bytes32"}],"stateMutability":"view"},{"type":"function","name":"allPairs","inputs":[{"name":"","type":"uint256","internalType":"uint256"}],"outputs":[{"name":"","type":"address","internalType":"address"}],"stateMutability":"view"},{"type":"function","name":"allPairsLength","inputs":[],"outputs":[{"name":"","type":"uint256","internalType":"uint256"}],"stateMutability":"view"},{"type":"function","name":"createPair","inputs":[{"name":"tokenA","type":"address","internalType":"address"},{"name":"tokenB","type":"address","internalType":"address"}],"outputs":[{"name":"pair","type":"address","internalType":"address"}],"stateMutability":"nonpayable"},{"type":"function","name":"feeRateBips","inputs":[],"outputs":[{"name":"","type":"uint256","internalType":"uint256"}],"stateMutability":"view"},{"type":"function","name":"feeTo","inputs":[],"outputs":[{"name":"","type":"address","internalType":"address"}],"stateMutability":"view"},{"type":"function","name":"feeToSetter","inputs":[],"outputs":[{"name":"","type":"address","internalType":"address"}],"stateMutability":"view"},{"type":"function","name":"getPair","inputs":[{"name":"tokenA","type":"address","internalType":"address"},{"name":"tokenB","type":"address","internalType":"address"}],"outputs":[{"name":"pair","type":"address","internalType":"address"}],"stateMutability":"view"},{"type":"function","name":"setFeeRateBips","inputs":[{"name":"_feeRateBips","type":"uint256","internalType":"uint256"}],"outputs":[],"stateMutability":"nonpayable"},{"type":"function","name":"setFeeTo","inputs":[{"name":"_feeTo","type":"address","internalType":"address"}],"outputs":[],"stateMutability":"nonpayable"},{"type":"function","name":"setFeeToSetter","inputs":[{"name":"_feeToSetter","type":"address","internalType":"address"}],"outputs":[],"stateMutability":"nonpayable"},{"type":"event","name":"PairCreated","inputs":[{"name":"token0","type":"address","indexed":true,"internalType":"address"},{"name":"token1","type":"address","indexed":true,"internalType":"address"},{"name":"pair","type":"address","indexed":false,"internalType":"address"},{"name":"","type":"uint256","indexed":false,"internalType":"uint256"}],"anonymous":false}],"bytecode":{"object":"0x60806040523462000037576200001e6200001862000110565b6200024d565b620000286200003d565b61539e62000282823961539e90f35b62000043565b60405190565b5f80fd5b601f801991011690565b634e487b7160e01b5f52604160045260245ffd5b90620000719062000047565b810190811060018060401b038211176200008a57604052565b62000051565b90620000a76200009f6200003d565b928362000065565b565b5f80fd5b60018060a01b031690565b620000c390620000ad565b90565b620000d181620000b8565b03620000d957565b5f80fd5b90505190620000ec82620000c6565b565b906020828203126200010a5762000107915f01620000dd565b90565b620000a9565b620001336200562080380380620001278162000090565b928339810190620000ee565b90565b5f1b90565b906200014e60018060a01b039162000136565b9181191691161790565b90565b620001746200016e6200017a92620000ad565b62000158565b620000ad565b90565b62000188906200015b565b90565b62000196906200017d565b90565b90565b90620001b6620001b0620001be926200018b565b62000199565b82546200013b565b9055565b90565b90565b620001e1620001db620001e792620001c2565b62000158565b620001c5565b90565b90620001f85f199162000136565b9181191691161790565b6200021b620002156200022192620001c5565b62000158565b620001c5565b90565b90565b90620002416200023b620002499262000202565b62000224565b8254620001ea565b9055565b62000266906200025f8160016200019c565b5f6200019c565b6200027f620002776101f4620001c8565b600262000227565b56fe6080604052600436101562000015575b62000817565b620000215f35620000e6565b8063017e7e5814620000e0578063094b741514620000da5780631e3dd18b14620000d4578063574f2ba314620000ce5780635855a25a14620000c85780637328c31d14620000c2578063a15d0e3d14620000bc578063a2e74af614620000b6578063c9c6539614620000b0578063e6a4390514620000aa5763f46901ed036200000f57620007da565b6200079a565b620006c2565b62000652565b620005c9565b6200054c565b62000508565b62000357565b620002f2565b620001e4565b62000194565b60e01c90565b60405190565b5f80fd5b5f80fd5b5f9103126200010557565b620000f6565b1c90565b60018060a01b031690565b6200012d9060086200013393026200010b565b6200010f565b90565b906200014391546200011a565b90565b620001525f8062000136565b90565b60018060a01b031690565b6200016b9062000155565b90565b620001799062000160565b9052565b919062000192905f602085019401906200016e565b565b34620001cd57620001a7366004620000fa565b620001c9620001b562000146565b620001bf620000ec565b918291826200017d565b0390f35b620000f2565b620001e160015f9062000136565b90565b346200021d57620001f7366004620000fa565b6200021962000205620001d3565b6200020f620000ec565b918291826200017d565b0390f35b620000f2565b90565b620002318162000223565b036200023957565b5f80fd5b905035906200024c8262000226565b565b906020828203126200026a5762000267915f016200023d565b90565b620000f6565b634e487b7160e01b5f52603260045260245ffd5b5490565b5f5260205f2090565b6200029c8162000284565b821015620002b957620002b160019162000288565b910201905f90565b62000270565b6004620002cc8162000284565b821015620002ee57620002eb91620002e49162000291565b9062000136565b90565b5f80fd5b346200032b5762000327620003136200030d3660046200024e565b620002bf565b6200031d620000ec565b918291826200017d565b0390f35b620000f2565b6200033c9062000223565b9052565b919062000355905f6020850194019062000331565b565b3462000390576200036a366004620000fa565b6200038c620003786200081f565b62000382620000ec565b9182918262000340565b0390f35b620000f2565b601f801991011690565b634e487b7160e01b5f52604160045260245ffd5b90620003c09062000396565b810190811067ffffffffffffffff821117620003db57604052565b620003a0565b90620003f8620003f0620000ec565b9283620003b4565b565b5190565b905090565b5f5b83811062000416575050905f910152565b80602091830151818501520162000405565b6200045362000449926020926200043f81620003fa565b94858093620003fe565b9384910162000403565b0190565b620004629162000428565b90565b60200190565b620004a8620004b86142a96200048460208201620003e1565b90808252620010c060208301396200049b620000ec565b9283916020830162000457565b60208201810382520382620003b4565b620004ce620004c782620003fa565b9162000465565b2090565b620004dc6200046b565b90565b90565b620004ed90620004df565b9052565b919062000506905f60208501940190620004e2565b565b3462000541576200051b366004620000fa565b6200053d62000529620004d2565b62000533620000ec565b91829182620004f1565b0390f35b620000f2565b5f0190565b34620005835762000569620005633660046200024e565b62000963565b62000573620000ec565b806200057f8162000547565b0390f35b620000f2565b90565b6200059f906008620005a593026200010b565b62000589565b90565b90620005b591546200058c565b90565b620005c660025f90620005a8565b90565b346200060257620005dc366004620000fa565b620005fe620005ea620005b8565b620005f4620000ec565b9182918262000340565b0390f35b620000f2565b620006138162000160565b036200061b57565b5f80fd5b905035906200062e8262000608565b565b906020828203126200064c5762000649915f016200061f565b90565b620000f6565b3462000689576200066f6200066936600462000630565b620009e5565b62000679620000ec565b80620006858162000547565b0390f35b620000f2565b9190604083820312620006bc5780620006af620006b9925f86016200061f565b936020016200061f565b90565b620000f6565b34620006fc57620006f8620006e4620006dd3660046200068f565b9062000dd4565b620006ee620000ec565b918291826200017d565b0390f35b620000f2565b90565b6200071e62000718620007249262000155565b62000702565b62000155565b90565b620007329062000705565b90565b620007409062000727565b90565b906200074f9062000735565b5f5260205260405f2090565b90620007679062000735565b5f5260205260405f2090565b6200079162000797926200078b6003935f9462000743565b6200075b565b62000136565b90565b34620007d457620007d0620007bc620007b53660046200068f565b9062000773565b620007c6620000ec565b918291826200017d565b0390f35b620000f2565b346200081157620007f7620007f136600462000630565b62001084565b62000801620000ec565b806200080d8162000547565b0390f35b620000f2565b5f80fd5b5f90565b620008296200081b565b5062000836600462000284565b90565b5f1c90565b6200084d620008539162000839565b6200010f565b90565b6200086290546200083e565b90565b60209181520190565b5f7f416d6d3a20464f5242494444454e000000000000000000000000000000000000910152565b620008a4600e60209262000865565b620008af816200086e565b0190565b620008ca9060208101905f81830391015262000895565b90565b15620008d557565b620008df620000ec565b62461bcd60e51b815280620008f760048201620008b3565b0390fd5b5f1b90565b906200090e5f1991620008fb565b9181191691161790565b620009316200092b620009379262000223565b62000702565b62000223565b90565b90565b9062000957620009516200095f9262000918565b6200093a565b825462000900565b9055565b6200099d9062000995336200098e6200098762000981600162000856565b62000160565b9162000160565b14620008cd565b60026200093d565b565b90620009b260018060a01b0391620008fb565b9181191691161790565b90565b90620009d9620009d3620009e19262000735565b620009bc565b82546200099f565b9055565b62000a1f9062000a173362000a1062000a0962000a03600162000856565b62000160565b9162000160565b14620008cd565b6001620009bf565b565b5f90565b5f7f416d6d3a204944454e544943414c5f4144445245535345530000000000000000910152565b62000a5b601860209262000865565b62000a668162000a25565b0190565b62000a819060208101905f81830391015262000a4c565b90565b1562000a8c57565b62000a96620000ec565b62461bcd60e51b81528062000aae6004820162000a6a565b0390fd5b90565b62000ace62000ac862000ad49262000ab2565b62000702565b62000155565b90565b62000ae29062000ab5565b90565b5f7f416d6d3a205a45524f5f41444452455353000000000000000000000000000000910152565b62000b1b601160209262000865565b62000b268162000ae5565b0190565b62000b419060208101905f81830391015262000b0c565b90565b1562000b4c57565b62000b56620000ec565b62461bcd60e51b81528062000b6e6004820162000b2a565b0390fd5b5f7f416d6d3a20504149525f45584953545300000000000000000000000000000000910152565b62000ba8601060209262000865565b62000bb38162000b72565b0190565b62000bce9060208101905f81830391015262000b99565b90565b1562000bd957565b62000be3620000ec565b62461bcd60e51b81528062000bfb6004820162000bb7565b0390fd5b60601b90565b62000c109062000bff565b90565b62000c1e9062000c05565b90565b62000c3062000c369162000160565b62000c13565b9052565b60148162000c4f62000c589383969562000c21565b01809262000c21565b0190565b62000c679062000705565b90565b62000c759062000c5c565b90565b62000c839062000727565b90565b5f80fd5b60e01b90565b5f91031262000c9b57565b620000f6565b91602062000cc692949362000cbe60408201965f8301906200016e565b01906200016e565b565b62000cd2620000ec565b3d5f823e3d90fd5b90565b5f5260205f2090565b5490565b62000cf58162000ce6565b82101562000d125762000d0a60019162000cdd565b910201905f90565b62000270565b1b90565b9190600862000d4091029162000d3960018060a01b038462000d18565b9262000d18565b9181191691161790565b919062000d6562000d5f62000d6e9362000735565b620009bc565b90835462000d1c565b9055565b908154916801000000000000000083101562000da7578262000d9e91600162000da59501815562000cea565b9062000d4a565b565b620003a0565b91602062000dd292949362000dca60408201965f8301906200016e565b019062000331565b565b91909162000de162000a21565b5062000e058162000dfd62000df68662000160565b9162000160565b141562000a84565b8062000e1c62000e158562000160565b9162000160565b105f146200107d575b9162000e538362000e4b62000e4462000e3e5f62000ad7565b62000160565b9162000160565b141562000b44565b62000ea262000e7b62000e7562000e6d6003879062000743565b84906200075b565b62000856565b62000e9b62000e9462000e8e5f62000ad7565b62000160565b9162000160565b1462000bd1565b6142a962000eb360208201620003e1565b90808252620010c060208301398362000ef2839162000ee262000ed5620000ec565b9384926020840162000c3a565b60208201810382520382620003b4565b62000f0862000f0182620003fa565b9162000465565b20906020815191015ff59262000f2862000f228562000c6a565b62000c78565b63485cc955828492803b15620010775762000f5a5f809462000f6662000f4d620000ec565b9788968795869462000c8a565b84526004840162000ca1565b03925af1801562001071576200103e575b5062000f9d8462000f9762000f8f6003859062000743565b85906200075b565b620009bf565b62000fc28462000fbc62000fb46003869062000743565b84906200075b565b620009bf565b62000fda62000fd2600462000cda565b859062000d72565b90839162000fe9600462000284565b62001020620010197f0d3648bd0f6ba80134a33ba9275ac585d9d315f0ad8355cddefde31afa28d0e99362000735565b9362000735565b93620010396200102f620000ec565b9283928362000dad565b0390a3565b62001062905f3d811162001069575b620010598183620003b4565b81019062000c90565b5f62000f77565b503d6200104d565b62000cc8565b62000c86565b9162000e25565b620010bd90620010b633620010af620010a8620010a2600162000856565b62000160565b9162000160565b14620008cd565b5f620009bf565b56fe6080604052346200002d57620000146200013d565b6200001e62000033565b613e2c6200047d8239613e2c90f35b62000039565b60405190565b5f80fd5b5f1b90565b90620000505f19916200003d565b9181191691161790565b90565b90565b90565b6200007c6200007662000082926200005a565b62000060565b6200005d565b90565b90565b90620000a26200009c620000aa9262000063565b62000085565b825462000042565b9055565b90620000c160018060a01b03916200003d565b9181191691161790565b60018060a01b031690565b620000ef620000e9620000f592620000cb565b62000060565b620000cb565b90565b6200010390620000d6565b90565b6200011190620000f8565b90565b90565b90620001316200012b620001399262000106565b62000114565b8254620000ae565b9055565b62000147620003ac565b620001556001600c62000088565b6200016233600562000117565b565b601f801991011690565b634e487b7160e01b5f52604160045260245ffd5b906200018e9062000164565b810190811060018060401b03821117620001a757604052565b6200016e565b90620001c4620001bc62000033565b928362000182565b565b60018060401b038111620001e557620001e160209162000164565b0190565b6200016e565b9062000201620001fb83620001c6565b620001ad565b918252565b5f7f546964616c4465782e636f6d204c507300000000000000000000000000000000910152565b620002396010620001eb565b90620002486020830162000206565b565b620002546200022d565b90565b620002616200024a565b90565b90565b60200190565b5190565b5f7f3100000000000000000000000000000000000000000000000000000000000000910152565b620002a46001620001eb565b90620002b36020830162000271565b565b620002bf62000298565b90565b620002cd90620000f8565b90565b90565b620002de90620002d0565b9052565b620002ed906200005d565b9052565b620002fc90620000cb565b90565b6200030a90620002f1565b9052565b909594926200036394620003506200035b92620003456080966200033a60a088019c5f890190620002d3565b6020870190620002d3565b6040850190620002d3565b6060830190620002e2565b0190620002ff565b565b6200037090620002d0565b90565b5f1c90565b620003839062000373565b90565b90620003a06200039a620003a89262000365565b62000378565b825462000042565b9055565b6200047a466200045b7f8b73c3c69bb8fe3d512ecc4cf759cc79239f7b179b0ffacaa9a75d522b39400f6200044b620003ee620003e862000257565b62000264565b62000404620003fd826200026d565b9162000267565b209362000410620002b5565b620004266200041f826200026d565b9162000267565b20906200043330620002c2565b916200043e62000033565b968795602087016200030e565b6020820181038252038262000182565b620004716200046a826200026d565b9162000267565b20600362000386565b56fe60806040526004361015610013575b610f9d565b61001d5f356101cc565b8063022c0d9f146101c757806306fdde03146101c25780630902f1ac146101bd578063095ea7b3146101b85780630dfe1681146101b357806318160ddd146101ae57806323b872dd146101a957806330adf81f146101a4578063313ce5671461019f5780633644e5151461019a578063485cc955146101955780635909c0d5146101905780635a3d54931461018b5780636a6278421461018657806370a08231146101815780637464fc3d1461017c5780637ecebe001461017757806389afcb441461017257806395d89b411461016d578063a9059cbb14610168578063ba9a7a5614610163578063bc25cf771461015e578063c45a015514610159578063d21220a714610154578063d505accf1461014f578063dd62ed3e1461014a5763fff6cae90361000e57610f6a565b610f34565b610ec3565b610dd8565b610d94565b610d52565b610d1d565b610caf565b610c7a565b610be3565b610b8b565b610b3d565b610af9565b610a61565b610a0e565b6109ca565b610987565b610925565b6108b8565b610821565b61076b565b6106fc565b61066f565b6105d3565b610547565b6104aa565b6102f4565b60e01c90565b60405190565b5f80fd5b5f80fd5b5f80fd5b90565b6101f0816101e4565b036101f757565b5f80fd5b90503590610208826101e7565b565b60018060a01b031690565b61021e9061020a565b90565b61022a81610215565b0361023157565b5f80fd5b9050359061024282610221565b565b5f80fd5b5f80fd5b5f80fd5b909182601f8301121561028a5781359167ffffffffffffffff831161028557602001926001830284011161028057565b61024c565b610248565b610244565b906080828203126102ea576102a6815f84016101fb565b926102b482602085016101fb565b926102c28360408301610235565b92606082013567ffffffffffffffff81116102e5576102e19201610250565b9091565b6101e0565b6101dc565b5f0190565b346103265761031061030736600461028f565b93929092611c1d565b6103186101d2565b80610322816102ef565b0390f35b6101d8565b5f91031261033557565b6101dc565b601f801991011690565b634e487b7160e01b5f52604160045260245ffd5b906103629061033a565b810190811067ffffffffffffffff82111761037c57604052565b610344565b9061039461038d6101d2565b9283610358565b565b67ffffffffffffffff81116103b4576103b060209161033a565b0190565b610344565b906103cb6103c683610396565b610381565b918252565b5f7f546964616c4465782e636f6d204c507300000000000000000000000000000000910152565b61040160106103b9565b9061040e602083016103d0565b565b6104186103f7565b90565b610423610410565b90565b61042e61041b565b90565b5190565b60209181520190565b5f5b838110610450575050905f910152565b806020918301518185015201610440565b61048061048960209361048e9361047781610431565b93848093610435565b9586910161043e565b61033a565b0190565b6104a79160208201915f818403910152610461565b90565b346104da576104ba36600461032b565b6104d66104c5610426565b6104cd6101d2565b91829182610492565b0390f35b6101d8565b6dffffffffffffffffffffffffffff1690565b6104fb906104df565b9052565b63ffffffff1690565b610511906104ff565b9052565b60409061053e610545949695939661053460608401985f8501906104f2565b60208301906104f2565b0190610508565b565b3461057a5761055736600461032b565b610576610562611cb9565b61056d9391936101d2565b93849384610515565b0390f35b6101d8565b91906040838203126105a7578061059b6105a4925f8601610235565b936020016101fb565b90565b6101dc565b151590565b6105ba906105ac565b9052565b91906105d1905f602085019401906105b1565b565b34610604576106006105ef6105e936600461057f565b90611cfb565b6105f76101d2565b918291826105be565b0390f35b6101d8565b1c90565b60018060a01b031690565b61062890600861062d9302610609565b61060d565b90565b9061063b9154610618565b90565b61064a60065f90610630565b90565b61065690610215565b9052565b919061066d905f6020850194019061064d565b565b3461069f5761067f36600461032b565b61069b61068a61063e565b6106926101d2565b9182918261065a565b0390f35b6101d8565b90565b6106b79060086106bc9302610609565b6106a4565b90565b906106ca91546106a7565b90565b6106d75f806106bf565b90565b6106e3906101e4565b9052565b91906106fa905f602085019401906106da565b565b3461072c5761070c36600461032b565b6107286107176106cd565b61071f6101d2565b918291826106e7565b0390f35b6101d8565b90916060828403126107665761076361074c845f8501610235565b9361075a8160208601610235565b936040016101fb565b90565b6101dc565b3461079c57610798610787610781366004610731565b91611d16565b61078f6101d2565b918291826105be565b0390f35b6101d8565b90565b90565b5f1b90565b6107c06107bb6107c5926107a1565b6107a7565b6107a4565b90565b6107f17f6e71edae12b1b97f4d1f60370fef10105fa2faae0126114a169c64845d6126c96107ac565b90565b6107fc6107c8565b90565b610808906107a4565b9052565b919061081f905f602085019401906107ff565b565b346108515761083136600461032b565b61084d61083c6107f4565b6108446101d2565b9182918261080c565b0390f35b6101d8565b90565b60ff1690565b90565b61087661087161087b92610856565b61085f565b610859565b90565b6108886012610862565b90565b61089361087e565b90565b61089f90610859565b9052565b91906108b6905f60208501940190610896565b565b346108e8576108c836600461032b565b6108e46108d361088b565b6108db6101d2565b918291826108a3565b0390f35b6101d8565b90565b6109009060086109059302610609565b6108ed565b90565b9061091391546108f0565b90565b61092260035f90610908565b90565b346109555761093536600461032b565b610951610940610916565b6109486101d2565b9182918261080c565b0390f35b6101d8565b9190604083820312610982578061097661097f925f8601610235565b93602001610235565b90565b6101dc565b346109b6576109a061099a36600461095a565b90611e73565b6109a86101d2565b806109b2816102ef565b0390f35b6101d8565b6109c760095f906106bf565b90565b346109fa576109da36600461032b565b6109f66109e56109bb565b6109ed6101d2565b918291826106e7565b0390f35b6101d8565b610a0b600a5f906106bf565b90565b34610a3e57610a1e36600461032b565b610a3a610a296109ff565b610a316101d2565b918291826106e7565b0390f35b6101d8565b90602082820312610a5c57610a59915f01610235565b90565b6101dc565b34610a9157610a8d610a7c610a77366004610a43565b6122e9565b610a846101d2565b918291826106e7565b0390f35b6101d8565b610aaa610aa5610aaf9261020a565b61085f565b61020a565b90565b610abb90610a96565b90565b610ac790610ab2565b90565b90610ad490610abe565b5f5260205260405f2090565b610af690610af16001915f92610aca565b6106bf565b90565b34610b2957610b25610b14610b0f366004610a43565b610ae0565b610b1c6101d2565b918291826106e7565b0390f35b6101d8565b610b3a600b5f906106bf565b90565b34610b6d57610b4d36600461032b565b610b69610b58610b2e565b610b606101d2565b918291826106e7565b0390f35b6101d8565b610b8890610b836004915f92610aca565b6106bf565b90565b34610bbb57610bb7610ba6610ba1366004610a43565b610b72565b610bae6101d2565b918291826106e7565b0390f35b6101d8565b916020610be1929493610bda60408201965f8301906106da565b01906106da565b565b34610c1457610bfb610bf6366004610a43565b6127d2565b90610c10610c076101d2565b92839283610bc0565b0390f35b6101d8565b5f7f546964616c2d4c50000000000000000000000000000000000000000000000000910152565b610c4a60086103b9565b90610c5760208301610c19565b565b610c61610c40565b90565b610c6c610c59565b90565b610c77610c64565b90565b34610caa57610c8a36600461032b565b610ca6610c95610c6f565b610c9d6101d2565b91829182610492565b0390f35b6101d8565b34610ce057610cdc610ccb610cc536600461057f565b906127f0565b610cd36101d2565b918291826105be565b0390f35b6101d8565b90565b610cfc610cf7610d0192610ce5565b61085f565b6101e4565b90565b610d0f6103e8610ce8565b90565b610d1a610d04565b90565b34610d4d57610d2d36600461032b565b610d49610d38610d12565b610d406101d2565b918291826106e7565b0390f35b6101d8565b34610d8057610d6a610d65366004610a43565b6129e7565b610d726101d2565b80610d7c816102ef565b0390f35b6101d8565b610d9160055f90610630565b90565b34610dc457610da436600461032b565b610dc0610daf610d85565b610db76101d2565b9182918261065a565b0390f35b6101d8565b610dd560075f90610630565b90565b34610e0857610de836600461032b565b610e04610df3610dc9565b610dfb6101d2565b9182918261065a565b0390f35b6101d8565b610e1681610859565b03610e1d57565b5f80fd5b90503590610e2e82610e0d565b565b610e39816107a4565b03610e4057565b5f80fd5b90503590610e5182610e30565b565b60e081830312610ebe57610e69825f8301610235565b92610e778360208401610235565b92610e8581604085016101fb565b92610e9382606083016101fb565b92610ebb610ea48460808501610e21565b93610eb28160a08601610e44565b9360c001610e44565b90565b6101dc565b34610ef857610ee2610ed6366004610e53565b95949094939193612c3f565b610eea6101d2565b80610ef4816102ef565b0390f35b6101d8565b90610f0790610abe565b5f5260205260405f2090565b610f2c610f3192610f276002935f94610efd565b610aca565b6106bf565b90565b34610f6557610f61610f50610f4a36600461095a565b90610f13565b610f586101d2565b918291826106e7565b0390f35b6101d8565b34610f9857610f7a36600461032b565b610f82612f4f565b610f8a6101d2565b80610f94816102ef565b0390f35b6101d8565b5f80fd5b5f1c90565b610fb2610fb791610fa1565b6106a4565b90565b610fc49054610fa6565b90565b90565b610fde610fd9610fe392610fc7565b61085f565b6101e4565b90565b5f7f416d6d506169723a204c4f434b45440000000000000000000000000000000000910152565b61101a600f602092610435565b61102381610fe6565b0190565b61103c9060208101905f81830391015261100d565b90565b1561104657565b61104e6101d2565b62461bcd60e51b81528061106460048201611027565b0390fd5b90565b61107f61107a61108492611068565b61085f565b6101e4565b90565b906110935f19916107a7565b9181191691161790565b6110b16110ac6110b6926101e4565b61085f565b6101e4565b90565b90565b906110d16110cc6110d89261109d565b6110b9565b8254611087565b9055565b906111229493929161110a6110f1600c610fba565b6111046110fe6001610fca565b916101e4565b1461103f565b61111d6111165f61106b565b600c6110bc565b611651565b61113661112f6001610fca565b600c6110bc565b565b60207f554e540000000000000000000000000000000000000000000000000000000000917f416d6d506169723a20494e53554646494349454e545f4f55545055545f414d4f5f8201520152565b6111926023604092610435565b61119b81611138565b0190565b6111b49060208101905f818303910152611185565b90565b156111be57565b6111c66101d2565b62461bcd60e51b8152806111dc6004820161119f565b0390fd5b6111f46111ef6111f9926104df565b61085f565b6101e4565b90565b5f7f416d6d506169723a20494e53554646494349454e545f4c495155494449545900910152565b611230601f602092610435565b611239816111fc565b0190565b6112529060208101905f818303910152611223565b90565b1561125c57565b6112646101d2565b62461bcd60e51b81528061127a6004820161123d565b0390fd5b5f90565b61128e61129391610fa1565b61060d565b90565b6112a09054611282565b90565b5f7f416d6d506169723a20494e56414c49445f544f00000000000000000000000000910152565b6112d76013602092610435565b6112e0816112a3565b0190565b6112f99060208101905f8183039101526112ca565b90565b1561130357565b61130b6101d2565b62461bcd60e51b815280611321600482016112e4565b0390fd5b5090565b61133290610a96565b90565b61133e90611329565b90565b61134a90610ab2565b90565b5f80fd5b60e01b90565b5f91031261136157565b6101dc565b60209181520190565b90825f939282370152565b91906113948161138d8161139995611366565b809561136f565b61033a565b0190565b9093916113de95936113c76113d1926113bd60808601985f87019061064d565b60208501906106da565b60408301906106da565b606081850391015261137a565b90565b6113e96101d2565b3d5f823e3d90fd5b6113fa90610a96565b90565b611406906113f1565b90565b61141290610ab2565b90565b61141e90610ab2565b90565b9050519061142e826101e7565b565b9060208282031261144957611446915f01611421565b90565b6101dc565b634e487b7160e01b5f52601160045260245ffd5b611471611477919392936101e4565b926101e4565b820391821161148257565b61144e565b60207f4e54000000000000000000000000000000000000000000000000000000000000917f416d6d506169723a20494e53554646494349454e545f494e5055545f414d4f555f8201520152565b6114e16022604092610435565b6114ea81611487565b0190565b6115039060208101905f8183039101526114d4565b90565b1561150d57565b6115156101d2565b62461bcd60e51b81528061152b600482016114ee565b0390fd5b61153890610a96565b90565b6115449061152f565b90565b61155090610ab2565b90565b90565b61156a61156561156f92611553565b61085f565b6101e4565b90565b90565b61158961158461158e92611572565b61085f565b6101e4565b90565b5f7f416d6d506169723a204b00000000000000000000000000000000000000000000910152565b6115c5600a602092610435565b6115ce81611591565b0190565b6115e79060208101905f8183039101526115b8565b90565b156115f157565b6115f96101d2565b62461bcd60e51b81528061160f600482016115d2565b0390fd5b61164861164f9461163e606094989795611634608086019a5f8701906106da565b60208501906106da565b60408301906106da565b01906106da565b565b90939192816116686116625f61106b565b916101e4565b118015611bfe575b611679906111b7565b611681611cb9565b5093909383611698611692876111e0565b916101e4565b1080611bdf575b6116a890611255565b6116b061127e565b506116b961127e565b506116c46006611296565b6116ce6007611296565b93876116e26116dc84610215565b91610215565b141580611bbf575b6116f3906112fc565b856117066117005f61106b565b916101e4565b11611bae575b8861171f6117195f61106b565b916101e4565b11611b9d575b611730818590611325565b61174261173c5f61106b565b916101e4565b11611aef575b50611793925061176161175c6020926113fd565b611409565b6370a082319061178861177330611415565b9261177c6101d2565b96879485938493611351565b83526004830161065a565b03915afa918215611aea576117be6117b96117f0946020935f91611abd575b50956113fd565b611409565b6370a08231906117e56117d030611415565b926117d96101d2565b96879485938493611351565b83526004830161065a565b03915afa8015611ab8576118f2925f91611a8a575b50908361182c6118266118218961181c8a916111e0565b611462565b6101e4565b916101e4565b115f14611a7c576118508461184a8861184589916111e0565b611462565b90611462565b5b958261187661187061186b8c611866876111e0565b611462565b6101e4565b916101e4565b115f14611a6e5761189a836118948461188f8d916111e0565b611462565b90611462565b5b94876118af6118a95f61106b565b916101e4565b118015611a4f575b6118c090611506565b60206118dc6118d76118d26005611296565b61153b565b611547565b63a15d0e3d906118ea6101d2565b978892611351565b82528180611902600482016102ef565b03915afa8015611a4a576119786119c1916119ca975f91611a1c575b5061197261194c8c61194661193e88611938612710611556565b90613214565b918590613214565b9061322a565b9161196c6119658a61195f612710611556565b90613214565b918c613214565b9061322a565b90613214565b6119ba6119b46119af61199c61198d886111e0565b6119968a6111e0565b90613214565b6119a96305f5e100611575565b90613214565b6101e4565b916101e4565b10156115ea565b9290919261350c565b611a173393919295611a056119ff7fd78ad95fa46c994b6551d0da85fc275fe613ce37657fb8d5e3d130840159d82296610abe565b96610abe565b96611a0e6101d2565b94859485611613565b0390a3565b611a3d915060203d8111611a43575b611a358183610358565b810190611430565b5f61191e565b503d611a2b565b6113e1565b506118c086611a66611a605f61106b565b916101e4565b1190506118b7565b611a775f61106b565b61189b565b611a855f61106b565b611851565b611aab915060203d8111611ab1575b611aa38183610358565b810190611430565b5f611805565b503d611a99565b6113e1565b611add9150843d8111611ae3575b611ad58183610358565b810190611430565b5f6117b2565b503d611acb565b6113e1565b611b00611afb89611335565b611341565b635fea11f790339188968c949091833b15611b9857611b40611b35935f97938894611b296101d2565b9c8d998a988997611351565b87526004870161139d565b03925af1928315611b935761175c6020926117619261179396611b67575b50925050611748565b611b86905f3d8111611b8c575b611b7e8183610358565b810190611357565b5f611b5e565b503d611b74565b6113e1565b61134d565b611ba985898b91613130565b611725565b611bba82898891613130565b61170c565b506116f388611bd6611bd088610215565b91610215565b141590506116ea565b506116a887611bf6611bf0846111e0565b916101e4565b10905061169f565b5061167985611c15611c0f5f61106b565b916101e4565b119050611670565b90611c2a949392916110dc565b565b5f90565b5f90565b6dffffffffffffffffffffffffffff1690565b611c53611c5891610fa1565b611c34565b90565b611c659054611c47565b90565b60701c90565b611c7a611c7f91611c68565b611c34565b90565b611c8c9054611c6e565b90565b63ffffffff1690565b611ca4611ca9916101cc565b611c8f565b90565b611cb69054611c98565b90565b611cc1611c2c565b50611cca611c2c565b50611cd3611c30565b50611cde6008611c5b565b90611ce96008611c82565b90611cf46008611cac565b90565b5f90565b611d1191611d07611cf7565b5033919091613723565b600190565b91611d6392611d23611cf7565b50611d42611d3d611d3660028490610efd565b3390610aca565b610fba565b611d55611d4f5f196101e4565b916101e4565b03611d68575b919091613795565b600190565b611dae611d93611d8c611d87611d8060028690610efd565b3390610aca565b610fba565b849061322a565b611da9611da260028590610efd565b3390610aca565b6110bc565b611d5b565b5f7f416d6d506169723a20464f5242494444454e0000000000000000000000000000910152565b611de76012602092610435565b611df081611db3565b0190565b611e099060208101905f818303910152611dda565b90565b15611e1357565b611e1b6101d2565b62461bcd60e51b815280611e3160048201611df4565b0390fd5b90611e4660018060a01b03916107a7565b9181191691161790565b90565b90611e68611e63611e6f92610abe565b611e50565b8254611e35565b9055565b90611ea7611eae92611ea033611e9a611e94611e8f6005611296565b610215565b91610215565b14611e0c565b6006611e53565b6007611e53565b565b90611ef391611edb611ec2600c610fba565b611ed5611ecf6001610fca565b916101e4565b1461103f565b611eee611ee75f61106b565b600c6110bc565b612010565b90611f08611f016001610fca565b600c6110bc565b565b634e487b7160e01b5f52601260045260245ffd5b611f2a611f30916101e4565b916101e4565b908115611f3b570490565b611f0a565b611f54611f4f611f5992611068565b61085f565b61020a565b90565b611f6590611f40565b90565b60207f4d494e5445440000000000000000000000000000000000000000000000000000917f416d6d506169723a20494e53554646494349454e545f4c49515549444954595f5f8201520152565b611fc26026604092610435565b611fcb81611f68565b0190565b611fe49060208101905f818303910152611fb5565b90565b15611fee57565b611ff66101d2565b62461bcd60e51b81528061200c60048201611fcf565b0390fd5b9190915061201c611cb9565b5061206e602061203c6120376120326006611296565b6113fd565b611409565b6370a082319061206361204e30611415565b926120576101d2565b95869485938493611351565b83526004830161065a565b03915afa9081156122e4575f916122b6575b506120d260206120a061209b6120966007611296565b6113fd565b611409565b6370a08231906120c76120b230611415565b926120bb6101d2565b95869485938493611351565b83526004830161065a565b03915afa80156122b1576121af915f91612283575b506120fb836120f5876111e0565b9061322a565b9361210f82612109836111e0565b9061322a565b9561211b81839061389e565b946121255f610fba565b806121386121325f61106b565b916101e4565b145f1461223757506121a66121676121596121548a8c90613214565b613ad8565b612161610d04565b9061322a565b9a6121826121745f611f5c565b61217c610d04565b90613ba5565b5b61219f8c6121996121935f61106b565b916101e4565b11611fe7565b8b90613ba5565b9290919261350c565b6121fb575b3390916121e17f4c209b5fc8ad50758f13e2e1088ba56a560dff690a1c6fef26394f4c03821c4f92610abe565b926121f66121ed6101d2565b92839283610bc0565b0390a2565b61223261222b61221361220e6008611c5b565b6111e0565b6122256122206008611c82565b6111e0565b90613214565b600b6110bc565b6121b4565b61227d6121a6916122776122686122616122528d8590613214565b61225b896111e0565b90611f1e565b928d613214565b612271886111e0565b90611f1e565b90613a6a565b9a612183565b6122a4915060203d81116122aa575b61229c8183610358565b810190611430565b5f6120e7565b503d612292565b6113e1565b6122d7915060203d81116122dd575b6122cf8183610358565b810190611430565b5f612080565b503d6122c5565b6113e1565b6122fa906122f561127e565b611eb0565b90565b906123419291612329612310600c610fba565b61232361231d6001610fca565b916101e4565b1461103f565b61233c6123355f61106b565b600c6110bc565b612401565b90916123576123506001610fca565b600c6110bc565b565b60207f4255524e45440000000000000000000000000000000000000000000000000000917f416d6d506169723a20494e53554646494349454e545f4c49515549444954595f5f8201520152565b6123b36026604092610435565b6123bc81612359565b0190565b6123d59060208101905f8183039101526123a6565b90565b156123df57565b6123e76101d2565b62461bcd60e51b8152806123fd600482016123c0565b0390fd5b929192505061240e611cb9565b509190919261241d6006611296565b6124276007611296565b90612470602061243e612439846113fd565b611409565b6370a082319061246561245030611415565b926124596101d2565b95869485938493611351565b83526004830161065a565b03915afa9081156127cd575f9161279f575b50916124cc602061249a612495846113fd565b611409565b6370a08231906124c16124ac30611415565b926124b56101d2565b95869485938493611351565b83526004830161065a565b03915afa90811561279a575f9161276c575b50966001306124ec90611415565b6124f591610aca565b6124fe90610fba565b96808261250a9161389e565b946125145f610fba565b90899061252091613214565b8161252a91611f1e565b99899061253691613214565b9061254091611f1e565b97888a5f61254d9061106b565b90612557906101e4565b116125de96612587602094612579846125ac966125a796612751575b506123d8565b61258230611415565b613c4d565b6125958d82908c9091613130565b6125a2878d8c9091613130565b6113fd565b611409565b6370a08231906125d36125be30611415565b926125c76101d2565b98899485938493611351565b83526004830161065a565b03915afa93841561274c5761260961260461263b966020935f9161271f575b50956113fd565b611409565b6370a082319061263061261b30611415565b926126246101d2565b98899485938493611351565b83526004830161065a565b03915afa801561271a57612659945f916126ec575b5090919261350c565b6126b0575b33908491846126966126907fdccd412f0b1252819cb1fd330b93224ca42612892bb3f4f789976e6d8193649693610abe565b93610abe565b936126ab6126a26101d2565b92839283610bc0565b0390a3565b6126e76126e06126c86126c36008611c5b565b6111e0565b6126da6126d56008611c82565b6111e0565b90613214565b600b6110bc565b61265e565b61270d915060203d8111612713575b6127058183610358565b810190611430565b5f612650565b503d6126fb565b6113e1565b61273f9150843d8111612745575b6127378183610358565b810190611430565b5f6125fd565b503d61272d565b6113e1565b905061276561275f5f61106b565b916101e4565b118f612573565b61278d915060203d8111612793575b6127858183610358565b810190611430565b5f6124de565b503d61277b565b6113e1565b6127c0915060203d81116127c6575b6127b88183610358565b810190611430565b5f612482565b503d6127ae565b6113e1565b6127ec906127de61127e565b6127e661127e565b906122fd565b9091565b612806916127fc611cf7565b5033919091613795565b600190565b61284d9061283561281c600c610fba565b61282f6128296001610fca565b916101e4565b1461103f565b6128486128415f61106b565b600c6110bc565b612863565b61286161285a6001610fca565b600c6110bc565b565b6128c3906128716006611296565b61287b6007611296565b9080602061289161288c86946113fd565b611409565b6370a08231906128b86128a330611415565b926128ac6101d2565b998a9485938493611351565b83526004830161065a565b03915afa9182156129e2576128f96128ff93612946975f916129b4575b506128f36128ee6008611c5b565b6111e0565b9061322a565b91613130565b602061291461290f8394936113fd565b611409565b6370a082319061293b61292630611415565b9261292f6101d2565b97889485938493611351565b83526004830161065a565b03915afa9283156129af5761297f93612979915f91612981575b5061297361296e6008611c82565b6111e0565b9061322a565b91613130565b565b6129a2915060203d81116129a8575b61299a8183610358565b810190611430565b5f612960565b503d612990565b6113e1565b6129d5915060203d81116129db575b6129cd8183610358565b810190611430565b5f6128e0565b503d6129c3565b6113e1565b6129f09061280b565b565b5f7f416d6d45524332303a2045585049524544000000000000000000000000000000910152565b612a266011602092610435565b612a2f816129f2565b0190565b612a489060208101905f818303910152612a19565b90565b15612a5257565b612a5a6101d2565b62461bcd60e51b815280612a7060048201612a33565b0390fd5b612a80612a8591610fa1565b6108ed565b90565b612a929054612a74565b90565b612a9e906101e4565b5f198114612aac5760010190565b61144e565b9194612af9612b0392989795612aef60a096612ae5612b0a9a612adb60c08a019e5f8b01906107ff565b602089019061064d565b604087019061064d565b60608501906106da565b60808301906106da565b01906106da565b565b60200190565b5190565b905090565b5f61190160f01b910152565b612b3360028092612b16565b612b3c81612b1b565b0190565b90565b612b4f612b54916107a4565b612b40565b9052565b6020809392612b73612b6c612b7b94612b27565b8092612b43565b018092612b43565b0190565b612bb4612bbb94612baa606094989795612ba0608086019a5f8701906107ff565b6020850190610896565b60408301906107ff565b01906107ff565b565b5f7f416d6d45524332303a20494e56414c49445f5349474e41545552450000000000910152565b612bf1601b602092610435565b612bfa81612bbd565b0190565b612c139060208101905f818303910152612be4565b90565b15612c1d57565b612c256101d2565b62461bcd60e51b815280612c3b60048201612bfe565b0390fd5b9593612d375f9395602095979397612c6a81612c63612c5d426101e4565b916101e4565b1015612a4b565b612d1189612cd98c612ccb8c612c806003612a88565b96612c896107c8565b93612c98819793916004610aca565b612cb4612ca482610fba565b91612cae83612a95565b906110bc565b9192612cbe6101d2565b9760209689978801612ab1565b8b8201810382520382610358565b612ceb612ce582612b12565b91612b0c565b2091612d03612cf86101d2565b9384928b8401612b58565b898201810382520382610358565b612d23612d1d82612b12565b91612b0c565b209293612d2e6101d2565b94859485612b7f565b838052039060015afa15612da557612d8892612d80612d565f516107a7565b80612d71612d6b612d665f611f5c565b610215565b91610215565b14159081612d8a575b50612c16565b919091613723565b565b9050612d9e612d9884610215565b91610215565b145f612d7a565b6113e1565b612dd0612db7600c610fba565b612dca612dc46001610fca565b916101e4565b1461103f565b612de3612ddc5f61106b565b600c6110bc565b612deb612e01565b612dff612df86001610fca565b600c6110bc565b565b612e526020612e20612e1b612e166006611296565b6113fd565b611409565b6370a0823190612e47612e3230611415565b92612e3b6101d2565b95869485938493611351565b83526004830161065a565b03915afa8015612f4a57612eb6915f91612f1c575b506020612e84612e7f612e7a6007611296565b6113fd565b611409565b6370a0823190612eab612e9630611415565b92612e9f6101d2565b96879485938493611351565b83526004830161065a565b03915afa8015612f1757612ee7925f91612ee9575b50612ed66008611c5b565b90612ee16008611c82565b9261350c565b565b612f0a915060203d8111612f10575b612f028183610358565b810190611430565b5f612ecb565b503d612ef8565b6113e1565b612f3d915060203d8111612f43575b612f358183610358565b810190611430565b5f612e67565b503d612f2b565b6113e1565b612f57612daa565b565b5f7f7472616e7366657228616464726573732c75696e743235362900000000000000910152565b612f8a60196103b9565b90612f9760208301612f59565b565b612fa1612f80565b90565b63ffffffff60e01b1690565b612fb990612fa4565b90565b612fdf612fc7612f99565b612fd9612fd382612b12565b91612b0c565b20612fb0565b90565b916020613003929493612ffc60408201965f83019061064d565b01906106da565b565b67ffffffffffffffff81116130235761301f60209161033a565b0190565b610344565b9061303a61303583613005565b610381565b918252565b606090565b3d5f1461305f576130543d613028565b903d5f602084013e5b565b61306761303f565b9061305d565b613076816105ac565b0361307d57565b5f80fd5b9050519061308e8261306d565b565b906020828203126130a9576130a6915f01613081565b90565b6101dc565b5f7f416d6d506169723a205452414e534645525f4641494c45440000000000000000910152565b6130e26018602092610435565b6130eb816130ae565b0190565b6131049060208101905f8183039101526130d5565b90565b1561310e57565b6131166101d2565b62461bcd60e51b81528061312c600482016130ef565b0390fd5b61318f9260046131715f94613162869594613149612fbc565b926131526101d2565b9586946020860190815201612fe2565b60208201810382520382610358565b82602082019151925af1613183613044565b81613191575b50613107565b565b905061319c81612b12565b6131ae6131a85f61106b565b916101e4565b149081156131be575b505f613189565b6131d9915060206131ce82612b12565b818301019101613090565b5f6131b7565b6131ee6131f4919392936101e4565b926101e4565b916132008382026101e4565b92818404149015171561320f57565b61144e565b906132279161322161127e565b506131df565b90565b9061323d9161323761127e565b50611462565b90565b5f7f416d6d506169723a204f564552464c4f57000000000000000000000000000000910152565b6132746011602092610435565b61327d81613240565b0190565b6132969060208101905f818303910152613267565b90565b156132a057565b6132a86101d2565b62461bcd60e51b8152806132be60048201613281565b0390fd5b90565b6132d96132d46132de926132c2565b61085f565b6101e4565b90565b6132ed6132f3916101e4565b916101e4565b9081156132fe570690565b611f0a565b61331761331261331c926101e4565b61085f565b6104ff565b90565b9061332a91036104ff565b90565b61334161333c61334692611068565b61085f565b6104ff565b90565b61335d61335861336292611068565b61085f565b6104df565b90565b60018060e01b031690565b61338461337f61338992613365565b61085f565b6101e4565b90565b6133a061339b6133a5926104ff565b61085f565b6101e4565b90565b906133b391026101e4565b90565b906133c191016101e4565b90565b6133d86133d36133dd926101e4565b61085f565b6104df565b90565b906133f96dffffffffffffffffffffffffffff916107a7565b9181191691161790565b61341761341261341c926104df565b61085f565b6104df565b90565b90565b9061343761343261343e92613403565b61341f565b82546133e0565b9055565b60701b90565b906134646dffffffffffffffffffffffffffff60701b91613442565b9181191691161790565b9061348361347e61348a92613403565b61341f565b8254613448565b9055565b906134a063ffffffff60e01b91611351565b9181191691161790565b6134be6134b96134c3926104ff565b61085f565b6104ff565b90565b90565b906134de6134d96134e5926134aa565b6134c6565b825461348e565b9055565b91602061350a92949361350360408201965f8301906104f2565b01906104f2565b565b6135cf916135c36135bc6135c8936135d6978161353f6135396dffffffffffffffffffffffffffff6111e0565b916101e4565b1115806136f5575b61355090613299565b61357061356b426135656401000000006132c5565b906132e1565b613303565b97613579611c30565b5061358e896135886008611cac565b9061331f565b91826135a261359c5f61332d565b916104ff565b11806136da575b806136bf575b613625575b5050506133c4565b6008613422565b6133c4565b600861346e565b60086134c9565b6135e06008611c5b565b6135ea6008611c82565b7f1c411e9a96e071241c2f21f7726b17ae89e3cab4c78be50e062b03a9fffbbad1916136206136176101d2565b928392836134e9565b0390a1565b6136b79261369b6136956136908461368b6136b09761368661367f61367061366161365c6136556136a19d613d78565b8690613dc0565b613370565b61366a8b61338c565b906133a8565b61367a6009610fba565b6133b6565b60096110bc565b613d78565b613dc0565b613370565b9161338c565b906133a8565b6136ab600a610fba565b6133b6565b600a6110bc565b5f80806135b4565b50806136d36136cd5f613349565b916104df565b14156135af565b50816136ee6136e85f613349565b916104df565b14156135a9565b506135508561371a6137146dffffffffffffffffffffffffffff6111e0565b916101e4565b11159050613547565b9190916137458261374061373960028590610efd565b8690610aca565b6110bc565b91909161379061377e6137787f8c5be1e5ebec7d5bd14f71427d1e84f3dd0314c0f7b2291e5b200ac8c7c3b92593610abe565b93610abe565b936137876101d2565b918291826106e7565b0390a3565b9190916137ca6137b96137b26137ad60018590610aca565b610fba565b849061322a565b6137c560018490610aca565b6110bc565b6137fc6137eb6137e46137df60018790610aca565b610fba565b8490613de0565b6137f760018690610aca565b6110bc565b91909161384761383561382f7fddf252ad1be2c89b69c2b068fc378daa952ba7f163c4a11628f55a4df523b3ef93610abe565b93610abe565b9361383e6101d2565b918291826106e7565b0390a3565b9050519061385982610221565b565b9060208282031261387457613871915f0161384c565b90565b6101dc565b61388861388e919392936101e4565b926101e4565b820180921161389957565b61144e565b91906138a8611cf7565b506138de60206138c86138c36138be6005611296565b61153b565b611547565b63017e7e58906138d66101d2565b938492611351565b825281806138ee600482016102ef565b03915afa908115613a65575f91613a37575b50908161391d6139176139125f611f5c565b610215565b91610215565b14159361392a600b610fba565b91855f146139fe578261394561393f5f61106b565b916101e4565b03613952575b505050505b565b6139746139799161396e61396861397f956111e0565b916111e0565b90613214565b613ad8565b91613ad8565b908061399361398d846101e4565b916101e4565b1161399f575b8061394b565b6139c96139cf926139c36139b25f610fba565b6139bd858490611462565b906131df565b92613879565b90611f1e565b806139e26139dc5f61106b565b916101e4565b116139ee575b80613999565b6139f791613ba5565b5f806139e8565b50509050613a14613a0e5f61106b565b916101e4565b03613a1f575b613950565b613a32613a2b5f61106b565b600b6110bc565b613a1a565b613a58915060203d8111613a5e575b613a508183610358565b81019061385b565b5f613900565b503d613a46565b6113e1565b90613a7361127e565b5081613a87613a81836101e4565b916101e4565b105f14613a9357505b90565b9050613a90565b90565b613ab1613aac613ab692613a9a565b61085f565b6101e4565b90565b90565b613ad0613acb613ad592613ab9565b61085f565b6101e4565b90565b613ae061127e565b81613af4613aee6003613a9d565b916101e4565b115f14613b74575080613b24613b1483613b0e6002613abc565b90611f1e565b613b1e6001610fca565b90613879565b905b81613b39613b33836101e4565b916101e4565b1015613b6d5750613b67613b5782613b52858290611f1e565b613879565b613b616002613abc565b90611f1e565b90613b26565b929150505b565b9190613b88613b825f61106b565b916101e4565b03613b93575b613b72565b9050613b9f6001610fca565b90613b8e565b90613bc2613bbc613bb55f610fba565b8390613de0565b5f6110bc565b613bf4613be3613bdc613bd760018690610aca565b610fba565b8390613de0565b613bef60018590610aca565b6110bc565b613bfd5f611f5c565b919091613c48613c36613c307fddf252ad1be2c89b69c2b068fc378daa952ba7f163c4a11628f55a4df523b3ef93610abe565b93610abe565b93613c3f6101d2565b918291826106e7565b0390a3565b613c7f613c6e613c67613c6260018590610aca565b610fba565b849061322a565b613c7a60018490610aca565b6110bc565b613c9b613c95613c8e5f610fba565b849061322a565b5f6110bc565b90613ca55f611f5c565b9091613cef613cdd613cd77fddf252ad1be2c89b69c2b068fc378daa952ba7f163c4a11628f55a4df523b3ef93610abe565b93610abe565b93613ce66101d2565b918291826106e7565b0390a3565b5f90565b613d0c613d07613d11926104df565b61085f565b613365565b90565b90565b613d2b613d26613d3092613d14565b61085f565b613365565b90565b613d40600160701b613d17565b90565b613d52613d5891939293613365565b92613365565b91613d64838202613365565b928184041490151715613d7357565b61144e565b613d8d613d9b91613d87613cf4565b50613cf8565b613d95613d33565b90613d43565b90565b613daa613db091613365565b91613365565b908115613dbb570490565b611f0a565b90613dd7613ddd92613dd0613cf4565b5091613cf8565b90613d9e565b90565b90613df391613ded61127e565b50613879565b9056fea26469706673582212201a739fd69eb7a14bc1fa6ed8a861e2f4494ed55354f7b0ad2b02dd1996443c7f64736f6c63430008170033a2646970667358221220e7a733b4d0c1a2dd07bf3b0eb1fd3761b4111b4d5ce278502d31852088c86e8164736f6c63430008170033","linkReferences":{}},"methodIdentifiers":{"INIT_CODE_PAIR_HASH()":"5855a25a","allPairs(uint256)":"1e3dd18b","allPairsLength()":"574f2ba3","createPair(address,address)":"c9c65396","feeRateBips()":"a15d0e3d","feeTo()":"017e7e58","feeToSetter()":"094b7415","getPair(address,address)":"e6a43905","setFeeRateBips(uint256)":"7328c31d","setFeeTo(address)":"f46901ed","setFeeToSetter(address)":"a2e74af6"},"id":34}