{"abi":[{"type":"constructor","inputs":[{"name":"_WETH","type":"address","internalType":"address"}],"stateMutability":"nonpayable"},{"type":"receive","stateMutability":"payable"},{"type":"function","name":"WETH","inputs":[],"outputs":[{"name":"","type":"address","internalType":"address"}],"stateMutability":"view"},{"type":"function","name":"addLiquidity","inputs":[{"name":"tokenA","type":"address","internalType":"address"},{"name":"tokenB","type":"address","internalType":"address"},{"name":"amountADesired","type":"uint256","internalType":"uint256"},{"name":"amountBDesired","type":"uint256","internalType":"uint256"},{"name":"amountAMin","type":"uint256","internalType":"uint256"},{"name":"amountBMin","type":"uint256","internalType":"uint256"},{"name":"to","type":"address","internalType":"address"},{"name":"deadline","type":"uint256","internalType":"uint256"}],"outputs":[{"name":"amountA","type":"uint256","internalType":"uint256"},{"name":"amountB","type":"uint256","internalType":"uint256"},{"name":"liquidity","type":"uint256","internalType":"uint256"}],"stateMutability":"nonpayable"},{"type":"function","name":"addLiquidityETH","inputs":[{"name":"token","type":"address","internalType":"address"},{"name":"amountTokenDesired","type":"uint256","internalType":"uint256"},{"name":"amountTokenMin","type":"uint256","internalType":"uint256"},{"name":"amountETHMin","type":"uint256","internalType":"uint256"},{"name":"to","type":"address","internalType":"address"},{"name":"deadline","type":"uint256","internalType":"uint256"}],"outputs":[{"name":"amountToken","type":"uint256","internalType":"uint256"},{"name":"amountETH","type":"uint256","internalType":"uint256"},{"name":"liquidity","type":"uint256","internalType":"uint256"}],"stateMutability":"payable"},{"type":"function","name":"factory","inputs":[],"outputs":[{"name":"","type":"address","internalType":"address"}],"stateMutability":"view"},{"type":"function","name":"feeSwapExactTokensForTokens","inputs":[{"name":"amountIn","type":"uint256","internalType":"uint256"},{"name":"amountOutMin","type":"uint256","internalType":"uint256"},{"name":"path","type":"address[]","internalType":"address[]"},{"name":"to","type":"address","internalType":"address"}],"outputs":[],"stateMutability":"payable"},{"type":"function","name":"getAmountIn","inputs":[{"name":"amountOut","type":"uint256","internalType":"uint256"},{"name":"reserveIn","type":"uint256","internalType":"uint256"},{"name":"reserveOut","type":"uint256","internalType":"uint256"}],"outputs":[{"name":"amountIn","type":"uint256","internalType":"uint256"}],"stateMutability":"pure"},{"type":"function","name":"getAmountOut","inputs":[{"name":"amountIn","type":"uint256","internalType":"uint256"},{"name":"reserveIn","type":"uint256","internalType":"uint256"},{"name":"reserveOut","type":"uint256","internalType":"uint256"}],"outputs":[{"name":"amountOut","type":"uint256","internalType":"uint256"}],"stateMutability":"pure"},{"type":"function","name":"getAmountsIn","inputs":[{"name":"amountOut","type":"uint256","internalType":"uint256"},{"name":"path","type":"address[]","internalType":"address[]"}],"outputs":[{"name":"amounts","type":"uint256[]","internalType":"uint256[]"}],"stateMutability":"view"},{"type":"function","name":"getAmountsOut","inputs":[{"name":"amountIn","type":"uint256","internalType":"uint256"},{"name":"path","type":"address[]","internalType":"address[]"}],"outputs":[{"name":"amounts","type":"uint256[]","internalType":"uint256[]"}],"stateMutability":"view"},{"type":"function","name":"quote","inputs":[{"name":"amountA","type":"uint256","internalType":"uint256"},{"name":"reserveA","type":"uint256","internalType":"uint256"},{"name":"reserveB","type":"uint256","internalType":"uint256"}],"outputs":[{"name":"amountB","type":"uint256","internalType":"uint256"}],"stateMutability":"pure"},{"type":"function","name":"removeLiquidity","inputs":[{"name":"tokenA","type":"address","internalType":"address"},{"name":"tokenB","type":"address","internalType":"address"},{"name":"liquidity","type":"uint256","internalType":"uint256"},{"name":"amountAMin","type":"uint256","internalType":"uint256"},{"name":"amountBMin","type":"uint256","internalType":"uint256"},{"name":"to","type":"address","internalType":"address"},{"name":"deadline","type":"uint256","internalType":"uint256"}],"outputs":[{"name":"amountA","type":"uint256","internalType":"uint256"},{"name":"amountB","type":"uint256","internalType":"uint256"}],"stateMutability":"nonpayable"},{"type":"function","name":"removeLiquidityETH","inputs":[{"name":"token","type":"address","internalType":"address"},{"name":"liquidity","type":"uint256","internalType":"uint256"},{"name":"amountTokenMin","type":"uint256","internalType":"uint256"},{"name":"amountETHMin","type":"uint256","internalType":"uint256"},{"name":"to","type":"address","internalType":"address"},{"name":"deadline","type":"uint256","internalType":"uint256"}],"outputs":[{"name":"amountToken","type":"uint256","internalType":"uint256"},{"name":"amountETH","type":"uint256","internalType":"uint256"}],"stateMutability":"nonpayable"},{"type":"function","name":"removeLiquidityETHSupportingFeeOnTransferTokens","inputs":[{"name":"token","type":"address","internalType":"address"},{"name":"liquidity","type":"uint256","internalType":"uint256"},{"name":"amountTokenMin","type":"uint256","internalType":"uint256"},{"name":"amountETHMin","type":"uint256","internalType":"uint256"},{"name":"to","type":"address","internalType":"address"},{"name":"deadline","type":"uint256","internalType":"uint256"}],"outputs":[{"name":"amountETH","type":"uint256","internalType":"uint256"}],"stateMutability":"nonpayable"},{"type":"function","name":"removeLiquidityETHWithPermit","inputs":[{"name":"token","type":"address","internalType":"address"},{"name":"liquidity","type":"uint256","internalType":"uint256"},{"name":"amountTokenMin","type":"uint256","internalType":"uint256"},{"name":"amountETHMin","type":"uint256","internalType":"uint256"},{"name":"to","type":"address","internalType":"address"},{"name":"deadline","type":"uint256","internalType":"uint256"},{"name":"approveMax","type":"bool","internalType":"bool"},{"name":"v","type":"uint8","internalType":"uint8"},{"name":"r","type":"bytes32","internalType":"bytes32"},{"name":"s","type":"bytes32","internalType":"bytes32"}],"outputs":[{"name":"amountToken","type":"uint256","internalType":"uint256"},{"name":"amountETH","type":"uint256","internalType":"uint256"}],"stateMutability":"nonpayable"},{"type":"function","name":"removeLiquidityETHWithPermitSupportingFeeOnTransferTokens","inputs":[{"name":"token","type":"address","internalType":"address"},{"name":"liquidity","type":"uint256","internalType":"uint256"},{"name":"amountTokenMin","type":"uint256","internalType":"uint256"},{"name":"amountETHMin","type":"uint256","internalType":"uint256"},{"name":"to","type":"address","internalType":"address"},{"name":"deadline","type":"uint256","internalType":"uint256"},{"name":"approveMax","type":"bool","internalType":"bool"},{"name":"v","type":"uint8","internalType":"uint8"},{"name":"r","type":"bytes32","internalType":"bytes32"},{"name":"s","type":"bytes32","internalType":"bytes32"}],"outputs":[{"name":"amountETH","type":"uint256","internalType":"uint256"}],"stateMutability":"nonpayable"},{"type":"function","name":"removeLiquidityWithPermit","inputs":[{"name":"tokenA","type":"address","internalType":"address"},{"name":"tokenB","type":"address","internalType":"address"},{"name":"liquidity","type":"uint256","internalType":"uint256"},{"name":"amountAMin","type":"uint256","internalType":"uint256"},{"name":"amountBMin","type":"uint256","internalType":"uint256"},{"name":"to","type":"address","internalType":"address"},{"name":"deadline","type":"uint256","internalType":"uint256"},{"name":"approveMax","type":"bool","internalType":"bool"},{"name":"v","type":"uint8","internalType":"uint8"},{"name":"r","type":"bytes32","internalType":"bytes32"},{"name":"s","type":"bytes32","internalType":"bytes32"}],"outputs":[{"name":"amountA","type":"uint256","internalType":"uint256"},{"name":"amountB","type":"uint256","internalType":"uint256"}],"stateMutability":"nonpayable"},{"type":"function","name":"swapETHForExactTokens","inputs":[{"name":"amountOut","type":"uint256","internalType":"uint256"},{"name":"path","type":"address[]","internalType":"address[]"},{"name":"to","type":"address","internalType":"address"},{"name":"deadline","type":"uint256","internalType":"uint256"}],"outputs":[{"name":"amounts","type":"uint256[]","internalType":"uint256[]"}],"stateMutability":"payable"},{"type":"function","name":"swapExactETHForTokens","inputs":[{"name":"amountOutMin","type":"uint256","internalType":"uint256"},{"name":"path","type":"address[]","internalType":"address[]"},{"name":"to","type":"address","internalType":"address"},{"name":"deadline","type":"uint256","internalType":"uint256"}],"outputs":[{"name":"amounts","type":"uint256[]","internalType":"uint256[]"}],"stateMutability":"payable"},{"type":"function","name":"swapExactETHForTokensSupportingFeeOnTransferTokens","inputs":[{"name":"amountOutMin","type":"uint256","internalType":"uint256"},{"name":"path","type":"address[]","internalType":"address[]"},{"name":"to","type":"address","internalType":"address"},{"name":"deadline","type":"uint256","internalType":"uint256"}],"outputs":[],"stateMutability":"payable"},{"type":"function","name":"swapExactTokensForETH","inputs":[{"name":"amountIn","type":"uint256","internalType":"uint256"},{"name":"amountOutMin","type":"uint256","internalType":"uint256"},{"name":"path","type":"address[]","internalType":"address[]"},{"name":"to","type":"address","internalType":"address"},{"name":"deadline","type":"uint256","internalType":"uint256"}],"outputs":[{"name":"amounts","type":"uint256[]","internalType":"uint256[]"}],"stateMutability":"nonpayable"},{"type":"function","name":"swapExactTokensForETHSupportingFeeOnTransferTokens","inputs":[{"name":"amountIn","type":"uint256","internalType":"uint256"},{"name":"amountOutMin","type":"uint256","internalType":"uint256"},{"name":"path","type":"address[]","internalType":"address[]"},{"name":"to","type":"address","internalType":"address"},{"name":"deadline","type":"uint256","internalType":"uint256"}],"outputs":[],"stateMutability":"nonpayable"},{"type":"function","name":"swapExactTokensForTokens","inputs":[{"name":"amountIn","type":"uint256","internalType":"uint256"},{"name":"amountOutMin","type":"uint256","internalType":"uint256"},{"name":"path","type":"address[]","internalType":"address[]"},{"name":"to","type":"address","internalType":"address"},{"name":"deadline","type":"uint256","internalType":"uint256"}],"outputs":[{"name":"amounts","type":"uint256[]","internalType":"uint256[]"}],"stateMutability":"nonpayable"},{"type":"function","name":"swapExactTokensForTokensSupportingFeeOnTransferTokens","inputs":[{"name":"amountIn","type":"uint256","internalType":"uint256"},{"name":"amountOutMin","type":"uint256","internalType":"uint256"},{"name":"path","type":"address[]","internalType":"address[]"},{"name":"to","type":"address","internalType":"address"},{"name":"deadline","type":"uint256","internalType":"uint256"}],"outputs":[],"stateMutability":"nonpayable"},{"type":"function","name":"swapTokensForExactETH","inputs":[{"name":"amountOut","type":"uint256","internalType":"uint256"},{"name":"amountInMax","type":"uint256","internalType":"uint256"},{"name":"path","type":"address[]","internalType":"address[]"},{"name":"to","type":"address","internalType":"address"},{"name":"deadline","type":"uint256","internalType":"uint256"}],"outputs":[{"name":"amounts","type":"uint256[]","internalType":"uint256[]"}],"stateMutability":"nonpayable"},{"type":"function","name":"swapTokensForExactTokens","inputs":[{"name":"amountOut","type":"uint256","internalType":"uint256"},{"name":"amountInMax","type":"uint256","internalType":"uint256"},{"name":"path","type":"address[]","internalType":"address[]"},{"name":"to","type":"address","internalType":"address"},{"name":"deadline","type":"uint256","internalType":"uint256"}],"outputs":[{"name":"amounts","type":"uint256[]","internalType":"uint256[]"}],"stateMutability":"nonpayable"},{"type":"error","name":"FailedCall","inputs":[]},{"type":"error","name":"InsufficientBalance","inputs":[{"name":"balance","type":"uint256","internalType":"uint256"},{"name":"needed","type":"uint256","internalType":"uint256"}]},{"type":"error","name":"SafeERC20FailedOperation","inputs":[{"name":"token","type":"address","internalType":"address"}]}],"bytecode":{"object":"0x60c060405234620001d8576200001e62000018620002b1565b620002d7565b62000028620001de565b6159e7620003028239608051818181610d24015281816114eb0152818161159101528181611773015281816118640152818161199b01528181611a4101528181611c4301528181611cd601528181611ec1015281816120700152818161235d01528181612678015281816127c10152818161297601528181612a0901528181612e160152818161326b01528181613458015281816134a3015281816136270152818161379101528181613ac501528181613bfe015281816148f90152818161494901528181614ce001528181614e6e015281816154b3015281816155460152615664015260a051818181610b5d015281816110dd01528181611128015281816114b90152818161163401528181611c1101528181611d7901528181611ee301528181612302015281816123e40152818161247801528181612640015281816126f90152818161278a01528181612b0f01528181612bb901528181612d1c01528181612d5601528181612dcf015281816134c50152818161375b015281816137b3015281816137f00152818161386701528181613a9301528181613b3601528181613bc70152613dd001526159e790f35b620001e4565b60405190565b5f80fd5b601f801991011690565b634e487b7160e01b5f52604160045260245ffd5b906200021290620001e8565b810190811060018060401b038211176200022b57604052565b620001f2565b906200024862000240620001de565b928362000206565b565b5f80fd5b60018060a01b031690565b62000264906200024e565b90565b620002728162000259565b036200027a57565b5f80fd5b905051906200028d8262000267565b565b90602082820312620002ab57620002a8915f016200027e565b90565b6200024a565b620002d462005ce980380380620002c88162000231565b9283398101906200028f565b90565b620002f79073907e8c7d471877b4742da8aa53d257d0d565a47e620002f9565b565b60805260a05256fe6080604052600436101561001d575b36610f4d5761001b613dc4565b005b6100275f356101b6565b806302751cec146101b1578063054d50d4146101ac5780630ba44643146101a757806318cbafe5146101a25780631f00ca741461019d5780632195995c1461019857806338ed1739146101935780634a25d94a1461018e5780635b0d5984146101895780635c11d79514610184578063791ac9471461017f5780637ff36ab51461017a57806385f8c259146101755780638803dbee14610170578063ad5c46481461016b578063ad615dec14610166578063af2979eb14610161578063b6f9de951461015c578063baa2abde14610157578063c45a015514610152578063d06ca61f1461014d578063ded9382a14610148578063e8e3370014610143578063f305d7191461013e5763fb3bdb410361000e57610f1e565b610ee9565b610ea7565b610db1565b610d7b565b610d46565b610ce5565b610c48565b610c0c565b610bd6565b610ba1565b610b10565b610ada565b610aab565b610a0f565b6109d5565b610993565b6108ba565b61087e565b61083b565b6106e0565b61056c565b610437565b61034e565b6102c2565b60e01c90565b60405190565b5f80fd5b5f80fd5b5f80fd5b60018060a01b031690565b6101e2906101ce565b90565b6101ee816101d9565b036101f557565b5f80fd5b90503590610206826101e5565b565b90565b61021481610208565b0361021b57565b5f80fd5b9050359061022c8261020b565b565b909160c08284031261028d57610246835f84016101f9565b92610254816020850161021f565b92610262826040830161021f565b9261028a610273846060850161021f565b9361028181608086016101f9565b9360a00161021f565b90565b6101c6565b61029b90610208565b9052565b9160206102c09294936102b960408201965f830190610292565b0190610292565b565b346102fa576102e16102d536600461022e565b949390939291926111e5565b906102f66102ed6101bc565b9283928361029f565b0390f35b6101c2565b90916060828403126103345761033161031a845f850161021f565b93610328816020860161021f565b9360400161021f565b90565b6101c6565b919061034c905f60208501940190610292565b565b3461037f5761037b61036a6103643660046102ff565b91611208565b6103726101bc565b91829182610339565b0390f35b6101c2565b5f80fd5b5f80fd5b5f80fd5b909182601f830112156103ca5781359167ffffffffffffffff83116103c55760200192602083028401116103c057565b61038c565b610388565b610384565b91909160808184031261042d576103e8835f830161021f565b926103f6816020840161021f565b92604083013567ffffffffffffffff81116104285761041a83610425928601610390565b9390946060016101f9565b90565b6101ca565b6101c6565b5f0190565b6104423660046103cf565b505050505061044f6101bc565b8061045981610432565b0390f35b9060a0828203126104c857610474815f840161021f565b92610482826020850161021f565b9260408101359167ffffffffffffffff83116104c3576104a7846104c0948401610390565b9390946104b781606086016101f9565b9360800161021f565b90565b6101ca565b6101c6565b5190565b60209181520190565b60200190565b6104e990610208565b9052565b906104fa816020936104e0565b0190565b60200190565b9061052161051b610514846104cd565b80936104d1565b926104da565b905f5b8181106105315750505090565b90919261054a61054460019286516104ed565b946104fe565b9101919091610524565b6105699160208201915f818403910152610504565b90565b346105a35761059f61058e61058236600461045d565b9493909392919261174b565b6105966101bc565b91829182610554565b0390f35b6101c2565b601f801991011690565b634e487b7160e01b5f52604160045260245ffd5b906105d0906105a8565b810190811067ffffffffffffffff8211176105ea57604052565b6105b2565b906106026105fb6101bc565b92836105c6565b565b67ffffffffffffffff811161061c5760208091020190565b6105b2565b9092919261063661063182610604565b6105ef565b938185526020808601920283019281841161067357915b83831061065a5750505050565b6020809161066884866101f9565b81520192019161064d565b61038c565b9080601f830112156106965781602061069393359101610621565b90565b610384565b9190916040818403126106db576106b4835f830161021f565b92602082013567ffffffffffffffff81116106d6576106d39201610678565b90565b6101ca565b6101c6565b346107115761070d6106fc6106f636600461069b565b90611764565b6107046101bc565b91829182610554565b0390f35b6101c2565b151590565b61072481610716565b0361072b57565b5f80fd5b9050359061073c8261071b565b565b60ff1690565b61074d8161073e565b0361075457565b5f80fd5b9050359061076582610744565b565b90565b61077381610767565b0361077a57565b5f80fd5b9050359061078b8261076a565b565b919061016083820312610836576107a6815f85016101f9565b926107b482602083016101f9565b926107c2836040840161021f565b926107d0816060850161021f565b926107de826080830161021f565b926107ec8360a084016101f9565b926107fa8160c0850161021f565b926108088260e0830161072f565b9261083361081a846101008501610758565b9361082981610120860161077e565b936101400161077e565b90565b6101c6565b346108795761086061084e36600461078d565b99989098979197969296959395611843565b9061087561086c6101bc565b9283928361029f565b0390f35b6101c2565b346108b5576108b16108a061089436600461045d565b94939093929192611ad3565b6108a86101bc565b91829182610554565b0390f35b6101c2565b346108f1576108ed6108dc6108d036600461045d565b94939093929192611e90565b6108e46101bc565b91829182610554565b0390f35b6101c2565b6101408183031261098e5761090d825f83016101f9565b9261091b836020840161021f565b92610929816040850161021f565b92610937826060830161021f565b9261094583608084016101f9565b926109538160a0850161021f565b926109618260c0830161072f565b9261098b6109728460e08501610758565b9361098181610100860161077e565b936101200161077e565b90565b6101c6565b346109d0576109cc6109bb6109a93660046108f6565b98979097969196959295949394611ea9565b6109c36101bc565b91829182610339565b0390f35b6101c2565b34610a0a576109f46109e836600461045d565b94939093929192612279565b6109fc6101bc565b80610a0681610432565b0390f35b6101c2565b34610a4457610a2e610a2236600461045d565b94939093929192612566565b610a366101bc565b80610a4081610432565b0390f35b6101c2565b91608083830312610aa657610a60825f850161021f565b9260208101359167ffffffffffffffff8311610aa157610a8584610a9e948401610390565b939094610a9581604086016101f9565b9360600161021f565b90565b6101ca565b6101c6565b610ad6610ac5610abc366004610a49565b93929092612900565b610acd6101bc565b91829182610554565b0390f35b34610b0b57610b07610af6610af03660046102ff565b91612918565b610afe6101bc565b91829182610339565b0390f35b6101c2565b34610b4757610b43610b32610b2636600461045d565b94939093929192612a9b565b610b3a6101bc565b91829182610554565b0390f35b6101c2565b5f910312610b5657565b6101c6565b7f000000000000000000000000000000000000000000000000000000000000000090565b610b88906101d9565b9052565b9190610b9f905f60208501940190610b7f565b565b34610bd157610bb1366004610b4c565b610bcd610bbc610b5b565b610bc46101bc565b91829182610b8c565b0390f35b6101c2565b34610c0757610c03610bf2610bec3660046102ff565b91612ab4565b610bfa6101bc565b91829182610339565b0390f35b6101c2565b34610c4357610c3f610c2e610c2236600461022e565b94939093929192612cab565b610c366101bc565b91829182610339565b0390f35b6101c2565b610c5f610c56366004610a49565b939290926130b9565b610c676101bc565b80610c7181610432565b0390f35b60e081830312610ce057610c8b825f83016101f9565b92610c9983602084016101f9565b92610ca7816040850161021f565b92610cb5826060830161021f565b92610cdd610cc6846080850161021f565b93610cd48160a086016101f9565b9360c00161021f565b90565b6101c6565b34610d1d57610d04610cf8366004610c75565b95949094939193613425565b90610d19610d106101bc565b9283928361029f565b0390f35b6101c2565b7f000000000000000000000000000000000000000000000000000000000000000090565b34610d7657610d56366004610b4c565b610d72610d61610d22565b610d696101bc565b91829182610b8c565b0390f35b6101c2565b34610dac57610da8610d97610d9136600461069b565b90613449565b610d9f6101bc565b91829182610554565b0390f35b6101c2565b34610def57610dd6610dc43660046108f6565b98979097969196959295949394613482565b90610deb610de26101bc565b9283928361029f565b0390f35b6101c2565b919061010083820312610e7057610e0d815f85016101f9565b92610e1b82602083016101f9565b92610e29836040840161021f565b92610e37816060850161021f565b92610e45826080830161021f565b92610e6d610e568460a0850161021f565b93610e648160c086016101f9565b9360e00161021f565b90565b6101c6565b604090610e9e610ea59496959396610e9460608401985f850190610292565b6020830190610292565b0190610292565b565b34610ee457610ee0610ecc610ebd366004610df4565b969590959491949392936136e8565b610ed79391936101bc565b93849384610e75565b0390f35b6101c2565b610f1a610f06610efa36600461022e565b94939093929192613a0a565b610f119391936101bc565b93849384610e75565b0390f35b610f49610f38610f2f366004610a49565b93929092613dac565b610f406101bc565b91829182610554565b0390f35b5f80fd5b5f90565b60209181520190565b5f7f416d6d526f757465723a20455850495245440000000000000000000000000000910152565b610f926012602092610f55565b610f9b81610f5e565b0190565b610fb49060208101905f818303910152610f85565b90565b15610fbe57565b610fc66101bc565b62461bcd60e51b815280610fdc60048201610f9f565b0390fd5b9061100d9796959493929161100888611001610ffb42610208565b91610208565b1015610fb7565b6110c5565b9091565b90565b61102861102361102d926101ce565b611011565b6101ce565b90565b61103990611014565b90565b61104590611030565b90565b61105190611014565b90565b61105d90611048565b90565b61106990611014565b90565b61107590611060565b90565b61108190611030565b90565b5f80fd5b60e01b90565b5f91031261109857565b6101c6565b6110a56101bc565b3d5f823e3d90fd5b6110b690611014565b90565b6110c2906110ad565b90565b926111209492989695611118989261111095505089937f0000000000000000000000000000000000000000000000000000000000000000929091926111093061103c565b9495613425565b949095611054565b828691613e33565b61115161114c7f000000000000000000000000000000000000000000000000000000000000000061106c565b611078565b90632e1a7d4d84833b156111e0576111889361117d5f80946111716101bc565b97889586948593611088565b835260048301610339565b03925af19081156111db576111ad926111a6926111af575b506110b9565b8390613f21565b565b6111ce905f3d81116111d4575b6111c681836105c6565b81019061108e565b5f6111a0565b503d6111bc565b61109d565b611084565b9061120495949392916111f6610f51565b6111fe610f51565b90610fe0565b9091565b9161121e92611215610f51565b50919091614159565b90565b606090565b9061125296959493929161124d8761124661124042610208565b91610208565b1015610fb7565b61146b565b90565b5090565b90565b61127061126b61127592611259565b611011565b610208565b90565b634e487b7160e01b5f52601160045260245ffd5b61129b6112a191939293610208565b92610208565b82039182116112ac57565b611278565b634e487b7160e01b5f52603260045260245ffd5b91908110156112d5576020020190565b6112b1565b356112e4816101e5565b90565b5f7f416d6d526f757465723a20494e56414c49445f50415448000000000000000000910152565b61131b6017602092610f55565b611324816112e7565b0190565b61133d9060208101905f81830391015261130e565b90565b1561134757565b61134f6101bc565b62461bcd60e51b81528061136560048201611328565b0390fd5b611374913691610621565b90565b90611381826104cd565b811015611392576020809102010190565b6112b1565b6113a19051610208565b90565b60207f4d4f554e54000000000000000000000000000000000000000000000000000000917f416d6d526f757465723a20494e53554646494349454e545f4f55545055545f415f8201520152565b6113fe6025604092610f55565b611407816113a4565b0190565b6114209060208101905f8183039101526113f1565b90565b1561142a57565b6114326101bc565b62461bcd60e51b8152806114486004820161140b565b0390fd5b90565b61146361145e6114689261144c565b611011565b610208565b90565b61162c9493929796506115649161151c91506114e96114b16114ac86886114a66114968a8c90611255565b6114a0600161125c565b9061128c565b916112c5565b6112da565b6114e36114dd7f00000000000000000000000000000000000000000000000000000000000000006101d9565b916101d9565b14611340565b7f000000000000000000000000000000000000000000000000000000000000000090611516858790611369565b9161437d565b9661155d61155761155161154c8b611546611536826104cd565b611540600161125c565b9061128c565b90611377565b611397565b92610208565b91610208565b1015611423565b61161161158b611586611581848661157b5f61144f565b916112c5565b6112da565b611054565b336115ef7f00000000000000000000000000000000000000000000000000000000000000006115cc6115c787896115c15f61144f565b916112c5565b6112da565b6115e96115e4888a6115de600161125c565b916112c5565b6112da565b91614617565b9061160b6116068b6116005f61144f565b90611377565b611397565b926146c4565b6116268691926116203061103c565b93611369565b906147e0565b61165d6116587f000000000000000000000000000000000000000000000000000000000000000061106c565b611078565b90632e1a7d4d61169161168c86611686611676896104cd565b611680600161125c565b9061128c565b90611377565b611397565b833b15611746576116c1936116b65f80946116aa6101bc565b97889586948593611088565b835260048301610339565b03925af190811561174157611713926116df92611715575b506110b9565b61170d611708856117026116f2886104cd565b6116fc600161125c565b9061128c565b90611377565b611397565b90613f21565b565b611734905f3d811161173a575b61172c81836105c6565b81019061108e565b5f6116d9565b503d611722565b61109d565b611084565b90611761959493929161175c611221565b611226565b90565b61179a91611770611221565b507f0000000000000000000000000000000000000000000000000000000000000000919091614a5a565b90565b6117a690611014565b90565b6117b29061179d565b90565b6117be90611030565b90565b6117ca9061073e565b9052565b6117d790610767565b9052565b949290979695939160e08601985f87016117f491610b7f565b6020860161180191610b7f565b6040850161180e91610292565b6060840161181b91610292565b60808301611828916117c1565b60a08201611835916117ce565b60c001611841916117ce565b565b92949691939597999098611855610f51565b5061185e610f51565b5061188b7f0000000000000000000000000000000000000000000000000000000000000000858c91614617565b925f1461194a576118a66118a15f195b946117a9565b6117b5565b9263d505accf916118b63061103c565b91938b9d919091863b15611945576118cc6101bc565b9e8f966118d98897611088565b8752339560048801966118eb976117db565b03815a5f948591f19788156119405761191098611914575b5095909192939495613425565b9091565b611933905f3d8111611939575b61192b81836105c6565b81019061108e565b5f611903565b503d611921565b61109d565b611084565b6118a66118a18661189b565b9061198296959493929161197d8761197661197042610208565b91610208565b1015610fb7565b611985565b90565b611acb929796506119cc611ad19692611a1492507f0000000000000000000000000000000000000000000000000000000000000000906119c6878990611369565b9161437d565b97611a0d611a07611a016119fc8c6119f66119e6826104cd565b6119f0600161125c565b9061128c565b90611377565b611397565b92610208565b91610208565b1015611423565b611ac1611a3b611a36611a318688611a2b5f61144f565b916112c5565b6112da565b611054565b33611a9f7f0000000000000000000000000000000000000000000000000000000000000000611a7c611a77898b611a715f61144f565b916112c5565b6112da565b611a99611a948a8c611a8e600161125c565b916112c5565b6112da565b91614617565b90611abb611ab68c611ab05f61144f565b90611377565b611397565b926146c4565b8692939093611369565b906147e0565b565b90611ae99594939291611ae4611221565b611956565b90565b90611b18969594939291611b1387611b0c611b0642610208565b91610208565b1015610fb7565b611bc3565b90565b60207f5400000000000000000000000000000000000000000000000000000000000000917f416d6d526f757465723a204558434553534956455f494e5055545f414d4f554e5f8201520152565b611b756021604092610f55565b611b7e81611b1b565b0190565b611b979060208101905f818303910152611b68565b90565b15611ba157565b611ba96101bc565b62461bcd60e51b815280611bbf60048201611b82565b0390fd5b611d71949392979650611ca991611c749150611c41611c09611c048688611bfe611bee8a8c90611255565b611bf8600161125c565b9061128c565b916112c5565b6112da565b611c3b611c357f00000000000000000000000000000000000000000000000000000000000000006101d9565b916101d9565b14611340565b7f000000000000000000000000000000000000000000000000000000000000000090611c6e858790611369565b91614a5a565b96611ca2611c9c611c96611c918b611c8b5f61144f565b90611377565b611397565b92610208565b91610208565b1115611b9a565b611d56611cd0611ccb611cc68486611cc05f61144f565b916112c5565b6112da565b611054565b33611d347f0000000000000000000000000000000000000000000000000000000000000000611d11611d0c8789611d065f61144f565b916112c5565b6112da565b611d2e611d29888a611d23600161125c565b916112c5565b6112da565b91614617565b90611d50611d4b8b611d455f61144f565b90611377565b611397565b926146c4565b611d6b869192611d653061103c565b93611369565b906147e0565b611da2611d9d7f000000000000000000000000000000000000000000000000000000000000000061106c565b611078565b90632e1a7d4d611dd6611dd186611dcb611dbb896104cd565b611dc5600161125c565b9061128c565b90611377565b611397565b833b15611e8b57611e0693611dfb5f8094611def6101bc565b97889586948593611088565b835260048301610339565b03925af1908115611e8657611e5892611e2492611e5a575b506110b9565b611e52611e4d85611e47611e37886104cd565b611e41600161125c565b9061128c565b90611377565b611397565b90613f21565b565b611e79905f3d8111611e7f575b611e7181836105c6565b81019061108e565b5f611e1e565b503d611e67565b61109d565b611084565b90611ea69594939291611ea1611221565b611aec565b90565b92949698919395909798611ebb610f51565b50611f087f0000000000000000000000000000000000000000000000000000000000000000857f000000000000000000000000000000000000000000000000000000000000000091614617565b915f14611fc557611f23611f1e5f195b936117a9565b6117b5565b9263d505accf913391611f353061103c565b949c8b92909192873b15611fc057611f4b6101bc565b9e8f97611f588998611088565b88526004880196611f68976117db565b03815a5f948591f1968715611fbb57611f8c97611f8f575b50949091929394612cab565b90565b611fae905f3d8111611fb4575b611fa681836105c6565b81019061108e565b5f611f80565b503d611f9c565b61109d565b611084565b611f23611f1e8a611f18565b90611ffc9594939291611ff786611ff0611fea42610208565b91610208565b1015610fb7565b612037565b565b61200790611030565b90565b905051906120178261020b565b565b906020828203126120325761202f915f0161200a565b90565b6101c6565b612142929395506120d69094919461206961206461205f878a6120595f61144f565b916112c5565b6112da565b611054565b90336120cf7f00000000000000000000000000000000000000000000000000000000000000006120ab6120a68a8d6120a05f61144f565b916112c5565b6112da565b6120c96120c48d8c906120be600161125c565b916112c5565b6112da565b91614617565b91926146c4565b602061211861211361210e612109878a6121036120f38d8c611255565b6120fd600161125c565b9061128c565b916112c5565b6112da565b611054565b611ffe565b6370a0823190612137849261212b6101bc565b96879485938493611088565b835260048301610b8c565b03915afa918215612274576121ad6121a86121a36121d9986020966121b2955f91612247575b509761217e81612179848a92611369565b614c50565b61219d61218d82938093611255565b612197600161125c565b9061128c565b916112c5565b6112da565b611054565b611ffe565b6121ce6370a082316121c26101bc565b97889485938493611088565b835260048301610b8c565b03915afa8015612242576121ff61220b9261220592612212965f91612214575b50614ffb565b92610208565b91610208565b1015611423565b565b612235915060203d811161223b575b61222d81836105c6565b810190612019565b5f6121f9565b503d612223565b61109d565b6122679150883d811161226d575b61225f81836105c6565b810190612019565b5f612168565b503d612255565b61109d565b906122879594939291611fd1565b565b906122b495949392916122af866122a86122a242610208565b91610208565b1015610fb7565b6122b6565b565b6123d291949550916123c26123d794936123326122fa6122f585886122ef6122df898c90611255565b6122e9600161125c565b9061128c565b916112c5565b6112da565b61232c6123267f00000000000000000000000000000000000000000000000000000000000000006101d9565b916101d9565b14611340565b61235661235161234c85886123465f61144f565b916112c5565b6112da565b611054565b90336123bb7f0000000000000000000000000000000000000000000000000000000000000000612398612393888b61238d5f61144f565b916112c5565b6112da565b6123b56123b0898c6123aa600161125c565b916112c5565b6112da565b91614617565b91926146c4565b916123cc3061103c565b92611369565b614c50565b61243f602061240d6124087f0000000000000000000000000000000000000000000000000000000000000000611054565b611ffe565b6370a082319061243461241f3061103c565b926124286101bc565b95869485938493611088565b835260048301610b8c565b03915afa801561256157612470915f91612533575b50916124696124638492610208565b91610208565b1015611423565b6124a161249c7f000000000000000000000000000000000000000000000000000000000000000061106c565b611078565b91632e1a7d4d82843b1561252e576124d8946124cd5f80946124c16101bc565b98899586948593611088565b835260048301610339565b03925af1908115612529576124fb936124f6926124fd575b506110b9565b613f21565b565b61251c905f3d8111612522575b61251481836105c6565b81019061108e565b5f6124f0565b503d61250a565b61109d565b611084565b612554915060203d811161255a575b61254c81836105c6565b810190612019565b5f612454565b503d612542565b61109d565b906125749594939291612289565b565b906125a1959493929161259c8661259561258f42610208565b91610208565b1015610fb7565b612614565b90565b905051906125b18261071b565b565b906020828203126125cc576125c9915f016125a4565b90565b6101c6565b9160206125f29294936125eb60408201965f830190610b7f565b0190610292565b565b634e487b7160e01b5f52600160045260245ffd5b1561260f57565b6125f4565b9095945050612670612638612633838561262d5f61144f565b916112c5565b6112da565b61266a6126647f00000000000000000000000000000000000000000000000000000000000000006101d9565b916101d9565b14611340565b6126f16126a97f0000000000000000000000000000000000000000000000000000000000000000346126a3858790611369565b9161437d565b956126ea6126e46126de6126d98a6126d36126c38d6104cd565b6126cd600161125c565b9061128c565b90611377565b611397565b92610208565b91610208565b1015611423565b61272261271d7f000000000000000000000000000000000000000000000000000000000000000061106c565b611078565b63d0e30db061274261273d886127375f61144f565b90611377565b611397565b9190813b156128fb575f91612763916127596101bc565b9485938492611088565b82528161277260048201610432565b03925af180156128f6576128ca575b506127b36127ae7f000000000000000000000000000000000000000000000000000000000000000061106c565b611078565b92602063a9059cbb9461281f7f00000000000000000000000000000000000000000000000000000000000000006127fc6127f787896127f15f61144f565b916112c5565b6112da565b612819612814888a61280e600161125c565b916112c5565b6112da565b91614617565b906128575f61283f61283a8c6128348461144f565b90611377565b611397565b9861286261284b6101bc565b9a8b9687958694611088565b8452600484016125d1565b03925af19081156128c55761288561288f92612895965f91612897575b50612608565b8692939093611369565b906147e0565b565b6128b8915060203d81116128be575b6128b081836105c6565b8101906125b3565b5f61287f565b503d6128a6565b61109d565b6128e9905f3d81116128ef575b6128e181836105c6565b81019061108e565b5f612781565b503d6128d7565b61109d565b611084565b9061291594939291612910611221565b612576565b90565b9161292e92612925610f51565b509190916150b9565b90565b9061295d9695949392916129588761295161294b42610208565b91610208565b1015610fb7565b612960565b90565b612a93929796506129a7612a9996926129dc92507f0000000000000000000000000000000000000000000000000000000000000000906129a1878990611369565b91614a5a565b976129d56129cf6129c96129c48c6129be5f61144f565b90611377565b611397565b92610208565b91610208565b1115611b9a565b612a89612a036129fe6129f986886129f35f61144f565b916112c5565b6112da565b611054565b33612a677f0000000000000000000000000000000000000000000000000000000000000000612a44612a3f898b612a395f61144f565b916112c5565b6112da565b612a61612a5c8a8c612a56600161125c565b916112c5565b6112da565b91614617565b90612a83612a7e8c612a785f61144f565b90611377565b611397565b926146c4565b8692939093611369565b906147e0565b565b90612ab19594939291612aac611221565b612931565b90565b91612aca92612ac1610f51565b509190916151ff565b90565b90612af9969594939291612af487612aed612ae742610208565b91610208565b1015610fb7565b612afc565b90565b91612b9594612b429493989792985088937f000000000000000000000000000000000000000000000000000000000000000092909192612b3b3061103c565b9495613425565b905093612b4e81611054565b906020612b63612b5e8693611054565b611ffe565b6370a0823190612b8a612b753061103c565b92612b7e6101bc565b97889485938493611088565b835260048301610b8c565b03915afa918215612ca657612bb1935f93612c76575b50613e33565b612be2612bdd7f000000000000000000000000000000000000000000000000000000000000000061106c565b611078565b90632e1a7d4d84833b15612c7157612c1993612c0e5f8094612c026101bc565b97889586948593611088565b835260048301610339565b03925af1908115612c6c57612c3e92612c3792612c40575b506110b9565b8390613f21565b565b612c5f905f3d8111612c65575b612c5781836105c6565b81019061108e565b5f612c31565b503d612c4d565b61109d565b611084565b612c9891935060203d8111612c9f575b612c9081836105c6565b810190612019565b915f612bab565b503d612c86565b61109d565b90612cc19594939291612cbc610f51565b612acd565b90565b90612cee94939291612ce985612ce2612cdc42610208565b91610208565b1015610fb7565b612cf0565b565b9290919350612d4c612d14612d0f8487612d095f61144f565b916112c5565b6112da565b612d46612d407f00000000000000000000000000000000000000000000000000000000000000006101d9565b916101d9565b14611340565b3490612d7f612d7a7f000000000000000000000000000000000000000000000000000000000000000061106c565b611078565b63d0e30db0839190813b156130b4575f91612da691612d9c6101bc565b9485938492611088565b825281612db560048201610432565b03925af180156130af57613083575b506020612df8612df37f000000000000000000000000000000000000000000000000000000000000000061106c565b611078565b9263a9059cbb93612e825f612e69888b612e63612e5e612e4b612e467f00000000000000000000000000000000000000000000000000000000000000009585612e408a61144f565b916112c5565b6112da565b928d90612e58600161125c565b916112c5565b6112da565b91614617565b9396612e8d612e766101bc565b98899687958694611088565b8452600484016125d1565b03925af191821561307e57612f1992612ead915f91613050575b50612608565b6020612eef612eea612ee5612ee0878a612eda612eca8d8c611255565b612ed4600161125c565b9061128c565b916112c5565b6112da565b611054565b611ffe565b6370a0823190612f0e8492612f026101bc565b96879485938493611088565b835260048301610b8c565b03915afa91821561304b57612f84612f7f612f7a612fb098602096612f89955f9161301e575b5097612f5581612f50848a92611369565b614c50565b612f74612f6482938093611255565b612f6e600161125c565b9061128c565b916112c5565b6112da565b611054565b611ffe565b612fa56370a08231612f996101bc565b97889485938493611088565b835260048301610b8c565b03915afa801561301957612fd6612fe292612fdc92612fe9965f91612feb575b50614ffb565b92610208565b91610208565b1015611423565b565b61300c915060203d8111613012575b61300481836105c6565b810190612019565b5f612fd0565b503d612ffa565b61109d565b61303e9150883d8111613044575b61303681836105c6565b810190612019565b5f612f3f565b503d61302c565b61109d565b613071915060203d8111613077575b61306981836105c6565b8101906125b3565b5f612ea7565b503d61305f565b61109d565b6130a2905f3d81116130a8575b61309a81836105c6565b81019061108e565b5f612dc4565b503d613090565b61109d565b611084565b906130c694939291612cc4565b565b906130f698979695949392916130f1896130ea6130e442610208565b91610208565b1015610fb7565b61325b565b9091565b60409061312361312a949695939661311960608401985f850190610b7f565b6020830190610b7f565b0190610292565b565b91906040838203126131545780613148613151925f860161200a565b9360200161200a565b90565b6101c6565b5f7f416d6d526f757465723a20494e53554646494349454e545f415f414d4f554e54910152565b61318c60208092610f55565b61319581613159565b0190565b6131ae9060208101905f818303910152613180565b90565b156131b857565b6131c06101bc565b62461bcd60e51b8152806131d660048201613199565b0390fd5b5f7f416d6d526f757465723a20494e53554646494349454e545f425f414d4f554e54910152565b61320d60208092610f55565b613216816131da565b0190565b61322f9060208101905f818303910152613201565b90565b1561323957565b6132416101bc565b62461bcd60e51b8152806132576004820161321a565b0390fd5b90919394989692975050506132927f0000000000000000000000000000000000000000000000000000000000000000838891614617565b9060206132a66132a1846117a9565b6117b5565b6323b872dd906132cb5f33936132d6889a6132bf6101bc565b9b8c9788968795611088565b8552600485016130fa565b03925af1938415613420576132fa6040936132ff92613327976133f4575b506117a9565b6117b5565b61331c5f6389afcb446133106101bc565b97889586948593611088565b835260048301610b8c565b03925af180156133ef575f809390916133b2575b5061335461334e61335a929497846153a7565b506101d9565b916101d9565b145f146133a357906133876133a192945b949561338061337a8892610208565b91610208565b10156131b1565b61339a6133948592610208565b91610208565b1015613232565b565b92906133876133a1929461336b565b61334e935061335a91506133df6133549160403d81116133e8575b6133d781836105c6565b81019061312c565b9450915061333b565b503d6133cd565b61109d565b6134149060203d8111613419575b61340c81836105c6565b8101906125b3565b6132f4565b503d613402565b61109d565b90613445969594939291613437610f51565b61343f610f51565b906130c8565b9091565b61347f91613455611221565b507f000000000000000000000000000000000000000000000000000000000000000091909161437d565b90565b92949698919395909798613494610f51565b5061349d610f51565b506134ea7f0000000000000000000000000000000000000000000000000000000000000000857f000000000000000000000000000000000000000000000000000000000000000091614617565b915f146135a8576135056135005f195b936117a9565b6117b5565b9263d505accf9133916135173061103c565b949c8b92909192873b156135a35761352d6101bc565b9e8f9761353a8998611088565b8852600488019661354a976117db565b03815a5f948591f196871561359e5761356e97613572575b509490919293946111e5565b9091565b613591905f3d8111613597575b61358981836105c6565b81019061108e565b5f613562565b503d61357f565b61109d565b611084565b6135056135008a6134fa565b906135e49a9998979695949392916135df8b6135d86135d242610208565b91610208565b1015610fb7565b6135e9565b909192565b6136639a509361369f98602098829d9b986136779861366d96613619966136729a50505087949091929394615494565b99909a61365e61365461364e7f0000000000000000000000000000000000000000000000000000000000000000878591614617565b95611054565b8d338791926146c4565b611054565b3383908b926146c4565b6117a9565b6117b5565b6136945f636a6278426136886101bc565b96879586948593611088565b835260048301610b8c565b03925af19081156136e3575f916136b5575b5090565b6136d6915060203d81116136dc575b6136ce81836105c6565b810190612019565b5f6136b1565b503d6136c4565b61109d565b90613711979695949392916136fb610f51565b613703610f51565b61370b610f51565b916135b4565b909192565b90613744989796959493929161373f8961373861373242610208565b91610208565b1015610fb7565b613749565b909192565b613783969495939997985050505086927f000000000000000000000000000000000000000000000000000000000000000034929394615494565b9290936137e86137de6137d87f0000000000000000000000000000000000000000000000000000000000000000847f000000000000000000000000000000000000000000000000000000000000000091614617565b92611054565b33839088926146c4565b6138196138147f000000000000000000000000000000000000000000000000000000000000000061106c565b611078565b63d0e30db0859190813b15613a05575f91613840916138366101bc565b9485938492611088565b82528161384f60048201610432565b03925af18015613a00576139d4575b5061389061388b7f000000000000000000000000000000000000000000000000000000000000000061106c565b611078565b91602063a9059cbb9383906138b85f89976138c36138ac6101bc565b998a9687958694611088565b8452600484016125d1565b03925af19283156139cf576138f16020936138ec61391e966138f6945f916139a2575b50612608565b6117a9565b6117b5565b6139135f636a6278426139076101bc565b96879586948593611088565b835260048301610b8c565b03925af190811561399d575f9161396f575b50903461394561393f85610208565b91610208565b1161394d575b565b61396a613959336110b9565b61396434869061128c565b90613f21565b61394b565b613990915060203d8111613996575b61398881836105c6565b810190612019565b5f613930565b503d61397e565b61109d565b6139c29150873d81116139c8575b6139ba81836105c6565b8101906125b3565b5f6138e6565b503d6139b0565b61109d565b6139f3905f3d81116139f9575b6139eb81836105c6565b81019061108e565b5f61385e565b503d6139e1565b61109d565b611084565b90613a319594939291613a1b610f51565b613a23610f51565b613a2b610f51565b91613716565b909192565b90613a619594939291613a5c86613a55613a4f42610208565b91610208565b1015610fb7565b613a64565b90565b613af69296955050613ac3613a8b613a868886613a805f61144f565b916112c5565b6112da565b613abd613ab77f00000000000000000000000000000000000000000000000000000000000000006101d9565b916101d9565b14611340565b7f000000000000000000000000000000000000000000000000000000000000000090613af0878590611369565b91614a5a565b93613b2e613b15613b1087613b0a5f61144f565b90611377565b611397565b613b27613b2134610208565b91610208565b1115611b9a565b613b5f613b5a7f000000000000000000000000000000000000000000000000000000000000000061106c565b611078565b63d0e30db0613b7f613b7a88613b745f61144f565b90611377565b611397565b9190813b15613da7575f91613ba091613b966101bc565b9485938492611088565b825281613baf60048201610432565b03925af18015613da257613d76575b50613bf0613beb7f000000000000000000000000000000000000000000000000000000000000000061106c565b611078565b92602063a9059cbb94613c5c7f0000000000000000000000000000000000000000000000000000000000000000613c39613c348789613c2e5f61144f565b916112c5565b6112da565b613c56613c51888a613c4b600161125c565b916112c5565b6112da565b91614617565b90613c945f613c7c613c778c613c718461144f565b90611377565b611397565b98613c9f613c886101bc565b9a8b9687958694611088565b8452600484016125d1565b03925af1908115613d7157613cc2613ccc92613cd2965f91613d43575b50612608565b8692939093611369565b906147e0565b34613cff613cf9613cf4613cef86613ce95f61144f565b90611377565b611397565b610208565b91610208565b11613d07575b565b613d3e613d13336110b9565b613d3834613d32613d2d87613d275f61144f565b90611377565b611397565b9061128c565b90613f21565b613d05565b613d64915060203d8111613d6a575b613d5c81836105c6565b8101906125b3565b5f613cbc565b503d613d52565b61109d565b613d95905f3d8111613d9b575b613d8d81836105c6565b81019061108e565b5f613bbe565b503d613d83565b61109d565b611084565b90613dc194939291613dbc611221565b613a36565b90565b613e0033613dfa613df47f00000000000000000000000000000000000000000000000000000000000000006101d9565b916101d9565b14612608565b565b63ffffffff1690565b63ffffffff60e01b1690565b613e2b613e26613e3092613e02565b611088565b613e0b565b90565b90613e7a613e7f93613e6b60049493613e5263a9059cbb919391613e17565b92613e5b6101bc565b96879460208601908152016125d1565b602082018103825203836105c6565b615740565b565b613e8a90611030565b90565b613e9690611030565b90565b905090565b613ea95f8092613e99565b0190565b613eb690613e9e565b90565b67ffffffffffffffff8111613ed757613ed36020916105a8565b0190565b6105b2565b90613eee613ee983613eb9565b6105ef565b918252565b606090565b3d5f14613f1357613f083d613edc565b903d5f602084013e5b565b613f1b613ef3565b90613f11565b613f2a30613e81565b31613f3d613f3784610208565b91610208565b10613f84575f91613f4e8392613e8d565b90613f576101bc565b9081613f6281613ead565b03925af1613f78613f71613ef8565b9115610716565b613f7f5750565b6157fb565b50613f8e30613e81565b31613fb0613f9a6101bc565b92839263cf47918160e01b84526004840161029f565b0390fd5b60207f4d4f554e54000000000000000000000000000000000000000000000000000000917f416d6d4c6962726172793a20494e53554646494349454e545f494e5055545f415f8201520152565b61400e6025604092610f55565b61401781613fb4565b0190565b6140309060208101905f818303910152614001565b90565b1561403a57565b6140426101bc565b62461bcd60e51b8152806140586004820161401b565b0390fd5b60207f5459000000000000000000000000000000000000000000000000000000000000917f416d6d4c6962726172793a20494e53554646494349454e545f4c4951554944495f8201520152565b6140b66022604092610f55565b6140bf8161405c565b0190565b6140d89060208101905f8183039101526140a9565b90565b156140e257565b6140ea6101bc565b62461bcd60e51b815280614100600482016140c3565b0390fd5b90565b61411b61411661412092614104565b611011565b610208565b90565b634e487b7160e01b5f52601260045260245ffd5b61414361414991610208565b91610208565b908115614154570490565b614123565b6141e7926141dc6141ca6141c36141e194614172610f51565b5061418f816141896141835f61144f565b91610208565b11614033565b866141a261419c5f61144f565b91610208565b11806141ea575b6141b2906140db565b6141bd612710614107565b9061587d565b928361587d565b936141d6612710614107565b9061587d565b615893565b90614137565b90565b506141b2856142016141fb5f61144f565b91610208565b1190506141a9565b5190565b90565b61422461421f6142299261420d565b611011565b610208565b90565b5f7f416d6d4c6962726172793a20494e56414c49445f504154480000000000000000910152565b6142606018602092610f55565b6142698161422c565b0190565b6142829060208101905f818303910152614253565b90565b1561428c57565b6142946101bc565b62461bcd60e51b8152806142aa6004820161426d565b0390fd5b67ffffffffffffffff81116142c65760208091020190565b6105b2565b906142dd6142d8836142ae565b6105ef565b918252565b369037565b9061430c6142f4836142cb565b9260208061430286936142ae565b92019103906142e2565b565b9061431890610208565b9052565b60016143289101610208565b90565b9061433582614209565b811015614346576020809102010190565b6112b1565b61435590516101d9565b90565b61436761436d91939293610208565b92610208565b820180921161437857565b611278565b92919092614389611221565b506143b061439683614209565b6143a96143a36002614210565b91610208565b1015614285565b6143dd6143c46143bf84614209565b6142e7565b946143d8866143d25f61144f565b90611377565b61430e565b6143e5610f51565b5b8061441461440e6144096143f987614209565b614403600161125c565b9061128c565b610208565b91610208565b10156144b1576144ac906144a76144826144678561443b61443689879061432b565b61434b565b61446161445c8a61445689614450600161125c565b90614358565b9061432b565b61434b565b916158a9565b61447a6144758b8790611377565b611397565b919091614159565b6144a2889161449b85614495600161125c565b90614358565b9092611377565b61430e565b61431c565b6143e6565b505050565b5f90565b60601b90565b6144c9906144ba565b90565b6144d5906144c0565b90565b6144e46144e9916101d9565b6144cc565b9052565b6014816144ff614507938396956144d8565b0180926144d8565b0190565b60200190565b5190565b905090565b5f60ff60f81b910152565b61453160018092614515565b61453a8161451a565b0190565b90565b61454d61455291610767565b61453e565b9052565b5f7fbcaebde6d8d9f3f74eac5c75fde2768390ff5ae0f8c78c71b8568e2d79036dc2910152565b61458960208092614515565b61459281614556565b0190565b916145bd60146020936145b56145ae6145c397614525565b80926144d8565b018092614541565b0161457d565b90565b5f1c90565b6145df6145da6145e492610208565b611011565b610208565b90565b6145f36145f8916145c6565b6145cb565b90565b61460f61460a61461492610208565b611011565b6101ce565b90565b61466561469f6146b79261463a6146c1966146bc966146346144b6565b506153a7565b939093919361465661464a6101bc565b938492602084016144ed565b602082018103825203826105c6565b61467761467182614511565b9161450b565b20916146906146846101bc565b93849260208401614596565b602082018103825203826105c6565b6146b16146ab82614511565b9161450b565b206145e7565b6145fb565b611030565b90565b6004926146fe614712959361470d93946146e56323b872dd92949192613e17565b936146ee6101bc565b97889560208701908152016130fa565b602082018103825203836105c6565b615740565b565b369037565b9061473e61472683613edc565b926020806147348693613eb9565b9201910390614714565b565b60209181520190565b5f5b83811061475b575050905f910152565b80602091830151818501520161474b565b61478b6147946020936147999361478281614511565b93848093614740565b95869101614749565b6105a8565b0190565b90926147d0906147c66147dd96946147bc60808601975f870190610292565b6020850190610292565b6040830190610b7f565b606081840391015261476c565b90565b909291926147ec610f51565b5b8061481b61481561481061480086614209565b61480a600161125c565b9061128c565b610208565b91610208565b1015614a375761483461482f83839061432b565b61434b565b9061485b614856846148508461484a600161125c565b90614358565b9061432b565b61434b565b916148678184906153a7565b509061488f61488a876148848661487e600161125c565b90614358565b90611377565b611397565b916148a361489d83926101d9565b916101d9565b145f14614a1f5761497a6149756149706148bc5f61144f565b5b9493866148ed6148e76148e26148d28d614209565b6148dc6002614210565b9061128c565b610208565b91610208565b105f14614a19576149457f00000000000000000000000000000000000000000000000000000000000000008961493f61493a8d6149348d61492e6002614210565b90614358565b9061432b565b61434b565b91614617565b5b977f0000000000000000000000000000000000000000000000000000000000000000919091614617565b6117a9565b6117b5565b63022c0d9f92919461499361498e5f61144f565b614719565b823b15614a14575f946149c486926149b9946149ad6101bc565b9a8b9889978896611088565b86526004860161479d565b03925af1918215614a0f576149de926149e3575b5061431c565b6147ed565b614a02905f3d8111614a08575b6149fa81836105c6565b81019061108e565b5f6149d8565b503d6149f0565b61109d565b611084565b8b614946565b61497a614975614970614a315f61144f565b946148bd565b5050509050565b614a4790610208565b5f8114614a55576001900390565b611278565b92919092614a66611221565b50614a8d614a7383614209565b614a86614a806002614210565b91610208565b1015614285565b614acf614aa1614a9c84614209565b6142e7565b94614aca8691614ac3614ab3896104cd565b614abd600161125c565b9061128c565b9092611377565b61430e565b614aeb614adb83614209565b614ae5600161125c565b9061128c565b5b80614aff614af95f61144f565b91610208565b1115614b9c57614b9790614b92614b6d614b5285614b39614b3489614b2e88614b28600161125c565b9061128c565b9061432b565b61434b565b614b4c614b478a889061432b565b61434b565b916158a9565b614b65614b608b8790611377565b611397565b9190916150b9565b614b8d8891614b8685614b80600161125c565b9061128c565b9092611377565b61430e565b614a3e565b614aec565b505050565b6dffffffffffffffffffffffffffff1690565b614bbd81614ba1565b03614bc457565b5f80fd5b90505190614bd582614bb4565b565b614be081613e02565b03614be757565b5f80fd5b90505190614bf882614bd7565b565b9091606082840312614c2f57614c2c614c15845f8501614bc8565b93614c238160208601614bc8565b93604001614beb565b90565b6101c6565b614c48614c43614c4d92614ba1565b611011565b610208565b90565b919091614c5b610f51565b5b80614c8a614c84614c7f614c6f86614209565b614c79600161125c565b9061128c565b610208565b91610208565b1015614ff557614ca3614c9e83839061432b565b61434b565b90614cca614cc584614cbf84614cb9600161125c565b90614358565b9061432b565b61434b565b91614cd68184906153a7565b5092614d0c614d077f0000000000000000000000000000000000000000000000000000000000000000848491614617565b6117a9565b93614d15610f51565b50614d1e610f51565b50614d436060614d2d876117b5565b630902f1ac90614d3b6101bc565b938492611088565b82528180614d5360048201610432565b03915afa8015614ff0575f80929091614fb6575b50614d74614d7a91614c34565b91614c34565b9084614d8e614d88856101d9565b916101d9565b145f14614fac57614ddf905b6020614dad614da888611054565b611ffe565b6370a0823190614dd4614dbf8c6117b5565b92614dc86101bc565b96879485938493611088565b835260048301610b8c565b03915afa908115614fa757614e1d93614e08614e1093614e17955f91614f79575b508390614ffb565b919091614159565b94926101d9565b916101d9565b145f14614f6a57614e2d5f61144f565b5b919083614e5e614e58614e53614e438a614209565b614e4d6002614210565b9061128c565b610208565b91610208565b105f14614f6057614eba614ec1917f000000000000000000000000000000000000000000000000000000000000000090614eb4614eaf8a614ea98a614ea36002614210565b90614358565b9061432b565b61434b565b91614617565b5b946117b5565b63022c0d9f929194614eda614ed55f61144f565b614719565b823b15614f5b575f94614f0b8692614f0094614ef46101bc565b9a8b9889978896611088565b86526004860161479d565b03925af1918215614f5657614f2592614f2a575b5061431c565b614c5c565b614f49905f3d8111614f4f575b614f4181836105c6565b81019061108e565b5f614f1f565b503d614f37565b61109d565b611084565b50614ec187614ebb565b614f735f61144f565b91614e2e565b614f9a915060203d8111614fa0575b614f9281836105c6565b810190612019565b5f614e00565b503d614f88565b61109d565b90614ddf90614d9a565b614d749250614d7a9150614fe09060603d8111614fe9575b614fd881836105c6565b810190614bfa565b50925090614d67565b503d614fce565b61109d565b50509050565b9061500e91615008610f51565b5061128c565b90565b60207f414d4f554e540000000000000000000000000000000000000000000000000000917f416d6d4c6962726172793a20494e53554646494349454e545f4f55545055545f5f8201520152565b61506b6026604092610f55565b61507481615011565b0190565b61508d9060208101905f81830391015261505e565b90565b1561509757565b61509f6101bc565b62461bcd60e51b8152806150b560048201615078565b0390fd5b9161514561513461515b9461512e61511d61514b966150d6610f51565b506150f3846150ed6150e75f61144f565b91610208565b11615090565b806151066151005f61144f565b91610208565b118061515e575b615116906140db565b839061587d565b615128612710614107565b9061587d565b93614ffb565b61513f612710614107565b9061587d565b90614137565b615155600161125c565b90615893565b90565b506151168761517561516f5f61144f565b91610208565b11905061510d565b5f7f416d6d4c6962726172793a20494e53554646494349454e545f414d4f554e5400910152565b6151b1601f602092610f55565b6151ba8161517d565b0190565b6151d39060208101905f8183039101526151a4565b90565b156151dd57565b6151e56101bc565b62461bcd60e51b8152806151fb600482016151be565b0390fd5b615259926152549161520f610f51565b5061522c816152266152205f61144f565b91610208565b116151d6565b8361523f6152395f61144f565b91610208565b118061525c575b61524f906140db565b61587d565b614137565b90565b5061524f8261527361526d5f61144f565b91610208565b119050615246565b5f7f416d6d4c6962726172793a204944454e544943414c5f41444452455353455300910152565b6152af601f602092610f55565b6152b88161527b565b0190565b6152d19060208101905f8183039101526152a2565b90565b156152db57565b6152e36101bc565b62461bcd60e51b8152806152f9600482016152bc565b0390fd5b61531161530c6153169261144c565b611011565b6101ce565b90565b615322906152fd565b90565b5f7f416d6d4c6962726172793a205a45524f5f414444524553530000000000000000910152565b6153596018602092610f55565b61536281615325565b0190565b61537b9060208101905f81830391015261534c565b90565b1561538557565b61538d6101bc565b62461bcd60e51b8152806153a360048201615366565b0390fd5b6153af6144b6565b506153b86144b6565b506153d6816153cf6153c9856101d9565b916101d9565b14156152d4565b806153e96153e3846101d9565b916101d9565b105f1461541b57905b90916154198361541261540c6154075f615319565b6101d9565b916101d9565b141561537e565b565b6153f2565b61542990611014565b90565b61543590615420565b90565b61544190611030565b90565b90505190615451826101e5565b565b9060208282031261546c57615469915f01615444565b90565b6101c6565b91602061549292949361548b60408201965f830190610b7f565b0190610b7f565b565b94919392946154a1610f51565b506154aa610f51565b506154dc6154d77f000000000000000000000000000000000000000000000000000000000000000061542c565b615438565b602063e6a43905918390615502869461550d6154f66101bc565b96879586948594611088565b845260048401615471565b03915afa90811561573b575f9161570d575b5061553a61553461552f5f615319565b6101d9565b916101d9565b1461565c575b61556d917f00000000000000000000000000000000000000000000000000000000000000009190916158a9565b9290928361558361557d5f61144f565b91610208565b1480615642575b5f146155985750505050915b565b6155a885969394968783916151ff565b95866155bc6155b686610208565b91610208565b11155f146155ed57505050506155e6906155df6155d98592610208565b91610208565b1015613232565b915b615596565b83965061563c9450906156079161562293949190916151ff565b9361561b6156158692610208565b91610208565b1115612608565b61563561562f8492610208565b91610208565b10156131b1565b916155e8565b50806156566156505f61144f565b91610208565b1461558a565b61568d6156887f000000000000000000000000000000000000000000000000000000000000000061542c565b615438565b91602063c9c653969383906156b55f85976156c06156a96101bc565b998a9687958694611088565b845260048401615471565b03925af19283156157085761556d936156dc575b509150615540565b6156fc9060203d8111615701575b6156f481836105c6565b810190615453565b6156d4565b503d6156ea565b61109d565b61572e915060203d8111615734575b61572681836105c6565b810190615453565b5f61551f565b503d61571c565b61109d565b905f60209161574d610f51565b50615756610f51565b50828151910182855af1156157f0573d5f519061577b6157755f61144f565b91610208565b145f146157d6575061578c81611ffe565b3b61579f6157995f61144f565b91610208565b145b6157a85750565b6157b46157d291611ffe565b6157bc6101bc565b918291635274afe760e01b835260048301610b8c565b0390fd5b6157e96157e3600161125c565b91610208565b14156157a1565b6040513d5f823e3d90fd5b61580481614511565b6158166158105f61144f565b91610208565b115f1461582557805190602001fd5b61582d6101bc565b63d6bda27560e01b81528061584460048201610432565b0390fd5b61585761585d91939293610208565b92610208565b91615869838202610208565b92818404149015171561587857565b611278565b906158909161588a610f51565b50615848565b90565b906158a6916158a0610f51565b50614358565b90565b60606158f86158f36158ee61590e95966158c1610f51565b506158ca610f51565b506158d68882906153a7565b50956158e4818a8491614617565b5090889091614617565b6117a9565b6117b5565b630902f1ac906159066101bc565b948592611088565b8252818061591e60048201610432565b03915afa80156159ac575f8093909161596a575b5061595261594b61594561595893614c34565b94614c34565b94926101d9565b916101d9565b145f1461596557905b9091565b615961565b6159459350615958915061594b61599a6159529260603d81116159a5575b61599281836105c6565b810190614bfa565b509550925050615932565b503d615988565b61109d56fea2646970667358221220a5d1e3c51ffc06dd4229cd019a48d26da9b1f2b1ca640ee635d2ac1c0d1b87ad64736f6c63430008170033","linkReferences":{}},"methodIdentifiers":{"WETH()":"ad5c4648","addLiquidity(address,address,uint256,uint256,uint256,uint256,address,uint256)":"e8e33700","addLiquidityETH(address,uint256,uint256,uint256,address,uint256)":"f305d719","factory()":"c45a0155","feeSwapExactTokensForTokens(uint256,uint256,address[],address)":"0ba44643","getAmountIn(uint256,uint256,uint256)":"85f8c259","getAmountOut(uint256,uint256,uint256)":"054d50d4","getAmountsIn(uint256,address[])":"1f00ca74","getAmountsOut(uint256,address[])":"d06ca61f","quote(uint256,uint256,uint256)":"ad615dec","removeLiquidity(address,address,uint256,uint256,uint256,address,uint256)":"baa2abde","removeLiquidityETH(address,uint256,uint256,uint256,address,uint256)":"02751cec","removeLiquidityETHSupportingFeeOnTransferTokens(address,uint256,uint256,uint256,address,uint256)":"af2979eb","removeLiquidityETHWithPermit(address,uint256,uint256,uint256,address,uint256,bool,uint8,bytes32,bytes32)":"ded9382a","removeLiquidityETHWithPermitSupportingFeeOnTransferTokens(address,uint256,uint256,uint256,address,uint256,bool,uint8,bytes32,bytes32)":"5b0d5984","removeLiquidityWithPermit(address,address,uint256,uint256,uint256,address,uint256,bool,uint8,bytes32,bytes32)":"2195995c","swapETHForExactTokens(uint256,address[],address,uint256)":"fb3bdb41","swapExactETHForTokens(uint256,address[],address,uint256)":"7ff36ab5","swapExactETHForTokensSupportingFeeOnTransferTokens(uint256,address[],address,uint256)":"b6f9de95","swapExactTokensForETH(uint256,uint256,address[],address,uint256)":"18cbafe5","swapExactTokensForETHSupportingFeeOnTransferTokens(uint256,uint256,address[],address,uint256)":"791ac947","swapExactTokensForTokens(uint256,uint256,address[],address,uint256)":"38ed1739","swapExactTokensForTokensSupportingFeeOnTransferTokens(uint256,uint256,address[],address,uint256)":"5c11d795","swapTokensForExactETH(uint256,uint256,address[],address,uint256)":"4a25d94a","swapTokensForExactTokens(uint256,uint256,address[],address,uint256)":"8803dbee"},"id":76}