{"abi":[{"type":"constructor","inputs":[{"name":"_WBNBAddress","type":"address","internalType":"address"},{"name":"_pancakeRouter","type":"address","internalType":"address"},{"name":"_owner","type":"address","internalType":"address"},{"name":"_maxZapReverseRatio","type":"uint256","internalType":"uint256"}],"stateMutability":"nonpayable"},{"type":"receive","stateMutability":"payable"},{"type":"function","name":"MAX_INT","inputs":[],"outputs":[{"name":"","type":"uint256","internalType":"uint256"}],"stateMutability":"view"},{"type":"function","name":"MINIMUM_AMOUNT","inputs":[],"outputs":[{"name":"","type":"uint256","internalType":"uint256"}],"stateMutability":"view"},{"type":"function","name":"WBNB","inputs":[],"outputs":[{"name":"","type":"address","internalType":"contract IWETH"}],"stateMutability":"view"},{"type":"function","name":"estimateZapInRebalancingSwap","inputs":[{"name":"_token0ToZap","type":"address","internalType":"address"},{"name":"_token1ToZap","type":"address","internalType":"address"},{"name":"_token0AmountIn","type":"uint256","internalType":"uint256"},{"name":"_token1AmountIn","type":"uint256","internalType":"uint256"},{"name":"_lpToken","type":"address","internalType":"address"}],"outputs":[{"name":"swapAmountIn","type":"uint256","internalType":"uint256"},{"name":"swapAmountOut","type":"uint256","internalType":"uint256"},{"name":"sellToken0","type":"bool","internalType":"bool"}],"stateMutability":"view"},{"type":"function","name":"estimateZapInSwap","inputs":[{"name":"_tokenToZap","type":"address","internalType":"address"},{"name":"_tokenAmountIn","type":"uint256","internalType":"uint256"},{"name":"_lpToken","type":"address","internalType":"address"}],"outputs":[{"name":"swapAmountIn","type":"uint256","internalType":"uint256"},{"name":"swapAmountOut","type":"uint256","internalType":"uint256"},{"name":"swapTokenOut","type":"address","internalType":"address"}],"stateMutability":"view"},{"type":"function","name":"estimateZapOutSwap","inputs":[{"name":"_lpToken","type":"address","internalType":"address"},{"name":"_lpTokenAmount","type":"uint256","internalType":"uint256"},{"name":"_tokenToReceive","type":"address","internalType":"address"}],"outputs":[{"name":"swapAmountIn","type":"uint256","internalType":"uint256"},{"name":"swapAmountOut","type":"uint256","internalType":"uint256"},{"name":"swapTokenOut","type":"address","internalType":"address"}],"stateMutability":"view"},{"type":"function","name":"maxZapReverseRatio","inputs":[],"outputs":[{"name":"","type":"uint256","internalType":"uint256"}],"stateMutability":"view"},{"type":"function","name":"owner","inputs":[],"outputs":[{"name":"","type":"address","internalType":"address"}],"stateMutability":"view"},{"type":"function","name":"pancakeRouter","inputs":[],"outputs":[{"name":"","type":"address","internalType":"contract IAmmRouter02"}],"stateMutability":"view"},{"type":"function","name":"recoverWrongTokens","inputs":[{"name":"_tokenAddress","type":"address","internalType":"address"},{"name":"_tokenAmount","type":"uint256","internalType":"uint256"}],"outputs":[],"stateMutability":"nonpayable"},{"type":"function","name":"renounceOwnership","inputs":[],"outputs":[],"stateMutability":"nonpayable"},{"type":"function","name":"transferOwnership","inputs":[{"name":"newOwner","type":"address","internalType":"address"}],"outputs":[],"stateMutability":"nonpayable"},{"type":"function","name":"updateMaxZapInverseRatio","inputs":[{"name":"_maxZapInverseRatio","type":"uint256","internalType":"uint256"}],"outputs":[],"stateMutability":"nonpayable"},{"type":"function","name":"zapInBNB","inputs":[{"name":"_lpToken","type":"address","internalType":"address"},{"name":"_tokenAmountOutMin","type":"uint256","internalType":"uint256"}],"outputs":[],"stateMutability":"payable"},{"type":"function","name":"zapInBNBRebalancing","inputs":[{"name":"_token1ToZap","type":"address","internalType":"address"},{"name":"_token1AmountIn","type":"uint256","internalType":"uint256"},{"name":"_lpToken","type":"address","internalType":"address"},{"name":"_tokenAmountInMax","type":"uint256","internalType":"uint256"},{"name":"_tokenAmountOutMin","type":"uint256","internalType":"uint256"},{"name":"_isToken0Sold","type":"bool","internalType":"bool"}],"outputs":[],"stateMutability":"payable"},{"type":"function","name":"zapInToken","inputs":[{"name":"_tokenToZap","type":"address","internalType":"address"},{"name":"_tokenAmountIn","type":"uint256","internalType":"uint256"},{"name":"_lpToken","type":"address","internalType":"address"},{"name":"_tokenAmountOutMin","type":"uint256","internalType":"uint256"}],"outputs":[],"stateMutability":"nonpayable"},{"type":"function","name":"zapInTokenRebalancing","inputs":[{"name":"_token0ToZap","type":"address","internalType":"address"},{"name":"_token1ToZap","type":"address","internalType":"address"},{"name":"_token0AmountIn","type":"uint256","internalType":"uint256"},{"name":"_token1AmountIn","type":"uint256","internalType":"uint256"},{"name":"_lpToken","type":"address","internalType":"address"},{"name":"_tokenAmountInMax","type":"uint256","internalType":"uint256"},{"name":"_tokenAmountOutMin","type":"uint256","internalType":"uint256"},{"name":"_isToken0Sold","type":"bool","internalType":"bool"}],"outputs":[],"stateMutability":"nonpayable"},{"type":"function","name":"zapOutBNB","inputs":[{"name":"_lpToken","type":"address","internalType":"address"},{"name":"_lpTokenAmount","type":"uint256","internalType":"uint256"},{"name":"_tokenAmountOutMin","type":"uint256","internalType":"uint256"}],"outputs":[],"stateMutability":"nonpayable"},{"type":"function","name":"zapOutToken","inputs":[{"name":"_lpToken","type":"address","internalType":"address"},{"name":"_tokenToReceive","type":"address","internalType":"address"},{"name":"_lpTokenAmount","type":"uint256","internalType":"uint256"},{"name":"_tokenAmountOutMin","type":"uint256","internalType":"uint256"}],"outputs":[],"stateMutability":"nonpayable"},{"type":"event","name":"AdminTokenRecovery","inputs":[{"name":"tokenAddress","type":"address","indexed":true,"internalType":"address"},{"name":"amountTokens","type":"uint256","indexed":false,"internalType":"uint256"}],"anonymous":false},{"type":"event","name":"NewMaxZapReverseRatio","inputs":[{"name":"maxZapReverseRatio","type":"uint256","indexed":false,"internalType":"uint256"}],"anonymous":false},{"type":"event","name":"OwnershipTransferred","inputs":[{"name":"previousOwner","type":"address","indexed":true,"internalType":"address"},{"name":"newOwner","type":"address","indexed":true,"internalType":"address"}],"anonymous":false},{"type":"event","name":"ZapIn","inputs":[{"name":"tokenToZap","type":"address","indexed":true,"internalType":"address"},{"name":"lpToken","type":"address","indexed":true,"internalType":"address"},{"name":"tokenAmountIn","type":"uint256","indexed":false,"internalType":"uint256"},{"name":"lpTokenAmountReceived","type":"uint256","indexed":false,"internalType":"uint256"},{"name":"user","type":"address","indexed":true,"internalType":"address"}],"anonymous":false},{"type":"event","name":"ZapInRebalancing","inputs":[{"name":"token0ToZap","type":"address","indexed":true,"internalType":"address"},{"name":"token1ToZap","type":"address","indexed":true,"internalType":"address"},{"name":"lpToken","type":"address","indexed":false,"internalType":"address"},{"name":"token0AmountIn","type":"uint256","indexed":false,"internalType":"uint256"},{"name":"token1AmountIn","type":"uint256","indexed":false,"internalType":"uint256"},{"name":"lpTokenAmountReceived","type":"uint256","indexed":false,"internalType":"uint256"},{"name":"user","type":"address","indexed":true,"internalType":"address"}],"anonymous":false},{"type":"event","name":"ZapOut","inputs":[{"name":"lpToken","type":"address","indexed":true,"internalType":"address"},{"name":"tokenToReceive","type":"address","indexed":true,"internalType":"address"},{"name":"lpTokenAmount","type":"uint256","indexed":false,"internalType":"uint256"},{"name":"tokenAmountReceived","type":"uint256","indexed":false,"internalType":"uint256"},{"name":"user","type":"address","indexed":true,"internalType":"address"}],"anonymous":false},{"type":"error","name":"OwnableInvalidOwner","inputs":[{"name":"owner","type":"address","internalType":"address"}]},{"type":"error","name":"OwnableUnauthorizedAccount","inputs":[{"name":"account","type":"address","internalType":"address"}]},{"type":"error","name":"ReentrancyGuardReentrantCall","inputs":[]},{"type":"error","name":"SafeERC20FailedOperation","inputs":[{"name":"token","type":"address","internalType":"address"}]}],"bytecode":{"object":"0x6080604052346200003b5762000022620000186200016d565b929190916200032b565b6200002c62000041565b6155b46200054d82396155b490f35b62000047565b60405190565b5f80fd5b601f801991011690565b634e487b7160e01b5f52604160045260245ffd5b9062000075906200004b565b810190811060018060401b038211176200008e57604052565b62000055565b90620000ab620000a362000041565b928362000069565b565b5f80fd5b60018060a01b031690565b620000c790620000b1565b90565b620000d581620000bc565b03620000dd57565b5f80fd5b90505190620000f082620000ca565b565b90565b6200010081620000f2565b036200010857565b5f80fd5b905051906200011b82620000f5565b565b608081830312620001675762000136825f8301620000e1565b92620001646200014a8460208501620000e1565b936200015a8160408601620000e1565b936060016200010c565b90565b620000ad565b6200019062005b0180380380620001848162000094565b9283398101906200011d565b90919293565b5f1b90565b90620001ae60018060a01b039162000196565b9181191691161790565b90565b620001d4620001ce620001da92620000b1565b620001b8565b620000b1565b90565b620001e890620001bb565b90565b620001f690620001dd565b90565b90565b9062000216620002106200021e92620001eb565b620001f9565b82546200019b565b9055565b6200022d90620001bb565b90565b6200023b9062000222565b90565b620002499062000222565b90565b90565b90620002696200026362000271926200023e565b6200024c565b82546200019b565b9055565b6200028090620001bb565b90565b6200028e9062000275565b90565b6200029c9062000275565b90565b90565b90620002bc620002b6620002c49262000291565b6200029f565b82546200019b565b9055565b90620002d65f199162000196565b9181191691161790565b620002f9620002f3620002ff92620000f2565b620001b8565b620000f2565b90565b90565b906200031f620003196200032792620002e0565b62000302565b8254620002c8565b9055565b620003839162000368620003606200037b936200034d6200038b9897620003c1565b6200035a816006620001fc565b62000230565b60026200024f565b62000375816005620001fc565b62000283565b6003620002a2565b600462000305565b565b90565b620003a9620003a3620003af926200038d565b620001b8565b620000f2565b90565b620003be600162000390565b90565b620003cc906200043d565b620003e2620003da620003b2565b600162000305565b565b90565b62000400620003fa6200040692620003e4565b620001b8565b620000b1565b90565b6200041490620003e7565b90565b6200042290620000bc565b9052565b91906200043b905f6020850194019062000417565b565b806200045e62000457620004515f62000409565b620000bc565b91620000bc565b1462000471576200046f90620004e1565b565b620004a1620004805f62000409565b6200048a62000041565b918291631e4fbdf760e01b83526004830162000426565b0390fd5b5f1c90565b60018060a01b031690565b620004c4620004ca91620004a5565b620004aa565b90565b620004d99054620004b5565b90565b5f0190565b620004ec5f620004cd565b620004f8825f620001fc565b9062000530620005297f8be0079c531659141344cd1fd0a4f28419497f9722a3daafe3b4186f6b6457e093620001eb565b91620001eb565b916200053b62000041565b806200054781620004dc565b0390a356fe6080604052600436101561001d575b36610b075761001b6129f5565b005b6100275f35610156565b8063098d3228146101515780630f4e4e631461014c578063257d9bb8146101475780632b4652eb146101425780632f883da41461013d5780633b0a48bb146101385780633f138d4b146101335780635cb88a3f1461012e5780635fcbdaed14610129578063715018a61461012457806382c98b2d1461011f57806384b731151461011a57806387e3f21c146101155780638da5cb5b146101105780638dd950021461010b578063b421e91e14610106578063c21ebd0714610101578063e3ceb16b146100fc5763f2fde38b0361000e57610ad4565b610a86565b6109ed565b610942565b610869565b61079e565b610752565b6106d5565b610653565b610586565b610552565b6104ee565b6104ba565b610454565b61041b565b610335565b6102b6565b610249565b6101d8565b60e01c90565b60405190565b5f80fd5b5f80fd5b5f91031261017457565b610166565b90565b90565b90565b61019661019161019b92610179565b61017f565b61017c565b90565b6101a85f19610182565b90565b6101b361019e565b90565b6101bf9061017c565b9052565b91906101d6905f602085019401906101b6565b565b34610208576101e836600461016a565b6102046101f36101ab565b6101fb61015c565b918291826101c3565b0390f35b610162565b1c90565b90565b610224906008610229930261020d565b610211565b90565b906102379154610214565b90565b61024660045f9061022c565b90565b346102795761025936600461016a565b61027561026461023a565b61026c61015c565b918291826101c3565b0390f35b610162565b90565b61029561029061029a9261027e565b61017f565b61017c565b90565b6102a86103e8610281565b90565b6102b361029d565b90565b346102e6576102c636600461016a565b6102e26102d16102ab565b6102d961015c565b918291826101c3565b0390f35b610162565b5f80fd5b6102f88161017c565b036102ff57565b5f80fd5b90503590610310826102ef565b565b9060208282031261032b57610328915f01610303565b90565b610166565b5f0190565b346103635761034d610348366004610312565b610bbe565b61035561015c565b8061035f81610330565b0390f35b610162565b60018060a01b031690565b61037c90610368565b90565b61038881610373565b0361038f57565b5f80fd5b905035906103a08261037f565b565b90916060828403126103d7576103d46103bd845f8501610393565b936103cb8160208601610303565b93604001610393565b90565b610166565b6103e590610373565b9052565b604090610412610419949695939661040860608401985f8501906101b6565b60208301906101b6565b01906103dc565b565b3461044f5761044b6104376104313660046103a2565b91610eca565b61044293919361015c565b938493846103e9565b0390f35b610162565b346104885761048461047061046a3660046103a2565b916113e2565b61047b93919361015c565b938493846103e9565b0390f35b610162565b91906040838203126104b557806104a96104b2925f8601610393565b93602001610303565b90565b610166565b346104e9576104d36104cd36600461048d565b906117d7565b6104db61015c565b806104e581610330565b0390f35b610162565b6105026104fc36600461048d565b90611985565b61050a61015c565b8061051481610330565b0390f35b909160608284031261054d5761054a610533845f8501610393565b936105418160208601610303565b93604001610303565b90565b610166565b346105815761056b610565366004610518565b91611c42565b61057361015c565b8061057d81610330565b0390f35b610162565b346105b45761059636600461016a565b61059e611c9c565b6105a661015c565b806105b081610330565b0390f35b610162565b919060a08382031261060a576105d1815f8501610393565b926105df8260208301610393565b926106076105f08460408501610303565b936105fe8160608601610303565b93608001610393565b90565b610166565b151590565b61061d9061060f565b9052565b60409061064a610651949695939661064060608401985f8501906101b6565b60208301906101b6565b0190610614565b565b3461068a576106866106726106693660046105b9565b93929092611e30565b61067d93919361015c565b93849384610621565b0390f35b610162565b6080818303126106d0576106a5825f8301610393565b926106cd6106b68460208501610393565b936106c48160408601610303565b93606001610303565b90565b610166565b34610707576106f16106e836600461068f565b929190916125ef565b6106f961015c565b8061070381610330565b0390f35b610162565b60808183031261074d57610722825f8301610393565b9261074a6107338460208501610303565b936107418160408601610393565b93606001610303565b90565b610166565b346107845761076e61076536600461070c565b929190916126b2565b61077661015c565b8061078081610330565b0390f35b610162565b919061079c905f602085019401906103dc565b565b346107ce576107ae36600461016a565b6107ca6107b96126c0565b6107c161015c565b91829182610789565b0390f35b610162565b60018060a01b031690565b6107ee9060086107f3930261020d565b6107d3565b90565b9061080191546107de565b90565b61081060025f906107f6565b90565b61082761082261082c92610368565b61017f565b610368565b90565b61083890610813565b90565b6108449061082f565b90565b6108509061083b565b9052565b9190610867905f60208501940190610847565b565b346108995761087936600461016a565b610895610884610804565b61088c61015c565b91829182610854565b0390f35b610162565b6108a78161060f565b036108ae57565b5f80fd5b905035906108bf8261089e565b565b91906101008382031261093d576108da815f8501610393565b926108e88260208301610393565b926108f68360408401610303565b926109048160608501610303565b926109128260808301610393565b9261093a6109238460a08501610303565b936109318160c08601610303565b9360e0016108b2565b90565b610166565b3461097a576109646109553660046108c1565b969590959491949392936127ea565b61096c61015c565b8061097681610330565b0390f35b610162565b60018060a01b031690565b61099a90600861099f930261020d565b61097f565b90565b906109ad915461098a565b90565b6109bc60035f906109a2565b90565b6109c89061082f565b90565b6109d4906109bf565b9052565b91906109eb905f602085019401906109cb565b565b34610a1d576109fd36600461016a565b610a19610a086109b0565b610a1061015c565b918291826109d8565b0390f35b610162565b909160c082840312610a8157610a3a835f8401610393565b92610a488160208501610303565b92610a568260408301610393565b92610a7e610a678460608501610303565b93610a758160808601610303565b9360a0016108b2565b90565b610166565b610aa0610a94366004610a22565b9493909392919261294e565b610aa861015c565b80610ab281610330565b0390f35b90602082820312610acf57610acc915f01610393565b90565b610166565b34610b0257610aec610ae7366004610ab6565b6129ca565b610af461015c565b80610afe81610330565b0390f35b610162565b5f80fd5b610b1c90610b17612a1c565b610b78565b565b5f1b90565b90610b2f5f1991610b1e565b9181191691161790565b610b4d610b48610b529261017c565b61017f565b61017c565b90565b90565b90610b6d610b68610b7492610b39565b610b55565b8254610b23565b9055565b610b83816004610b58565b610bb97fc7e29c44236bfea8bef0d337e382f5f27ec5bc4d425d82437f115f9b59d2ba7991610bb061015c565b918291826101c3565b0390a1565b610bc790610b0b565b565b5f90565b5f90565b610bda90610813565b90565b610be690610bd1565b90565b610bf29061082f565b90565b5f80fd5b601f801991011690565b634e487b7160e01b5f52604160045260245ffd5b90610c2190610bf9565b810190811067ffffffffffffffff821117610c3b57604052565b610c03565b60e01b90565b90505190610c538261037f565b565b90602082820312610c6e57610c6b915f01610c46565b90565b610166565b610c7b61015c565b3d5f823e3d90fd5b60209181520190565b5f7f5a61703a20546f6b656e206e6f7420696e204c50000000000000000000000000910152565b610cc06014602092610c83565b610cc981610c8c565b0190565b610ce29060208101905f818303910152610cb3565b90565b15610cec57565b610cf461015c565b62461bcd60e51b815280610d0a60048201610ccd565b0390fd5b6dffffffffffffffffffffffffffff1690565b610d2a81610d0e565b03610d3157565b5f80fd5b90505190610d4282610d21565b565b63ffffffff1690565b610d5681610d44565b03610d5d57565b5f80fd5b90505190610d6e82610d4d565b565b9091606082840312610da557610da2610d8b845f8501610d35565b93610d998160208601610d35565b93604001610d61565b90565b610166565b610dbe610db9610dc392610d0e565b61017f565b61017c565b90565b634e487b7160e01b5f52601160045260245ffd5b610de9610def9193929361017c565b9261017c565b91610dfb83820261017c565b928184041490151715610e0a57565b610dc6565b90505190610e1c826102ef565b565b90602082820312610e3757610e34915f01610e0f565b90565b610166565b634e487b7160e01b5f52601260045260245ffd5b610e5c610e629161017c565b9161017c565b908115610e6d570490565b610e3c565b5f1c90565b610e83610e8891610e72565b61097f565b90565b610e959054610e77565b90565b604090610ec1610ec89496959396610eb760608401985f8501906101b6565b60208301906101b6565b01906101b6565b565b91610f15939192610ed9610bc9565b50610ee2610bc9565b50610eeb610bcd565b506020610eff610efa83610bdd565b610be9565b630dfe168190610f0d61015c565b978892610c40565b82528180610f2560048201610330565b03915afa801561135b57610f65955f9161132d575b50936020610f4f610f4a84610bdd565b610be9565b63d21220a790610f5d61015c565b988992610c40565b82528180610f7560048201610330565b03915afa801561132857610fd8965f916112fa575b5083610f9e610f9888610373565b91610373565b1480156112db575b610faf90610ce5565b6060610fc2610fbd85610bdd565b610be9565b630902f1ac90610fd061015c565b998a92610c40565b82528180610fe860048201610330565b03915afa80156112d6575f8098909161129c575b5061100961100f91610daa565b97610daa565b9361102361101d8392610373565b91610373565b145f14611163575090602061104d611048611042611063958a90610dda565b93610bdd565b610be9565b6318160ddd9061105b61015c565b948592610c40565b8252818061107360048201610330565b03915afa91821561115e5760209261109e92611096925f9261112f575b50610e50565b868491612ada565b946110b16110ac6003610e8b565b6109bf565b6110d363054d50d46110de8994966110c761015c565b97889687958695610c40565b855260048501610e98565b03915afa90811561112a575f916110fc575b5091925b919291929190565b61111d915060203d8111611123575b6111158183610c17565b810190610e1e565b5f6110f0565b503d61110b565b610c73565b611150919250853d8111611157575b6111488183610c17565b810190610e1e565b905f611090565b503d61113e565b610c73565b945090602061118a61118561117f6111a0959996998a90610dda565b93610bdd565b610be9565b6318160ddd9061119861015c565b948592610c40565b825281806111b060048201610330565b03915afa918215611297576020926111db926111d3925f92611268575b50610e50565b868491612ada565b946111ee6111e96003610e8b565b6109bf565b61121063054d50d461121b89949661120461015c565b97889687958695610c40565b855260048501610e98565b03915afa908115611263575f91611235575b5091926110f4565b611256915060203d811161125c575b61124e8183610c17565b810190610e1e565b5f61122d565b503d611244565b610c73565b611289919250853d8111611290575b6112818183610c17565b810190610e1e565b905f6111cd565b503d611277565b610c73565b611009985061100f91506112c69060603d81116112cf575b6112be8183610c17565b810190610d70565b50985090610ffc565b503d6112b4565b610c73565b50610faf846112f26112ec84610373565b91610373565b149050610fa6565b61131b915060203d8111611321575b6113138183610c17565b810190610c55565b5f610f8a565b503d611309565b610c73565b61134e915060203d8111611354575b6113468183610c17565b810190610c55565b5f610f3a565b503d61133c565b610c73565b5f7f5a61703a2057726f6e6720746f6b656e73000000000000000000000000000000910152565b6113946011602092610c83565b61139d81611360565b0190565b6113b69060208101905f818303910152611387565b90565b156113c057565b6113c861015c565b62461bcd60e51b8152806113de600482016113a1565b0390fd5b61142d929391936113f1610bc9565b506113fa610bc9565b50611403610bcd565b50602061141761141283610bdd565b610be9565b630dfe16819061142561015c565b968792610c40565b8252818061143d60048201610330565b03915afa80156117425761147c945f91611714575b50602061146661146184610bdd565b610be9565b63d21220a79061147461015c565b978892610c40565b8252818061148c60048201610330565b03915afa94851561170f576114db6114d66114f1976060935f916116e1575b5094866114c06114ba87610373565b91610373565b1480156116c2575b6114d1906113b9565b610bdd565b610be9565b630902f1ac906114e961015c565b978892610c40565b8252818061150160048201610330565b03915afa80156116bd575f80969091611683575b5061152261152891610daa565b95610daa565b9261153c6115368392610373565b91610373565b145f146115e3575061155360209195858491612ada565b936115666115616003610e8b565b6109bf565b61158863054d50d461159388949661157c61015c565b97889687958695610c40565b855260048501610e98565b03915afa9081156115de575f916115b0575b50915b919291929190565b6115d1915060203d81116115d7575b6115c98183610c17565b810190610e1e565b5f6115a5565b503d6115bf565b610c73565b602091506115f79094929495858491612ada565b9361160a6116056003610e8b565b6109bf565b61162c63054d50d461163788949661162061015c565b97889687958695610c40565b855260048501610e98565b03915afa90811561167e575f91611650575b50916115a8565b611671915060203d8111611677575b6116698183610c17565b810190610e1e565b5f611649565b503d61165f565b610c73565b611522965061152891506116ad9060603d81116116b6575b6116a58183610c17565b810190610d70565b50965090611515565b503d61169b565b610c73565b506114d1876116d96116d389610373565b91610373565b1490506114c8565b611702915060203d8111611708575b6116fa8183610c17565b810190610c55565b5f6114ab565b503d6116f0565b610c73565b611735915060203d811161173b575b61172d8183610c17565b810190610c55565b5f611452565b503d611723565b610c73565b9061175991611754612a1c565b61177f565b565b61176490610813565b90565b6117709061175b565b90565b61177c9061082f565b90565b61179361178b82611767565b338491612ca8565b6117d26117c07f74545154aac348a3eac92596bd1971957ca94795f4e954ec5f613b55fab7812992611773565b926117c961015c565b918291826101c3565b0390a2565b906117e191611747565b565b906117f5916117f0612d24565b61187e565b6117fd612daf565b565b61180b61181091610e72565b6107d3565b90565b61181d90546117ff565b90565b5f91031261182a57565b610166565b60018060a01b031690565b61184661184b91610e72565b61182f565b90565b611858905461183a565b90565b91602061187c92949361187560408201965f8301906101b6565b01906101b6565b565b9061189161188c6002611813565b61083b565b9063d0e30db0349290813b15611980575f916118b9916118af61015c565b9586938492610c40565b8252816118c860048201610330565b03925af191821561197b576118f19261194f575b506118e7600661184e565b9034849192613294565b905f90349291339261193561192f6119297fa71185a0ff368de4e9e445d8601c4fbd50d9b674e4e43f5f8feafb8d64a2e13e94611773565b94611773565b94611773565b9461194a61194161015c565b9283928361185b565b0390a4565b61196e905f3d8111611974575b6119668183610c17565b810190611820565b5f6118dc565b503d61195c565b610c73565b610bf5565b9061198f916117e3565b565b906119a4929161199f612d24565b611af8565b6119ac612daf565b565b90565b6119c56119c06119ca926119ae565b61017f565b61017c565b90565b906119e06119d961015c565b9283610c17565b565b67ffffffffffffffff8111611a00576119fc602091610bf9565b0190565b610c03565b90611a17611a12836119e2565b6119cd565b918252565b369037565b90611a46611a2e83611a05565b92602080611a3c86936119e2565b9201910390611a1c565b565b606090565b3d5f14611a6857611a5d3d611a05565b903d5f602084013e5b565b611a70611a48565b90611a66565b5f7f424e423a207472616e73666572206661696c0000000000000000000000000000910152565b611aaa6012602092610c83565b611ab381611a76565b0190565b611acc9060208101905f818303910152611a9d565b90565b15611ad657565b611ade61015c565b62461bcd60e51b815280611af460048201611ab7565b0390fd5b91611b2690611b13611b0985611767565b3386908692613817565b8390611b1f600661184e565b90916139e4565b91611b39611b346002611813565b61083b565b632e1a7d4d84823b15611c3d57611b6f92611b645f8094611b5861015c565b96879586948593610c40565b8352600483016101c3565b03925af18015611c3857611c0c575b50611baf5f803386611b97611b92846119b1565b611a21565b90602082019151925af1611ba9611a4d565b50611acf565b905f9092913392611bf2611bec611be67f20ef8a4c975ec6c340089d8171a0f9c6a6324b11e3ecc4353155186f6c638c2894611773565b94611773565b94611773565b94611c07611bfe61015c565b9283928361185b565b0390a4565b611c2b905f3d8111611c31575b611c238183610c17565b810190611820565b5f611b7e565b503d611c19565b610c73565b610bf5565b90611c4d9291611991565b565b611c57612a1c565b611c5f611c89565b565b611c75611c70611c7a926119ae565b61017f565b610368565b90565b611c8690611c61565b90565b611c9a611c955f611c7d565b613f32565b565b611ca4611c4f565b565b5f90565b5f7f5a61703a2057726f6e6720746f6b656e30000000000000000000000000000000910152565b611cde6011602092610c83565b611ce781611caa565b0190565b611d009060208101905f818303910152611cd1565b90565b15611d0a57565b611d1261015c565b62461bcd60e51b815280611d2860048201611ceb565b0390fd5b5f7f5a61703a2057726f6e6720746f6b656e31000000000000000000000000000000910152565b611d606011602092610c83565b611d6981611d2c565b0190565b611d829060208101905f818303910152611d53565b90565b15611d8c57565b611d9461015c565b62461bcd60e51b815280611daa60048201611d6d565b0390fd5b5f7f5a61703a2053616d6520746f6b656e7300000000000000000000000000000000910152565b611de26010602092610c83565b611deb81611dae565b0190565b611e049060208101905f818303910152611dd5565b90565b15611e0e57565b611e1661015c565b62461bcd60e51b815280611e2c60048201611def565b0390fd5b9194929093611e3d610bc9565b50611e46610bc9565b50611e4f611ca6565b5082611e7d6020611e67611e6285610bdd565b610be9565b630dfe168190611e7561015c565b938492610c40565b82528180611e8d60048201610330565b03915afa90811561253357611eb391611ead915f91612505575b50610373565b91610373565b148015612464575b611ec490611d03565b84611ef16020611edb611ed685610bdd565b610be9565b630dfe168190611ee961015c565b938492610c40565b82528180611f0160048201610330565b03915afa90811561245f57611f2791611f21915f91612431575b50610373565b91610373565b148015612385575b611f8295611f3f611f5992611d85565b611f52611f4c8692610373565b91610373565b1415611e07565b6060611f6c611f6783610bdd565b610be9565b630902f1ac90611f7a61015c565b978892610c40565b82528180611f9260048201610330565b03915afa8015612380575f80969091612337575b506020611fd0611fcb611fc4611fbe611fe695610daa565b99610daa565b9694610bdd565b610be9565b630dfe168190611fde61015c565b938492610c40565b82528180611ff660048201610330565b03915afa9081156123325761201c91612016915f91612304575b50610373565b91610373565b145f146121945761206490612032868490610dda565b61204e612048612043848990610dda565b61017c565b9161017c565b115f1461218e5760015b95908584918893614013565b92845f146120ff5760209061208161207c6003610e8b565b6109bf565b6120a363054d50d46120ae88949661209761015c565b97889687958695610c40565b855260048501610e98565b03915afa9081156120fa575f916120cc575b50915b5b919291929190565b6120ed915060203d81116120f3575b6120e58183610c17565b810190610e1e565b5f6120c0565b503d6120db565b610c73565b906020906121156121106003610e8b565b6109bf565b61213763054d50d461214288949661212b61015c565b97889687958695610c40565b855260048501610e98565b03915afa908115612189575f9161215b575b50916120c3565b61217c915060203d8111612182575b6121748183610c17565b810190610e1e565b5f612154565b503d61216a565b610c73565b5f612058565b6121d8906121a6869593958490610dda565b6121c26121bc6121b7848990610dda565b61017c565b9161017c565b115f146122fe5760015b95908584918893614013565b92845f1461226f576020906121f56121f06003610e8b565b6109bf565b61221763054d50d461222288949661220b61015c565b97889687958695610c40565b855260048501610e98565b03915afa90811561226a575f9161223c575b50915b6120c4565b61225d915060203d8111612263575b6122558183610c17565b810190610e1e565b5f612234565b503d61224b565b610c73565b906020906122856122806003610e8b565b6109bf565b6122a763054d50d46122b288949661229b61015c565b97889687958695610c40565b855260048501610e98565b03915afa9081156122f9575f916122cb575b5091612237565b6122ec915060203d81116122f2575b6122e48183610c17565b810190610e1e565b5f6122c4565b503d6122da565b610c73565b5f6121cc565b612325915060203d811161232b575b61231d8183610c17565b810190610c55565b5f612010565b503d612313565b610c73565b611fbe9650611fe69150611fd0611fcb611fc461236c60209460603d8111612379575b6123648183610c17565b810190610d70565b509a509450505050611fa6565b503d61235a565b610c73565b506123b385602061239d61239885610bdd565b610be9565b63d21220a7906123ab61015c565b948592610c40565b825281806123c360048201610330565b03915afa91821561242c57611f82976123f36123ed611f5995611f3f945f916123fe575b50610373565b91610373565b149250509550611f2f565b61241f915060203d8111612425575b6124178183610c17565b810190610c55565b5f6123e7565b503d61240d565b610c73565b612452915060203d8111612458575b61244a8183610c17565b810190610c55565b5f611f1b565b503d612440565b610c73565b5061249283602061247c61247785610bdd565b610be9565b63d21220a79061248a61015c565b948592610c40565b825281806124a260048201610330565b03915afa8015612500576124c46124ca91611ec4945f916124d2575b50610373565b91610373565b149050611ebb565b6124f3915060203d81116124f9575b6124eb8183610c17565b810190610c55565b5f6124be565b503d6124e1565b610c73565b612526915060203d811161252c575b61251e8183610c17565b810190610c55565b5f611ea7565b503d612514565b610c73565b9061254c939291612547612d24565b612556565b612554612daf565b565b9261257e9092919261257461256a86611767565b3387908692613817565b84908490916139e4565b9261259361258b84611767565b338691612ca8565b9190929133926125d56125cf6125c97f20ef8a4c975ec6c340089d8171a0f9c6a6324b11e3ecc4353155186f6c638c2894611773565b94611773565b94611773565b946125ea6125e161015c565b9283928361185b565b0390a4565b906125fb939291612538565b565b9061261193929161260c612d24565b612627565b612619612daf565b565b6126249061082f565b90565b926126559061264a61263886611767565b336126423061261b565b908692613817565b849083859192613294565b9291909291339261269861269261268c7fa71185a0ff368de4e9e445d8601c4fbd50d9b674e4e43f5f8feafb8d64a2e13e94611773565b94611773565b94611773565b946126ad6126a461015c565b9283928361185b565b0390a4565b906126be9392916125fd565b565b6126c8610bcd565b506126d25f61184e565b90565b906126ed979695949392916126e8612d24565b612735565b6126f5612daf565b565b61272c61273394612722606094989795612718608086019a5f8701906103dc565b60208501906101b6565b60408301906101b6565b01906101b6565b565b9661278b92969591949561275d61274b8a611767565b336127553061261b565b908b92613817565b61277b61276987611767565b336127733061261b565b908892613817565b8892868987918a939495966144d8565b949192939094936127e533956127d36127cd6127c77f4ff29158e89c3af93365bf0fa1d14c5768109fb139f24b97c8a7d510b2d5e3f697611773565b97611773565b97611773565b976127dc61015c565b948594856126f7565b0390a4565b906127fa979695949392916126d5565b565b90612812959493929161280d612d24565b61281c565b61281a612daf565b565b94939192909361283461282f6002611813565b61083b565b9263d0e30db0349490813b15612949575f9161285c9161285261015c565b9788938492610c40565b82528161286b60048201610330565b03925af1938415612944576128b794612918575b5061289e61288c88611767565b336128963061261b565b908992613817565b6128a8600661184e565b928734889188939495966144d8565b925f9091923490949361291333956129016128fb6128f57f4ff29158e89c3af93365bf0fa1d14c5768109fb139f24b97c8a7d510b2d5e3f697611773565b97611773565b97611773565b9761290a61015c565b948594856126f7565b0390a4565b612937905f3d811161293d575b61292f8183610c17565b810190611820565b5f61287f565b503d612925565b610c73565b610bf5565b9061295c95949392916127fc565b565b61296f9061296a612a1c565b612971565b565b8061298c6129866129815f611c7d565b610373565b91610373565b1461299c5761299a90613f32565b565b6129c66129a85f611c7d565b6129b061015c565b918291631e4fbdf760e01b835260048301610789565b0390fd5b6129d39061295e565b565b634e487b7160e01b5f52600160045260245ffd5b156129f057565b6129d5565b612a1a33612a14612a0e612a09600661184e565b610373565b91610373565b146129e9565b565b612a246126c0565b612a3d612a37612a32614d63565b610373565b91610373565b03612a4457565b612a6d612a4f614d63565b612a5761015c565b91829163118cdaa760e01b835260048301610789565b0390fd5b90565b612a88612a83612a8d92612a71565b61017f565b61017c565b90565b612a9f612aa59193929361017c565b9261017c565b8201809211612ab057565b610dc6565b612ac4612aca9193929361017c565b9261017c565b8203918211612ad557565b610dc6565b9190612ae4610bc9565b50612af983612af36002612a74565b90610e50565b91612b0c612b076003610e8b565b6109bf565b602063054d50d4918590612b338694612b3e87612b2761015c565b97889687958695610c40565b855260048501610e98565b03915afa8015612c4c576020915f91612c1f575b5092612b66612b616003610e8b565b6109bf565b612b9c63ad615dec612ba7612b88612b808a968b90612a90565b978990612ab5565b612b9061015c565b97889687958695610c40565b855260048501610e98565b03915afa938415612c1a57612bd9612be393612bd4612be997612bde955f91612bec575b50939680610dda565b610dda565b610e50565b614f8d565b90612ab5565b90565b612c0d915060203d8111612c13575b612c058183610c17565b810190610e1e565b5f612bcb565b503d612bfb565b610c73565b612c3f9150823d8111612c45575b612c378183610c17565b810190610e1e565b5f612b52565b503d612c2d565b610c73565b612c5a9061082f565b90565b63ffffffff60e01b1690565b612c7d612c78612c8292610d44565b610c40565b612c5d565b90565b916020612ca6929493612c9f60408201965f8301906103dc565b01906101b6565b565b90612cef612cf493612ce060049493612cc763a9059cbb919391612c69565b92612cd061015c565b9687946020860190815201612c85565b60208201810382520383610c17565b6152fe565b565b612d02612d0791610e72565b610211565b90565b612d149054612cf6565b90565b612d216002612a74565b90565b612d2e6001612d0a565b612d47612d41612d3c612d17565b61017c565b9161017c565b14612d6057612d5e612d57612d17565b6001610b58565b565b612d6861015c565b633ee5aeb560e01b815280612d7f60048201610330565b0390fd5b90565b612d9a612d95612d9f92612d83565b61017f565b61017c565b90565b612dac6001612d86565b90565b612dc1612dba612da2565b6001610b58565b565b5f7f5a61703a20416d6f756e7420746f6f206c6f7700000000000000000000000000910152565b612df76013602092610c83565b612e0081612dc3565b0190565b612e199060208101905f818303910152612dea565b90565b15612e2357565b612e2b61015c565b62461bcd60e51b815280612e4160048201612e04565b0390fd5b67ffffffffffffffff8111612e5d5760208091020190565b610c03565b90612e74612e6f83612e45565b6119cd565b918252565b369037565b90612ea3612e8b83612e62565b92602080612e998693612e45565b9201910390612e79565b565b634e487b7160e01b5f52603260045260245ffd5b5190565b90612ec782612eb9565b811015612ed8576020809102010190565b612ea5565b90612ee790610373565b9052565b5f7f5a61703a20526573657276657320746f6f206c6f770000000000000000000000910152565b612f1f6015602092610c83565b612f2881612eeb565b0190565b612f419060208101905f818303910152612f12565b90565b15612f4b57565b612f5361015c565b62461bcd60e51b815280612f6960048201612f2c565b0390fd5b5f7f5a61703a205175616e7469747920686967686572207468616e206c696d697400910152565b612fa1601f602092610c83565b612faa81612f6d565b0190565b612fc39060208101905f818303910152612f94565b90565b15612fcd57565b612fd561015c565b62461bcd60e51b815280612feb60048201612fae565b0390fd5b5f80fd5b67ffffffffffffffff811161300b5760208091020190565b610c03565b5f80fd5b9092919261302961302482612ff3565b6119cd565b938185526020808601920283019281841161306657915b83831061304d5750505050565b6020809161305b8486610e0f565b815201920191613040565b613010565b9080601f830112156130895781602061308693519101613014565b90565b612fef565b906020828203126130be575f82015167ffffffffffffffff81116130b9576130b6920161306b565b90565b6102eb565b610166565b60209181520190565b60200190565b6130db90610373565b9052565b906130ec816020936130d2565b0190565b60200190565b9061311361310d61310684612eb9565b80936130c3565b926130cc565b905f5b8181106131235750505090565b90919261313c61313660019286516130df565b946130f0565b9101919091613116565b9061318361318e916131959698979561317660809661316c60a08801945f8901906101b6565b60208701906101b6565b84820360408601526130f6565b9660608301906103dc565b01906101b6565b565b6131a19051610373565b90565b5190565b906131b2826131a4565b8110156131c3576020809102010190565b612ea5565b6131d2905161017c565b90565b909160608284031261320a576132076131f0845f8501610e0f565b936131fe8160208601610e0f565b93604001610e0f565b90565b610166565b61321890612d86565b9052565b959391989796949290986101008701995f8801613238916103dc565b60208701613245916103dc565b60408601613252916101b6565b6060850161325f916101b6565b6080840161326c9161320f565b60a083016132799161320f565b60c08201613286916103dc565b60e001613292916101b6565b565b6132f09291936132a2610bc9565b506132c7856132c06132ba6132b561029d565b61017c565b9161017c565b1015612e1c565b60206132da6132d585610bdd565b610be9565b630dfe1681906132e861015c565b968792610c40565b8252818061330060048201610330565b03915afa80156137e05761333f945f916137b2575b50602061332961332486610bdd565b610be9565b63d21220a79061333761015c565b978892610c40565b8252818061334f60048201610330565b03915afa80156137ad576133ea955f9161377f575b50918361337961337384610373565b91610373565b148015613760575b61338a906113b9565b60606133d46133cf6133a461339f6002612a74565b612e7e565b976133c1886133bc8b6133b65f6119b1565b90612ebd565b612edd565b6133c9610bc9565b50610bdd565b610be9565b630902f1ac906133e261015c565b988992610c40565b825281806133fa60048201610330565b03915afa801561375b575f80979091613721575b5061341b61342191610daa565b96610daa565b8661343b61343561343061029d565b61017c565b9161017c565b1015806136fa575b61344c90612f44565b8261345f61345987610373565b91610373565b145f1461369757906134c36134a161347c5f948b908b9091612ada565b9861349a876134958b61348f6001612d86565b90612ebd565b612edd565b8990610e50565b6134bc6134b66134b16004612d0a565b61017c565b9161017c565b1015612fc6565b5b6134cd85615428565b6134df6134da6003610e8b565b6109bf565b61350e836338ed17399993996135198a6134f83061261b565b429161350261015c565b9e8f998a988997610c40565b875260048701613146565b03925af18015613692576060955f91613670575b509261354261353c8392610373565b91610373565b145f14613661575061355390615428565b5b6136075f61356a6135656003610e8b565b6109bf565b9261361263e8e33700916135ec6135e76135d66135b46135af61359e6135998d6135938c6119b1565b90612ebd565b613197565b9b6135a96001612d86565b90612ebd565b613197565b9b6135d06135cb866135c58b6119b1565b906131a8565b6131c8565b90612ab5565b926135e16001612d86565b906131a8565b6131c8565b600180339242946135fb61015c565b9d8e9c8d9b8c9a610c40565b8a5260048a0161321c565b03925af190811561365c575f80809391505061362d575b5090565b61364e915060603d8111613655575b6136468183610c17565b8101906131d5565b9150613629565b503d61363c565b610c73565b61366b9150615428565b613554565b61368c91503d805f833e6136848183610c17565b81019061308e565b5f61352d565b610c73565b95906136f56136d36136ae5f948b908b9091612ada565b986136cc866136c78b6136c16001612d86565b90612ebd565b612edd565b8990610e50565b6136ee6136e86136e36004612d0a565b61017c565b9161017c565b1015612fc6565b6134c4565b5061344c8161371861371261370d61029d565b61017c565b9161017c565b10159050613443565b61341b9750613421915061374b9060603d8111613754575b6137438183610c17565b810190610d70565b5097509061340e565b503d613739565b610c73565b5061338a8461377761377186610373565b91610373565b149050613381565b6137a0915060203d81116137a6575b6137988183610c17565b810190610c55565b5f613364565b503d61378e565b610c73565b6137d3915060203d81116137d9575b6137cb8183610c17565b810190610c55565b5f613315565b503d6137c1565b610c73565b60409061380e613815949695939661380460608401985f8501906103dc565b60208301906103dc565b01906101b6565b565b600492613851613865959361386093946138386323b872dd92949192612c69565b9361384161015c565b97889560208701908152016137e5565b60208201810382520383610c17565b6152fe565b565b919060408382031261388f578061388361388c925f8601610e0f565b93602001610e0f565b90565b610166565b60207f4f554e5400000000000000000000000000000000000000000000000000000000917f50616e63616b65526f757465723a20494e53554646494349454e545f415f414d5f8201520152565b6138ee6024604092610c83565b6138f781613894565b0190565b6139109060208101905f8183039101526138e1565b90565b1561391a57565b61392261015c565b62461bcd60e51b815280613938600482016138fb565b0390fd5b60207f4f554e5400000000000000000000000000000000000000000000000000000000917f50616e63616b65526f757465723a20494e53554646494349454e545f425f414d5f8201520152565b6139966024604092610c83565b61399f8161393c565b0190565b6139b89060208101905f818303910152613989565b90565b156139c257565b6139ca61015c565b62461bcd60e51b8152806139e0600482016139a3565b0390fd5b6139ec610bc9565b50613a196020613a036139fe84610bdd565b610be9565b630dfe168190613a1161015c565b938492610c40565b82528180613a2960048201610330565b03915afa908115613eef575f91613ec1575b5092613a696020613a53613a4e85610bdd565b610be9565b63d21220a790613a6161015c565b938492610c40565b82528180613a7960048201610330565b03915afa908115613ebc57613ac8613ac3613afb936040935f91613e8e575b509587613aad613aa78b610373565b91610373565b148015613e6f575b613abe90610ce5565b610bdd565b610be9565b6389afcb4490613af05f613adb3061261b565b93613ae461015c565b96879586948593610c40565b835260048301610789565b03925af1908115613e6a57613b59915f80929091613e37575b50613b3990613b32613b2c613b2761029d565b61017c565b9161017c565b1015613913565b613b52613b4c613b4761029d565b61017c565b9161017c565b10156139bb565b613b6b613b666002612a74565b612e7e565b93613b8984613b8487613b7e6001612d86565b90612ebd565b612edd565b613b91610bc9565b5080613ba5613b9f86610373565b91610373565b145f14613d7a575081613bcd613c1293613bc887613bc25f6119b1565b90612ebd565b612edd565b6020613be0613bdb83611767565b612c51565b6370a0823190613c07613bf23061261b565b92613bfb61015c565b97889485938493610c40565b835260048301610789565b03915afa928315613d75575f93613c31918591613d47575b5091615428565b5b613c7383613c48613c436003610e8b565b6109bf565b92613c7e6338ed1739919598613c5d3061261b565b4291613c6761015c565b9b8c998a988997610c40565b875260048701613146565b03925af1918215613d4257613ca2602092613ca792613cd995613d22575b50611767565b612c51565b6370a0823190613cce613cb93061261b565b92613cc261015c565b95869485938493610c40565b835260048301610789565b03915afa908115613d1d575f91613cef575b5090565b613d10915060203d8111613d16575b613d088183610c17565b810190610e1e565b5f613ceb565b503d613cfe565b610c73565b613d3d903d805f833e613d358183610c17565b81019061308e565b613c9c565b610c73565b613d68915060203d8111613d6e575b613d608183610c17565b810190610e1e565b5f613c2a565b503d613d56565b610c73565b613de09250613d9b81613d9687613d905f6119b1565b90612ebd565b612edd565b6020613dae613da983611767565b612c51565b6370a0823190613dd5613dc03061261b565b92613dc961015c565b97889485938493610c40565b835260048301610789565b03915afa928315613e32575f93613dff918591613e04575b5091615428565b613c32565b613e25915060203d8111613e2b575b613e1d8183610c17565b810190610e1e565b5f613df8565b503d613e13565b610c73565b613b399250613e5d915060403d8111613e63575b613e558183610c17565b810190613867565b91613b14565b503d613e4b565b610c73565b50613abe88613e86613e808a610373565b91610373565b149050613ab5565b613eaf915060203d8111613eb5575b613ea78183610c17565b810190610c55565b5f613a98565b503d613e9d565b610c73565b613ee2915060203d8111613ee8575b613eda8183610c17565b810190610c55565b5f613a3b565b503d613ed0565b610c73565b90613f0560018060a01b0391610b1e565b9181191691161790565b90565b90613f27613f22613f2e92611773565b613f0f565b8254613ef4565b9055565b613f3b5f61184e565b613f45825f613f12565b90613f79613f737f8be0079c531659141344cd1fd0a4f28419497f9722a3daafe3b4186f6b6457e093611773565b91611773565b91613f8261015c565b80613f8c81610330565b0390a3565b5f7f5a61703a2057726f6e6720747261646520646972656374696f6e000000000000910152565b613fc5601a602092610c83565b613fce81613f91565b0190565b613fe79060208101905f818303910152613fb8565b90565b15613ff157565b613ff961015c565b62461bcd60e51b81528061400f60048201613fd2565b0390fd5b92909361401e610bc9565b5061402a848390610dda565b61404661404061403b888790610dda565b61017c565b9161017c565b115f1461444d5761406d60015b91614067614061849261060f565b9161060f565b14613fea565b5f1461425e576140a56140958461408f614088888790610dda565b8590610e50565b90612ab5565b61409f6002612a74565b90610e50565b926140b86140b36003610e8b565b6109bf565b602063054d50d49186906140df87946140ea886140d361015c565b97889687958695610c40565b855260048501610e98565b03915afa908115614259575f9161422b575b509361411061410b6003610e8b565b6109bf565b93602063ad615dec95839061414c614129858790612a90565b986141576141388a8d90612ab5565b61414061015c565b9b8c9687958695610c40565b855260048501610e98565b03915afa908115614226576141f4976141aa6141e9966141a461419c6141b0956141966141e4996141c0996141ee9e5f916141f8575b509b9792612a90565b90610dda565b918b90612ab5565b90610e50565b90612ab5565b6141ba6002612a74565b90610e50565b946141df6141d860026141d38991612a74565b610dda565b9680610dda565b610dda565b610e50565b614f8d565b90612ab5565b5b90565b614219915060203d811161421f575b6142118183610c17565b810190610e1e565b5f61418d565b503d614207565b610c73565b61424c915060203d8111614252575b6142448183610c17565b810190610e1e565b5f6140fc565b503d61423a565b610c73565b9061429361428385949561427d614276888790610dda565b8590610e50565b90612ab5565b61428d6002612a74565b90610e50565b926142a66142a16003610e8b565b6109bf565b602063054d50d49186906142cd87946142d8886142c161015c565b97889687958695610c40565b855260048501610e98565b03915afa908115614448575f9161441a575b50936142fe6142f96003610e8b565b6109bf565b93602063ad615dec95839061433a614317858790612a90565b986143456143268a8d90612ab5565b61432e61015c565b9b8c9687958695610c40565b855260048501610e98565b03915afa908115614415576143e2976143986143d79661439261438a61439e956143846143d2996143ae996143dc9e5f916143e7575b509b9792612a90565b90610dda565b918b90612ab5565b90610e50565b90612ab5565b6143a86002612a74565b90610e50565b946143cd6143c660026143c18991612a74565b610dda565b9680610dda565b610dda565b610e50565b614f8d565b90612ab5565b6141f5565b614408915060203d811161440e575b6144008183610c17565b810190610e1e565b5f61437b565b503d6143f6565b610c73565b61443b915060203d8111614441575b6144338183610c17565b810190610e1e565b5f6142ea565b503d614429565b610c73565b61406d5f614053565b5f7f5a61703a20416d6f756e7420746f207377617020746f6f206869676800000000910152565b61448a601c602092610c83565b61449381614456565b0190565b6144ac9060208101905f81830391015261447d565b90565b156144b657565b6144be61015c565b62461bcd60e51b8152806144d460048201614497565b0390fd5b91959496939092966144e8610bc9565b508261451660206145006144fb86610bdd565b610be9565b630dfe16819061450e61015c565b938492610c40565b8252818061452660048201610330565b03915afa908115614d5e5761454c91614546915f91614d30575b50610373565b91610373565b148015614c8f575b61455d90611d03565b8361458a602061457461456f86610bdd565b610be9565b630dfe16819061458261015c565b938492610c40565b8252818061459a60048201610330565b03915afa908115614c8a576145c0916145ba915f91614c5c575b50610373565b91610373565b148015614bb4575b906145d561462492611d85565b6145f2846145eb6145e588610373565b91610373565b1415611e07565b6145fa610bc9565b50606061460e61460985610bdd565b610be9565b630902f1ac9061461c61015c565b948592610c40565b8252818061463460048201610330565b03915afa8015614baf575f80939091614b75575b5061465561465b91610daa565b92610daa565b928261467661467061466b61029d565b61017c565b9161017c565b101580614b4e575b61468790612f44565b6146b4602061469e6146998894610bdd565b610be9565b630dfe1681906146ac61015c565b938492610c40565b825281806146c460048201610330565b03915afa908115614b49576146ea916146e4915f91614b1b575b50610373565b91610373565b145f14614ad15761473761471561470d61475294958b908d908890918c93614013565b948590610e50565b61473061472a6147256004612d0a565b61017c565b9161017c565b1015612fc6565b5b61474b614745849261017c565b9161017c565b11156144af565b5f6147656147606002612a74565b612e7e565b95858214614a8a57614789846147848961477e866119b1565b90612ebd565b612edd565b6147a6856147a18961479b6001612d86565b90612ebd565b612edd565b6147af84615428565b5b6147c26147bd6003610e8b565b6109bf565b6147f1836338ed17399593956147fc8b6147db3061261b565b42916147e561015c565b9a8b998a988997610c40565b875260048701613146565b03925af1908115614a85575f91614a63575b50925f1461493c57505f836148ec6060969761482c6148e195615428565b6148c661484161483c6003610e8b565b6109bf565b966148c06148bb6148a961488761488261487161486c63e8e337009b6148668e6119b1565b90612ebd565b613197565b9d61487c6001612d86565b90612ebd565b613197565b9d6148a361489e866148988d6119b1565b906131a8565b6131c8565b90612ab5565b94926148b56001612d86565b906131a8565b6131c8565b90612a90565b600180339242946148d561015c565b9d8e9c8d9b8c9a610c40565b8a5260048a0161321c565b03925af1908115614937575f808093915050614908575b505b90565b614929915060603d8111614930575b6149218183610c17565b8101906131d5565b9150614903565b503d614917565b610c73565b614a07915083614a126060966149525f94615428565b6149ec6149676149626003610e8b565b6109bf565b966149e66149e16149cf6149ad6149a861499761499263e8e337009b61498c8e6119b1565b90612ebd565b613197565b9d6149a26001612d86565b90612ebd565b613197565b9d6149c96149c4866149be8d6119b1565b906131a8565b6131c8565b90612ab5565b94926149db6001612d86565b906131a8565b6131c8565b90612a90565b600180339242946149fb61015c565b9d8e9c8d9b8c9a610c40565b8a5260048a0161321c565b03925af1908115614a5e575f808093915050614a2f575b50614905565b614a50915060603d8111614a57575b614a488183610c17565b8101906131d5565b9150614a29565b503d614a3e565b610c73565b614a7f91503d805f833e614a778183610c17565b81019061308e565b5f61480e565b610c73565b614aa685614aa189614a9b866119b1565b90612ebd565b612edd565b614ac384614abe89614ab86001612d86565b90612ebd565b612edd565b614acc85615428565b6147b0565b614b16614af4614aec614752948b908d908890918c93614013565b948590610e50565b614b0f614b09614b046004612d0a565b61017c565b9161017c565b1015612fc6565b614738565b614b3c915060203d8111614b42575b614b348183610c17565b810190610c55565b5f6146de565b503d614b2a565b610c73565b5061468784614b6c614b66614b6161029d565b61017c565b9161017c565b1015905061467e565b614655935061465b9150614b9f9060603d8111614ba8575b614b978183610c17565b810190610d70565b50935090614648565b503d614b8d565b610c73565b508390614be36020614bcd614bc886610bdd565b610be9565b63d21220a790614bdb61015c565b938492610c40565b82528180614bf360048201610330565b03915afa928315614c5757614c1f614c19614624956145d5945f91614c29575b50610373565b91610373565b14919250506145c8565b614c4a915060203d8111614c50575b614c428183610c17565b810190610c55565b5f614c13565b503d614c38565b610c73565b614c7d915060203d8111614c83575b614c758183610c17565b810190610c55565b5f6145b4565b503d614c6b565b610c73565b50614cbd836020614ca7614ca286610bdd565b610be9565b63d21220a790614cb561015c565b948592610c40565b82528180614ccd60048201610330565b03915afa8015614d2b57614cef614cf59161455d945f91614cfd575b50610373565b91610373565b149050614554565b614d1e915060203d8111614d24575b614d168183610c17565b810190610c55565b5f614ce9565b503d614d0c565b610c73565b614d51915060203d8111614d57575b614d498183610c17565b810190610c55565b5f614540565b503d614d3f565b610c73565b614d6b610bcd565b503390565b90565b614d87614d82614d8c92614d70565b61017f565b61017c565b90565b90565b60ff1690565b614dac614da7614db192614d8f565b61017f565b614d92565b90565b614dd390614dcd614dc7614dd894614d92565b9161017c565b9061020d565b61017c565b90565b90565b614df2614ded614df792614ddb565b61017f565b614d92565b90565b1b90565b614e1d90614e17614e11614e2294614d92565b9161017c565b90614dfa565b61017c565b90565b90565b614e3c614e37614e4192614e25565b61017f565b61017c565b90565b90565b614e5b614e56614e6092614e44565b61017f565b614d92565b90565b90565b614e7a614e75614e7f92614e63565b61017f565b61017c565b90565b90565b614e99614e94614e9e92614e82565b61017f565b614d92565b90565b90565b614eb8614eb3614ebd92614ea1565b61017f565b61017c565b90565b90565b614ed7614ed2614edc92614ec0565b61017f565b614d92565b90565b90565b614ef6614ef1614efb92614edf565b61017f565b61017c565b90565b90565b614f15614f10614f1a92614efe565b61017f565b614d92565b90565b614f31614f2c614f3692614e82565b61017f565b61017c565b90565b614f4d614f48614f5292612a71565b61017f565b614d92565b90565b614f69614f64614f6e92614ec0565b61017f565b61017c565b90565b614f85614f80614f8a92612d83565b61017f565b614d92565b90565b614f95610bc9565b5080614fa9614fa35f6119b1565b9161017c565b146152f15761519e6151966151866151766151666151566151466151366151266151166151068b6151006150f96150e96150d96150c985614fea6001612d86565b9080615002614ffc600160801b614d73565b9161017c565b10156152c3575b8061502561501f68010000000000000000614e28565b9161017c565b1015615295575b8061504461503e640100000000614e66565b9161017c565b1015615267575b8061506161505b62010000614ea4565b9161017c565b1015615239575b8061507d615077610100614ee2565b9161017c565b101561520b575b806150986150926010614f1d565b9161017c565b10156151dd575b6150b26150ac6008614f55565b9161017c565b10156151c4575b6150c38188610e50565b90612a90565b6150d36001614f71565b90614db4565b6150e38186610e50565b90612a90565b6150f36001614f71565b90614db4565b8092610e50565b90612a90565b6151106001614f71565b90614db4565b615120818c610e50565b90612a90565b6151306001614f71565b90614db4565b615140818a610e50565b90612a90565b6151506001614f71565b90614db4565b6151608188610e50565b90612a90565b6151706001614f71565b90614db4565b6151808186610e50565b90612a90565b6151906001614f71565b90614db4565b918290610e50565b816151b16151ab8361017c565b9161017c565b105f146151bd57505b90565b90506151ba565b6151d8906151d26001614f71565b90614dfe565b6150b9565b6151f4615205916151ee6004614f01565b90614db4565b916151ff6002614f39565b90614dfe565b9061509f565b6152226152339161521c6008614ec3565b90614db4565b9161522d6004614f01565b90614dfe565b90615084565b6152506152619161524a6010614e85565b90614db4565b9161525b6008614ec3565b90614dfe565b90615068565b61527e61528f916152786020614e47565b90614db4565b916152896010614e85565b90614dfe565b9061504b565b6152ac6152bd916152a66040614dde565b90614db4565b916152b76020614e47565b90614dfe565b9061502c565b6152da6152eb916152d46080614d98565b90614db4565b916152e56040614dde565b90614dfe565b90615009565b506152fb5f6119b1565b90565b905f60209161530b610bc9565b50615314610bc9565b50828151910182855af1156153ae573d5f51906153396153335f6119b1565b9161017c565b145f14615394575061534a81612c51565b3b61535d6153575f6119b1565b9161017c565b145b6153665750565b61537261539091612c51565b61537a61015c565b918291635274afe760e01b835260048301610789565b0390fd5b6153a76153a16001612d86565b9161017c565b141561535f565b6040513d5f823e3d90fd5b9160206153da9294936153d360408201965f8301906103dc565b01906103dc565b565b90565b6153f36153ee6153f8926153dc565b61017f565b61017c565b90565b905051906154088261089e565b565b9060208282031261542357615420915f016153fb565b90565b610166565b61543961543482611767565b612c51565b602063dd62ed3e9161544a3061261b565b90615470615458600561184e565b9461547b61546461015c565b96879586948594610c40565b8452600484016153b9565b03915afa908115615579575f9161554b575b506154aa6154a469d3c21bcecceda10000006153df565b9161017c565b106154b3575b50565b6154bf6154c491611767565b612c51565b602063095ea7b3916154d6600561184e565b906154fb5f6154e361019e565b956155066154ef61015c565b97889687958694610c40565b845260048401612c85565b03925af180156155465761551a575b6154b0565b61553a9060203d811161553f575b6155328183610c17565b81019061540a565b615515565b503d615528565b610c73565b61556c915060203d8111615572575b6155648183610c17565b810190610e1e565b5f61548d565b503d61555a565b610c7356fea264697066735822122000eb472daf6831481e5d58f3dda5bf1d74a4b3ff586629def1fcf28b924351b364736f6c63430008170033","linkReferences":{}},"methodIdentifiers":{"MAX_INT()":"098d3228","MINIMUM_AMOUNT()":"257d9bb8","WBNB()":"8dd95002","estimateZapInRebalancingSwap(address,address,uint256,uint256,address)":"82c98b2d","estimateZapInSwap(address,uint256,address)":"3b0a48bb","estimateZapOutSwap(address,uint256,address)":"2f883da4","maxZapReverseRatio()":"0f4e4e63","owner()":"8da5cb5b","pancakeRouter()":"c21ebd07","recoverWrongTokens(address,uint256)":"3f138d4b","renounceOwnership()":"715018a6","transferOwnership(address)":"f2fde38b","updateMaxZapInverseRatio(uint256)":"2b4652eb","zapInBNB(address,uint256)":"5cb88a3f","zapInBNBRebalancing(address,uint256,address,uint256,uint256,bool)":"e3ceb16b","zapInToken(address,uint256,address,uint256)":"87e3f21c","zapInTokenRebalancing(address,address,uint256,uint256,address,uint256,uint256,bool)":"b421e91e","zapOutBNB(address,uint256,uint256)":"5fcbdaed","zapOutToken(address,address,uint256,uint256)":"84b73115"},"id":39}