{"abi":[{"type":"function","name":"run","inputs":[{"name":"token","type":"address","internalType":"address"}],"outputs":[],"stateMutability":"nonpayable"},{"type":"error","name":"ReentrancyGuardReentrantCall","inputs":[]}],"bytecode":{"object":"0x6080604052346200002d57620000146200003d565b6200001e62000033565b6133b26200010382396133b290f35b62000039565b60405190565b5f80fd5b62000047620000eb565b565b90565b90565b90565b6200006b62000065620000719262000049565b6200004f565b6200004c565b90565b62000080600162000052565b90565b5f1b90565b90620000965f199162000083565b9181191691161790565b620000b9620000b3620000bf926200004c565b6200004f565b6200004c565b90565b90565b90620000df620000d9620000e792620000a0565b620000c2565b825462000088565b9055565b62000100620000f962000074565b5f620000c5565b56fe60806040526004361015610013575b6100d0565b61001d5f3561002c565b63522bb7040361000e5761009d565b60e01c90565b60405190565b5f80fd5b5f80fd5b60018060a01b031690565b61005490610040565b90565b6100608161004b565b0361006757565b5f80fd5b9050359061007882610057565b565b9060208282031261009357610090915f0161006b565b90565b61003c565b5f0190565b346100cb576100b56100b036600461007a565b613264565b6100bd610032565b806100c781610098565b0390f35b610038565b5f80fd5b6100e5906100e06132ff565b610bd4565b6100ed613369565b565b90565b61010661010161010b92610040565b6100ef565b610040565b90565b610117906100f2565b90565b6101239061010e565b90565b61014373907e8c7d471877b4742da8aa53d257d0d565a47e61011a565b90565b61014f906100f2565b90565b61015b90610146565b90565b73e68b79e51bf826534ff37aa9cee71a3842ee9c7090565b5f80fd5b601f801991011690565b634e487b7160e01b5f52604160045260245ffd5b906101a29061017a565b810190811067ffffffffffffffff8211176101bc57604052565b610184565b60e01b90565b905051906101d482610057565b565b906020828203126101ef576101ec915f016101c7565b90565b61003c565b6101fd9061004b565b9052565b91602061022292949361021b60408201965f8301906101f4565b01906101f4565b565b61022c610032565b3d5f823e3d90fd5b73d963b2236d227a0302e19f2f9595f424950dc18690565b610255906100f2565b90565b6102619061024c565b90565b61026d90610146565b90565b90565b61027c81610270565b0361028357565b5f80fd5b9050519061029482610273565b565b906020828203126102af576102ac915f01610287565b90565b61003c565b91906102c7905f602085019401906101f4565b565b90565b6102e06102db6102e5926102c9565b6100ef565b610270565b90565b60209181520190565b5f7f496e73756666696369656e7420435a555344206c697175696469747900000000910152565b610325601c6020926102e8565b61032e816102f1565b0190565b6103479060208101905f818303910152610318565b90565b1561035157565b610359610032565b62461bcd60e51b81528061036f60048201610332565b0390fd5b90565b61038a61038561038f92610373565b6100ef565b610270565b90565b5f7f496e73756666696369656e7420435a42206c6971756964697479000000000000910152565b6103c6601a6020926102e8565b6103cf81610392565b0190565b6103e89060208101905f8183039101526103b9565b90565b156103f257565b6103fa610032565b62461bcd60e51b815280610410600482016103d3565b0390fd5b90565b61042b61042661043092610414565b6100ef565b610270565b90565b634e487b7160e01b5f52601260045260245ffd5b634e487b7160e01b5f52601160045260245ffd5b61046761046d91610270565b91610270565b908115610478570490565b610433565b90565b61049461048f6104999261047d565b6100ef565b610270565b90565b906104af6104a8610032565b9283610198565b565b67ffffffffffffffff81116104c95760208091020190565b610184565b906104e06104db836104b1565b61049c565b918252565b369037565b9061050f6104f7836104ce565b9260208061050586936104b1565b92019103906104e5565b565b634e487b7160e01b5f52603260045260245ffd5b5190565b9061053382610525565b811015610544576020809102010190565b610511565b90565b61056061055b61056592610549565b6100ef565b610270565b90565b906105729061004b565b9052565b90565b61058d61058861059292610576565b6100ef565b610270565b90565b90565b6105ac6105a76105b192610595565b6100ef565b610270565b90565b6105bd906100f2565b90565b6105c9906105b4565b90565b6105d5906100f2565b90565b6105e1906105cc565b90565b6106096106047371ab950a0c349103967e711b931c460e9580c6316105c0565b6105d8565b90565b61061590610146565b90565b151590565b61062681610618565b0361062d57565b5f80fd5b9050519061063e8261061d565b565b9060208282031261065957610656915f01610631565b90565b61003c565b61066790610270565b9052565b91602061068c92949361068560408201965f8301906101f4565b019061065e565b565b610697906100f2565b90565b6106a39061068e565b90565b6106af90610146565b90565b6106bb90610146565b90565b5f9103126106c857565b61003c565b6106dc6106e291939293610270565b92610270565b82039182116106ed57565b610447565b6106fb9061054c565b9052565b60209181520190565b60200190565b6107179061004b565b9052565b906107288160209361070e565b0190565b60200190565b9061074f61074961074284610525565b80936106ff565b92610708565b905f5b81811061075f5750505090565b909192610778610772600192865161071b565b9461072c565b9101919091610752565b906107bf6107ca916107d1969897956107b26080966107a860a08801945f89019061065e565b60208701906106f2565b8482036040860152610732565b9660608301906101f4565b019061065e565b565b6107dc906100f2565b90565b6107e8906107d3565b90565b6107f490610146565b90565b610800906100f2565b90565b61080c906107f7565b90565b61081890610146565b90565b919061082e905f6020850194019061065e565b565b5f7f435a55534420746f74616c20737570706c7920686173206368616e6765640000910152565b610864601e6020926102e8565b61086d81610830565b0190565b6108869060208101905f818303910152610857565b90565b1561089057565b610898610032565b62461bcd60e51b8152806108ae60048201610871565b0390fd5b5f7f435a4220746f74616c20737570706c7920686173206368616e67656400000000910152565b6108e6601c6020926102e8565b6108ef816108b2565b0190565b6109089060208101905f8183039101526108d9565b90565b1561091257565b61091a610032565b62461bcd60e51b815280610930600482016108f3565b0390fd5b60207f6f74207468652073616d6520617320696e697469616c6c790000000000000000917f546f6b656e2062616c616e6365206f6620435a55534420706f6f6c206973206e5f8201520152565b61098e60386040926102e8565b61099781610934565b0190565b6109b09060208101905f818303910152610981565b90565b156109ba57565b6109c2610032565b62461bcd60e51b8152806109d86004820161099b565b0390fd5b60207f207468652073616d6520617320696e697469616c6c7900000000000000000000917f546f6b656e2062616c616e6365206f6620435a4220706f6f6c206973206e6f745f8201520152565b610a3660366040926102e8565b610a3f816109dc565b0190565b610a589060208101905f818303910152610a29565b90565b15610a6257565b610a6a610032565b62461bcd60e51b815280610a8060048201610a43565b0390fd5b60207f6f74207468652073616d6520617320696e697469616c6c790000000000000000917f435a5553442062616c616e6365206f6620435a55534420706f6f6c206973206e5f8201520152565b610ade60386040926102e8565b610ae781610a84565b0190565b610b009060208101905f818303910152610ad1565b90565b15610b0a57565b610b12610032565b62461bcd60e51b815280610b2860048201610aeb565b0390fd5b60207f68652073616d6520617320696e697469616c6c79000000000000000000000000917f435a422062616c616e6365206f6620435a4220706f6f6c206973206e6f7420745f8201520152565b610b8660346040926102e8565b610b8f81610b2c565b0190565b610ba89060208101905f818303910152610b79565b90565b15610bb257565b610bba610032565b62461bcd60e51b815280610bd060048201610b93565b0390fd5b610be4610bdf610126565b610152565b602063e6a43905918390610c11610bf961015e565b94610c1c610c05610032565b968795869485946101c1565b845260048401610201565b03915afa90811561325f575f91613231575b50610c3f610c3a610126565b610152565b602063e6a43905918490610c6c610c54610234565b94610c77610c60610032565b968795869485946101c1565b845260048401610201565b03915afa90811561322c575f916131fe575b50610cd16020610ca7610ca2610c9d61015e565b610258565b610264565b6370a0823190610cc68692610cba610032565b958694859384936101c1565b8352600483016102b4565b03915afa9081156131f9575f916131cb575b5090610d2c6020610d02610cfd610cf8610234565b610258565b610264565b6370a0823190610d218592610d15610032565b958694859384936101c1565b8352600483016102b4565b03915afa9081156131c6575f91613198575b5092610d806020610d56610d5188610258565b610264565b6370a0823190610d758592610d69610032565b958694859384936101c1565b8352600483016102b4565b03915afa908115613193575f91613165575b5090610dd46020610daa610da589610258565b610264565b6370a0823190610dc98792610dbd610032565b958694859384936101c1565b8352600483016102b4565b03915afa908115613160575f91613132575b5091610e0d85610e07610e01681b1ae4d6e2ef5000006102cc565b91610270565b1161034a565b610e3486610e2e610e286a01a784379d99db42000000610376565b91610270565b116103eb565b610e4885610e426032610417565b9061045b565b610e7b6020610e65610e60610e5b61015e565b610258565b610264565b6318160ddd90610e73610032565b9384926101c1565b82528180610e8b60048201610098565b03915afa90811561312d575f916130ff575b50610ed16020610ebb610eb6610eb1610234565b610258565b610264565b6318160ddd90610ec9610032565b9384926101c1565b82528180610ee160048201610098565b03915afa9081156130fa575f916130cc575b5091610f07610f026003610480565b6104ea565b90610f2b610f1361015e565b610f2684610f205f61054c565b90610529565b610568565b610f488b610f4384610f3d6001610579565b90610529565b610568565b610f6c610f53610234565b610f6784610f616002610598565b90610529565b610568565b610f84610f7f610f7a61015e565b610258565b610264565b602063095ea7b391610f9c610f976105e4565b61060c565b90610fba5f8695610fc5610fae610032565b978896879586946101c1565b84526004840161066b565b03925af180156130c75761309b575b50610fed610fe8610fe361015e565b61069a565b6106a6565b6340c10f19610ffb306106b2565b8392803b15613096576110215f809461102c611015610032565b978896879586946101c1565b84526004840161066b565b03925af1801561309157613065575b5061105b6110538261104d6002610598565b9061045b565b9182906106cd565b9061106c6110676105e4565b61060c565b90635c11d795905f928592611080306106b2565b4291833b15613060576110b46110a9935f9793889461109d610032565b9a8b998a9889976101c1565b875260048701610782565b03925af1801561305b5761302f575b506110d46110cf6105e4565b61060c565b90635c11d795905f9284926110e8306106b2565b4291833b1561302a5761111c611111935f97938894611105610032565b9a8b998a9889976101c1565b875260048701610782565b03925af1801561302557612ff9575b5061115f602061114961114461113f610234565b610258565b610264565b6318160ddd90611157610032565b9384926101c1565b8252818061116f60048201610098565b03915afa8015612ff45761118b915f91612fc6575b50846106cd565b6111a361119e611199610234565b61069a565b6106a6565b906340c10f19906111b3306106b2565b9092803b15612fc1576111d95f80946111e46111cd610032565b978896879586946101c1565b84526004840161066b565b03925af18015612fbc57612f90575b506112176111ff610234565b6112128361120c5f61054c565b90610529565b610568565b6112348a61122f836112296001610579565b90610529565b610568565b61125861123f61015e565b6112538361124d6002610598565b90610529565b610568565b6112a7602061127561127061126b610234565b610258565b610264565b6370a082319061129c611287306106b2565b92611290610032565b958694859384936101c1565b8352600483016102b4565b03915afa908115612f8b575f91612f5d575b50906112d36112ce6112c9610234565b610258565b610264565b602063095ea7b3916112eb6112e66105e4565b61060c565b906113095f87956113146112fd610032565b978896879586946101c1565b84526004840161066b565b03925af18015612f5857612f2c575b5061133461132f6105e4565b61060c565b635c11d7959083905f9392611348306106b2565b4291833b15612f275761137c611371935f97938894611365610032565b9a8b998a9889976101c1565b875260048701610782565b03925af18015612f2257612ef6575b506113cc60206113a261139d8d610258565b610264565b6370a08231906113c189926113b5610032565b958694859384936101c1565b8352600483016102b4565b03915afa908115612ef1575f91612ec3575b506113f16113eb86610270565b91610270565b115f146129b2575061140b6114066002610598565b6104ea565b61142e61141661015e565b611429836114235f61054c565b90610529565b610568565b61144b8a611446836114406001610579565b90610529565b610568565b61149a602061146861146361145e61015e565b610258565b610264565b6370a082319061148f61147a306106b2565b92611483610032565b958694859384936101c1565b8352600483016102b4565b03915afa80156129ad576114c0915f9161297f575b506114ba6032610417565b9061045b565b6114d86114d36114ce61015e565b610258565b610264565b602063095ea7b3916114f06114eb6105e4565b61060c565b9061150e5f8695611519611502610032565b978896879586946101c1565b84526004840161066b565b03925af1801561297a5761294e575b506115396115346105e4565b61060c565b635c11d79591905f939261154c306106b2565b4291833b1561294957611580611575935f97938894611569610032565b9a8b998a9889976101c1565b875260048701610782565b03925af1801561294457612918575b506115a161159c8a610258565b610264565b6115e963a9059cbb9188908c60208b6115c26115bd8d94610258565b610264565b6115de6370a082316115d2610032565b988994859384936101c1565b8352600483016102b4565b03915afa9081156129135761160d611625925f9260209784926128e4575b506106cd565b95611630611619610032565b978896879586946101c1565b84526004840161066b565b03925af180156128df576128b3575b5061165161164c8a610258565b610264565b6116a18a63a9059cbb92602061166f61166a8a94610258565b610264565b6370a0823190611696611681306106b2565b9261168a610032565b978894859384936101c1565b8352600483016102b4565b03915afa9283156128ae575f93612878575b506116d35f602094956116de6116c7610032565b978896879586946101c1565b84526004840161066b565b03925af1801561287357612847575b505b611736602061170c61170761170261015e565b610258565b610264565b6370a082319061172b889261171f610032565b958694859384936101c1565b8352600483016102b4565b03915afa908115612842575f91612814575b5061175b61175589610270565b91610270565b116126e4575b6117a8602061177e61177961177461015e565b610258565b610264565b6370a082319061179d8892611791610032565b958694859384936101c1565b8352600483016102b4565b03915afa9081156126df575f916126b1575b506117cd6117c789610270565b91610270565b1061257f575b6117e46117df85610803565b61080f565b63fff6cae990803b1561257a57611807915f916117ff610032565b9384926101c1565b825281838161181860048201610098565b03925af1801561257557612549575b5061186f602061184561184061183b610234565b610258565b610264565b6370a08231906118648a92611858610032565b958694859384936101c1565b8352600483016102b4565b03915afa908115612544575f91612516575b5061189461188e8a610270565b91610270565b116123e6575b6118e160206118b76118b26118ad610234565b610258565b610264565b6370a08231906118d68a926118ca610032565b958694859384936101c1565b8352600483016102b4565b03915afa9081156123e1575f916123b3575b506119066119008a610270565b91610270565b10612283575b61191d61191887610803565b61080f565b63fff6cae990803b1561227e57611940915f91611938610032565b9384926101c1565b825281838161195160048201610098565b03925af180156122795761224d575b5061197961197461196f61015e565b6107df565b6107eb565b6342966c686119cd602061199b61199661199161015e565b610258565b610264565b6370a08231906119c26119ad306106b2565b926119b6610032565b958694859384936101c1565b8352600483016102b4565b03915afa908115612248575f9161221a575b50823b1561221557611a1092611a055f80946119f9610032565b968795869485936101c1565b83526004830161081b565b03925af18015612210576121e4575b50611a6f6020611a3d611a38611a3361015e565b610258565b610264565b6370a0823190611a64611a4f306106b2565b92611a58610032565b958694859384936101c1565b8352600483016102b4565b03915afa9081156121df575f916121b1575b50611a94611a8e5f61054c565b91610270565b11612084575b611ae96020611ab7611ab2611aad610234565b610258565b610264565b6370a0823190611ade611ac9306106b2565b92611ad2610032565b958694859384936101c1565b8352600483016102b4565b03915afa90811561207f575f91612051575b50611b0e611b085f61054c565b91610270565b11611f1c575b611b48906020611b32611b2d611b2861015e565b610258565b610264565b6318160ddd90611b40610032565b9485926101c1565b82528180611b5860048201610098565b03915afa8015611f1757611b7a611b8091611b86945f91611ee9575b50610270565b91610270565b14610889565b90611bba6020611ba4611b9f611b9a610234565b610258565b610264565b6318160ddd90611bb2610032565b9384926101c1565b82528180611bca60048201610098565b03915afa928315611ee457611bf6611bf0611c3995611bfc945f91611eb6575b50610270565b91610270565b1461090b565b6020611c0f611c0a8a610258565b610264565b6370a0823190611c2e8692611c22610032565b968794859384936101c1565b8352600483016102b4565b03915afa908115611eb157611caa98611c76611c8093611c7b936020965f92611e7a575b50611c6a611c7091610270565b91610270565b146109b3565b610258565b610264565b6370a0823190611c9f8692611c93610032565b9a8b94859384936101c1565b8352600483016102b4565b03915afa958615611e7557611d1f96602093611ce0925f92611e3e575b50611cd4611cda91610270565b91610270565b14610a5b565b611cf8611cf3611cee61015e565b610258565b610264565b611d146370a08231611d08610032565b988994859384936101c1565b8352600483016102b4565b03915afa938415611e3957611d9494602093611d55925f92611e02575b50611d49611d4f91610270565b91610270565b14610b03565b611d6d611d68611d63610234565b610258565b610264565b611d896370a08231611d7d610032565b968794859384936101c1565b8352600483016102b4565b03915afa908115611dfd57611dc3925f92611dc5575b50611db7611dbd91610270565b91610270565b14610bab565b565b611dbd919250611dee611db79160203d8111611df6575b611de68183610198565b810190610296565b929150611daa565b503d611ddc565b610224565b611d4f919250611e2a611d4991873d8111611e32575b611e228183610198565b810190610296565b929150611d3c565b503d611e18565b610224565b611cda919250611e66611cd491873d8111611e6e575b611e5e8183610198565b810190610296565b929150611cc7565b503d611e54565b610224565b611c70919250611ea2611c6a91893d8111611eaa575b611e9a8183610198565b810190610296565b929150611c5d565b503d611e90565b610224565b611ed7915060203d8111611edd575b611ecf8183610198565b810190610296565b5f611bea565b503d611ec5565b610224565b611f0a915060203d8111611f10575b611f028183610198565b810190610296565b5f611b74565b503d611ef8565b610224565b611f34611f2f611f2a610234565b6107df565b6107eb565b906342966c68611f896020611f57611f52611f4d610234565b610258565b610264565b6370a0823190611f7e611f69306106b2565b92611f72610032565b958694859384936101c1565b8352600483016102b4565b03915afa90811561204c575f9161201e575b50833b1561201957611fcc93611fc15f8094611fb5610032565b978895869485936101c1565b83526004830161081b565b03925af191821561201457611b4892611fe8575b509050611b14565b612007905f3d811161200d575b611fff8183610198565b8101906106be565b5f611fe0565b503d611ff5565b610224565b610176565b61203f915060203d8111612045575b6120378183610198565b810190610296565b5f611f9b565b503d61202d565b610224565b612072915060203d8111612078575b61206a8183610198565b810190610296565b5f611afb565b503d612060565b610224565b61209c61209761209261015e565b6107df565b6107eb565b6342966c686120f060206120be6120b96120b461015e565b610258565b610264565b6370a08231906120e56120d0306106b2565b926120d9610032565b958694859384936101c1565b8352600483016102b4565b03915afa9081156121ac575f9161217e575b50823b1561217957612133926121285f809461211c610032565b968795869485936101c1565b83526004830161081b565b03925af1801561217457612148575b50611a9a565b612167905f3d811161216d575b61215f8183610198565b8101906106be565b5f612142565b503d612155565b610224565b610176565b61219f915060203d81116121a5575b6121978183610198565b810190610296565b5f612102565b503d61218d565b610224565b6121d2915060203d81116121d8575b6121ca8183610198565b810190610296565b5f611a81565b503d6121c0565b610224565b612203905f3d8111612209575b6121fb8183610198565b8101906106be565b5f611a1f565b503d6121f1565b610224565b610176565b61223b915060203d8111612241575b6122338183610198565b810190610296565b5f6119df565b503d612229565b610224565b61226c905f3d8111612272575b6122648183610198565b8101906106be565b5f611960565b503d61225a565b610224565b610176565b61229b612296612291610234565b61069a565b6106a6565b6340c10f19876122e78b60208b6122c06122bb6122b6610234565b610258565b610264565b6122dc6370a082316122d0610032565b968794859384936101c1565b8352600483016102b4565b03915afa9081156123ae57612303925f9261237e575b506106cd565b92803b15612379576123285f809461233361231c610032565b978896879586946101c1565b84526004840161066b565b03925af1801561237457612348575b5061190c565b612367905f3d811161236d575b61235f8183610198565b8101906106be565b5f612342565b503d612355565b610224565b610176565b6123a091925060203d81116123a7575b6123988183610198565b810190610296565b905f6122fd565b503d61238e565b610224565b6123d4915060203d81116123da575b6123cc8183610198565b810190610296565b5f6118f3565b503d6123c2565b610224565b6123fe6123f96123f4610234565b6107df565b6107eb565b6379cc67908761244b602061242161241c612417610234565b610258565b610264565b6370a08231906124408d92612434610032565b958694859384936101c1565b8352600483016102b4565b03915afa801561251157612468915f916124e3575b508c906106cd565b92803b156124de5761248d5f8094612498612481610032565b978896879586946101c1565b84526004840161066b565b03925af180156124d9576124ad575b5061189a565b6124cc905f3d81116124d2575b6124c48183610198565b8101906106be565b5f6124a7565b503d6124ba565b610224565b610176565b612504915060203d811161250a575b6124fc8183610198565b810190610296565b5f612460565b503d6124f2565b610224565b612537915060203d811161253d575b61252f8183610198565b810190610296565b5f611881565b503d612525565b610224565b612568905f3d811161256e575b6125608183610198565b8101906106be565b5f611827565b503d612556565b610224565b610176565b61259761259261258d61015e565b61069a565b6106a6565b6340c10f19856125e58a60206125bb6125b66125b161015e565b610258565b610264565b6370a08231906125da8c926125ce610032565b968794859384936101c1565b8352600483016102b4565b03915afa9081156126ac57612601925f9261267c575b506106cd565b92803b15612677576126265f809461263161261a610032565b978896879586946101c1565b84526004840161066b565b03925af1801561267257612646575b506117d3565b612665905f3d811161266b575b61265d8183610198565b8101906106be565b5f612640565b503d612653565b610224565b610176565b61269e91925060203d81116126a5575b6126968183610198565b810190610296565b905f6125fb565b503d61268c565b610224565b6126d2915060203d81116126d8575b6126ca8183610198565b810190610296565b5f6117ba565b503d6126c0565b610224565b6126fc6126f76126f261015e565b6107df565b6107eb565b6379cc679085612749602061271f61271a61271561015e565b610258565b610264565b6370a082319061273e8b92612732610032565b958694859384936101c1565b8352600483016102b4565b03915afa801561280f57612766915f916127e1575b508b906106cd565b92803b156127dc5761278b5f809461279661277f610032565b978896879586946101c1565b84526004840161066b565b03925af180156127d7576127ab575b50611761565b6127ca905f3d81116127d0575b6127c28183610198565b8101906106be565b5f6127a5565b503d6127b8565b610224565b610176565b612802915060203d8111612808575b6127fa8183610198565b810190610296565b5f61275e565b503d6127f0565b610224565b612835915060203d811161283b575b61282d8183610198565b810190610296565b5f611748565b503d612823565b610224565b6128679060203d811161286c575b61285f8183610198565b810190610640565b6116ed565b503d612855565b610224565b602093505f61289f6116d392863d81116128a7575b6128978183610198565b810190610296565b9450506116b3565b503d61288d565b610224565b6128d39060203d81116128d8575b6128cb8183610198565b810190610640565b61163f565b503d6128c1565b610224565b612905919250883d811161290c575b6128fd8183610198565b810190610296565b905f611607565b503d6128f3565b610224565b612937905f3d811161293d575b61292f8183610198565b8101906106be565b5f61158f565b503d612925565b610224565b610176565b61296e9060203d8111612973575b6129668183610198565b810190610640565b611528565b503d61295c565b610224565b6129a0915060203d81116129a6575b6129988183610198565b810190610296565b5f6114af565b503d61298e565b610224565b6129f260206129c86129c38d610258565b610264565b6370a08231906129e789926129db610032565b958694859384936101c1565b8352600483016102b4565b03915afa908115612ebe575f91612e90575b50612a17612a1186610270565b91610270565b10612a23575b506116ef565b612a49612a38612a336002610598565b6104ea565b91612a436032610417565b9061045b565b612a61612a5c612a57610234565b61069a565b6106a6565b6340c10f19612a6f306106b2565b8392803b15612e8b57612a955f8094612aa0612a89610032565b978896879586946101c1565b84526004840161066b565b03925af18015612e8657612e5a575b50612ad3612abb610234565b612ace84612ac85f61054c565b90610529565b610568565b612af08b612aeb84612ae56001610579565b90610529565b610568565b612b08612b03612afe610234565b610258565b610264565b602063095ea7b391612b20612b1b6105e4565b61060c565b90612b3e5f8695612b49612b32610032565b978896879586946101c1565b84526004840161066b565b03925af18015612e5557612e29575b50612b69612b646105e4565b61060c565b635c11d79591905f9392612b7c306106b2565b4291833b15612e2457612bb0612ba5935f97938894612b99610032565b9a8b998a9889976101c1565b875260048701610782565b03925af18015612e1f57612df3575b50612bd1612bcc8a610258565b610264565b612c1963a9059cbb9188908c60208b612bf2612bed8d94610258565b610264565b612c0e6370a08231612c02610032565b988994859384936101c1565b8352600483016102b4565b03915afa908115612dee57612c3d612c55925f926020978492612dbf575b506106cd565b95612c60612c49610032565b978896879586946101c1565b84526004840161066b565b03925af18015612dba57612d8e575b50612c81612c7c8a610258565b610264565b612cd18a63a9059cbb926020612c9f612c9a8a94610258565b610264565b6370a0823190612cc6612cb1306106b2565b92612cba610032565b978894859384936101c1565b8352600483016102b4565b03915afa928315612d89575f93612d53575b50612d035f60209495612d0e612cf7610032565b978896879586946101c1565b84526004840161066b565b03925af18015612d4e57612d22575b612a1d565b612d429060203d8111612d47575b612d3a8183610198565b810190610640565b612d1d565b503d612d30565b610224565b602093505f612d7a612d0392863d8111612d82575b612d728183610198565b810190610296565b945050612ce3565b503d612d68565b610224565b612dae9060203d8111612db3575b612da68183610198565b810190610640565b612c6f565b503d612d9c565b610224565b612de0919250883d8111612de7575b612dd88183610198565b810190610296565b905f612c37565b503d612dce565b610224565b612e12905f3d8111612e18575b612e0a8183610198565b8101906106be565b5f612bbf565b503d612e00565b610224565b610176565b612e499060203d8111612e4e575b612e418183610198565b810190610640565b612b58565b503d612e37565b610224565b612e79905f3d8111612e7f575b612e718183610198565b8101906106be565b5f612aaf565b503d612e67565b610224565b610176565b612eb1915060203d8111612eb7575b612ea98183610198565b810190610296565b5f612a04565b503d612e9f565b610224565b612ee4915060203d8111612eea575b612edc8183610198565b810190610296565b5f6113de565b503d612ed2565b610224565b612f15905f3d8111612f1b575b612f0d8183610198565b8101906106be565b5f61138b565b503d612f03565b610224565b610176565b612f4c9060203d8111612f51575b612f448183610198565b810190610640565b611323565b503d612f3a565b610224565b612f7e915060203d8111612f84575b612f768183610198565b810190610296565b5f6112b9565b503d612f6c565b610224565b612faf905f3d8111612fb5575b612fa78183610198565b8101906106be565b5f6111f3565b503d612f9d565b610224565b610176565b612fe7915060203d8111612fed575b612fdf8183610198565b810190610296565b5f611184565b503d612fd5565b610224565b613018905f3d811161301e575b6130108183610198565b8101906106be565b5f61112b565b503d613006565b610224565b610176565b61304e905f3d8111613054575b6130468183610198565b8101906106be565b5f6110c3565b503d61303c565b610224565b610176565b613084905f3d811161308a575b61307c8183610198565b8101906106be565b5f61103b565b503d613072565b610224565b610176565b6130bb9060203d81116130c0575b6130b38183610198565b810190610640565b610fd4565b503d6130a9565b610224565b6130ed915060203d81116130f3575b6130e58183610198565b810190610296565b5f610ef3565b503d6130db565b610224565b613120915060203d8111613126575b6131188183610198565b810190610296565b5f610e9d565b503d61310e565b610224565b613153915060203d8111613159575b61314b8183610198565b810190610296565b5f610de6565b503d613141565b610224565b613186915060203d811161318c575b61317e8183610198565b810190610296565b5f610d92565b503d613174565b610224565b6131b9915060203d81116131bf575b6131b18183610198565b810190610296565b5f610d3e565b503d6131a7565b610224565b6131ec915060203d81116131f2575b6131e48183610198565b810190610296565b5f610ce3565b503d6131da565b610224565b61321f915060203d8111613225575b6132178183610198565b8101906101d6565b5f610c89565b503d61320d565b610224565b613252915060203d8111613258575b61324a8183610198565b8101906101d6565b5f610c2e565b503d613240565b610224565b61326d906100d4565b565b5f1c90565b90565b6132836132889161326f565b613274565b90565b6132959054613277565b90565b6132a26002610598565b90565b5f1b90565b906132b65f19916132a5565b9181191691161790565b6132d46132cf6132d992610270565b6100ef565b610270565b90565b90565b906132f46132ef6132fb926132c0565b6132dc565b82546132aa565b9055565b6133085f61328b565b61332161331b613316613298565b610270565b91610270565b1461333957613337613331613298565b5f6132df565b565b613341610032565b633ee5aeb560e01b81528061335860048201610098565b0390fd5b6133666001610579565b90565b61337a61337461335c565b5f6132df565b56fea2646970667358221220b7e68f7d82b249c6c03434987a84831a48e80ec66c96302d04edf986da5ad99c64736f6c63430008170033","linkReferences":{}},"methodIdentifiers":{"run(address)":"522bb704"},"id":48}