{"abi":[{"type":"constructor","inputs":[],"stateMutability":"nonpayable"},{"type":"function","name":"run","inputs":[{"name":"token","type":"address","internalType":"address"}],"outputs":[],"stateMutability":"nonpayable"},{"type":"error","name":"ReentrancyGuardReentrantCall","inputs":[]}],"bytecode":{"object":"0x6080604052346200002d576200001462000251565b6200001e62000033565b612e5f6200047b8239612e5f90f35b62000039565b60405190565b5f80fd5b73d963b2236d227a0302e19f2f9595f424950dc18690565b60018060a01b031690565b90565b6200007c62000076620000829262000055565b62000060565b62000055565b90565b620000909062000063565b90565b6200009e9062000085565b90565b620000ac9062000063565b90565b620000ba90620000a1565b90565b620000c89062000063565b90565b620000d690620000bd565b90565b620000e49062000063565b90565b620000f290620000d9565b90565b6200011e620001187371ab950a0c349103967e711b931c460e9580c631620000cb565b620000e7565b90565b6200012c90620000a1565b90565b601f801991011690565b634e487b7160e01b5f52604160045260245ffd5b9062000159906200012f565b810190811060018060401b038211176200017257604052565b62000139565b60e01b90565b5f80fd5b151590565b620001928162000182565b036200019a57565b5f80fd5b90505190620001ad8262000187565b565b90602082820312620001cb57620001c8915f016200019e565b90565b6200017e565b620001dc9062000055565b90565b620001ea90620001d1565b9052565b90565b620001fc90620001ee565b9052565b916020620002259294936200021d60408201965f830190620001df565b0190620001f1565b565b6200023162000033565b3d5f823e3d90fd5b73e68b79e51bf826534ff37aa9cee71a3842ee9c7090565b6200025b62000463565b62000279620002736200026d6200003d565b62000093565b620000af565b602063095ea7b391620002956200028f620000f5565b62000121565b90620002b95f801995620002c5620002ac62000033565b9788968795869462000178565b84526004840162000200565b03925af18015620003c1576200038e575b50620002f5620002ef620002e962000239565b62000093565b620000af565b602063095ea7b391620003116200030b620000f5565b62000121565b90620003355f801995620003416200032862000033565b9788968795869462000178565b84526004840162000200565b03925af18015620003885762000355575b50565b6200037a9060203d811162000380575b6200037181836200014d565b810190620001af565b62000352565b503d62000365565b62000227565b620003b39060203d8111620003b9575b620003aa81836200014d565b810190620001af565b620002d6565b503d6200039e565b62000227565b90565b620003e3620003dd620003e992620003c7565b62000060565b620001ee565b90565b620003f86001620003ca565b90565b5f1b90565b906200040e5f1991620003fb565b9181191691161790565b620004316200042b6200043792620001ee565b62000060565b620001ee565b90565b90565b9062000457620004516200045f9262000418565b6200043a565b825462000400565b9055565b6200047862000471620003ec565b5f6200043d565b56fe60806040526004361015610013575b6100d4565b61001d5f3561002c565b63522bb7040361000e576100a1565b60e01c90565b60405190565b5f80fd5b5f80fd5b5f80fd5b60018060a01b031690565b61005890610044565b90565b6100648161004f565b0361006b57565b5f80fd5b9050359061007c8261005b565b565b9060208282031261009757610094915f0161006f565b90565b61003c565b5f0190565b346100cf576100b96100b436600461007e565b612c59565b6100c1610032565b806100cb8161009c565b0390f35b610038565b5f80fd5b6100e9906100e4612cf4565b610de9565b6100f1612d5e565b565b90565b61010a61010561010f92610044565b6100f3565b610044565b90565b61011b906100f6565b90565b61012790610112565b90565b61014773907e8c7d471877b4742da8aa53d257d0d565a47e61011e565b90565b610153906100f6565b90565b61015f9061014a565b90565b73e68b79e51bf826534ff37aa9cee71a3842ee9c7090565b5f80fd5b601f801991011690565b634e487b7160e01b5f52604160045260245ffd5b906101a69061017e565b810190811067ffffffffffffffff8211176101c057604052565b610188565b60e01b90565b905051906101d88261005b565b565b906020828203126101f3576101f0915f016101cb565b90565b61003c565b6102019061004f565b9052565b91602061022692949361021f60408201965f8301906101f8565b01906101f8565b565b610230610032565b3d5f823e3d90fd5b73d963b2236d227a0302e19f2f9595f424950dc18690565b610259906100f6565b90565b61026590610250565b90565b6102719061014a565b90565b90565b61028081610274565b0361028757565b5f80fd5b9050519061029882610277565b565b906020828203126102b3576102b0915f0161028b565b90565b61003c565b91906102cb905f602085019401906101f8565b565b90565b6102e46102df6102e9926102cd565b6100f3565b610274565b90565b60209181520190565b5f7f496e73756666696369656e7420435a555344206c697175696469747900000000910152565b610329601c6020926102ec565b610332816102f5565b0190565b61034b9060208101905f81830391015261031c565b90565b1561035557565b61035d610032565b62461bcd60e51b81528061037360048201610336565b0390fd5b90565b61038e61038961039392610377565b6100f3565b610274565b90565b5f7f496e73756666696369656e7420435a42206c6971756964697479000000000000910152565b6103ca601a6020926102ec565b6103d381610396565b0190565b6103ec9060208101905f8183039101526103bd565b90565b156103f657565b6103fe610032565b62461bcd60e51b815280610414600482016103d7565b0390fd5b6104219061014a565b90565b90565b61043b61043661044092610424565b6100f3565b610274565b90565b61044c906100f6565b90565b61045890610443565b90565b6104649061014a565b90565b5f91031261047157565b61003c565b61047f90610274565b9052565b9190610496905f60208501940190610476565b565b151590565b6104a681610498565b036104ad57565b5f80fd5b905051906104be8261049d565b565b906020828203126104d9576104d6915f016104b1565b90565b61003c565b9160206104ff9294936104f860408201965f8301906101f8565b0190610476565b565b90565b61051861051361051d92610501565b6100f3565b610274565b90565b90565b61053761053261053c92610520565b6100f3565b610274565b90565b634e487b7160e01b5f52601260045260245ffd5b634e487b7160e01b5f52601160045260245ffd5b61057361057991610274565b91610274565b908115610584570490565b61053f565b90565b6105a061059b6105a592610589565b6100f3565b610274565b90565b906105bb6105b4610032565b928361019c565b565b67ffffffffffffffff81116105d55760208091020190565b610188565b906105ec6105e7836105bd565b6105a8565b918252565b369037565b9061061b610603836105da565b9260208061061186936105bd565b92019103906105f1565b565b634e487b7160e01b5f52603260045260245ffd5b5190565b9061063f82610631565b811015610650576020809102010190565b61061d565b9061065f9061004f565b9052565b90565b61067a61067561067f92610663565b6100f3565b610274565b90565b61068b906100f6565b90565b61069790610682565b90565b6106a3906100f6565b90565b6106af9061069a565b90565b6106d76106d27371ab950a0c349103967e711b931c460e9580c63161068e565b6106a6565b90565b6106e39061014a565b90565b5f80fd5b67ffffffffffffffff81116107025760208091020190565b610188565b5f80fd5b9092919261072061071b826106ea565b6105a8565b938185526020808601920283019281841161075d57915b8383106107445750505050565b60208091610752848661028b565b815201920191610737565b610707565b9080601f830112156107805781602061077d9351910161070b565b90565b6106e6565b906020828203126107b5575f82015167ffffffffffffffff81116107b0576107ad9201610762565b90565b610040565b61003c565b60209181520190565b60200190565b6107d29061004f565b9052565b906107e3816020936107c9565b0190565b60200190565b9061080a6108046107fd84610631565b80936107ba565b926107c3565b905f5b81811061081a5750505090565b90919261083361082d60019286516107d6565b946107e7565b910191909161080d565b916108609261085360408201935f830190610476565b60208184039101526107ed565b90565b5190565b9061087182610863565b811015610882576020809102010190565b61061d565b6108919051610274565b90565b90565b6108ab6108a66108b092610894565b6100f3565b610274565b90565b6108bc906100f6565b90565b6108c8906108b3565b90565b6108d49061014a565b90565b6108e090610427565b9052565b9061092161092c916109339698979561091460809661090a60a08801945f890190610476565b60208701906108d7565b84820360408601526107ed565b9660608301906101f8565b0190610476565b565b90565b61094c61094761095192610935565b6100f3565b610274565b90565b61096361096991939293610274565b92610274565b820391821161097457565b610553565b60207f73206e6f74203000000000000000000000000000000000000000000000000000917f546f6b656e2062616c616e6365206f66207468697320636f6e747261637420695f8201520152565b6109d360276040926102ec565b6109dc81610979565b0190565b6109f59060208101905f8183039101526109c6565b90565b156109ff57565b610a07610032565b62461bcd60e51b815280610a1d600482016109e0565b0390fd5b610a2a906100f6565b90565b610a3690610a21565b90565b610a429061014a565b90565b5f7f435a55534420746f74616c20737570706c7920686173206368616e6765640000910152565b610a79601e6020926102ec565b610a8281610a45565b0190565b610a9b9060208101905f818303910152610a6c565b90565b15610aa557565b610aad610032565b62461bcd60e51b815280610ac360048201610a86565b0390fd5b5f7f435a4220746f74616c20737570706c7920686173206368616e67656400000000910152565b610afb601c6020926102ec565b610b0481610ac7565b0190565b610b1d9060208101905f818303910152610aee565b90565b15610b2757565b610b2f610032565b62461bcd60e51b815280610b4560048201610b08565b0390fd5b60207f6f74207468652073616d6520617320696e697469616c6c790000000000000000917f546f6b656e2062616c616e6365206f6620435a55534420706f6f6c206973206e5f8201520152565b610ba360386040926102ec565b610bac81610b49565b0190565b610bc59060208101905f818303910152610b96565b90565b15610bcf57565b610bd7610032565b62461bcd60e51b815280610bed60048201610bb0565b0390fd5b60207f207468652073616d6520617320696e697469616c6c7900000000000000000000917f546f6b656e2062616c616e6365206f6620435a4220706f6f6c206973206e6f745f8201520152565b610c4b60366040926102ec565b610c5481610bf1565b0190565b610c6d9060208101905f818303910152610c3e565b90565b15610c7757565b610c7f610032565b62461bcd60e51b815280610c9560048201610c58565b0390fd5b60207f6f74207468652073616d6520617320696e697469616c6c790000000000000000917f435a5553442062616c616e6365206f6620435a55534420706f6f6c206973206e5f8201520152565b610cf360386040926102ec565b610cfc81610c99565b0190565b610d159060208101905f818303910152610ce6565b90565b15610d1f57565b610d27610032565b62461bcd60e51b815280610d3d60048201610d00565b0390fd5b60207f68652073616d6520617320696e697469616c6c79000000000000000000000000917f435a422062616c616e6365206f6620435a4220706f6f6c206973206e6f7420745f8201520152565b610d9b60346040926102ec565b610da481610d41565b0190565b610dbd9060208101905f818303910152610d8e565b90565b15610dc757565b610dcf610032565b62461bcd60e51b815280610de560048201610da8565b0390fd5b610df9610df461012a565b610156565b602063e6a43905918390610e26610e0e610162565b94610e31610e1a610032565b968795869485946101c5565b845260048401610205565b03915afa908115612c54575f91612c26575b50610e54610e4f61012a565b610156565b602063e6a43905918490610e81610e69610238565b94610e8c610e75610032565b968795869485946101c5565b845260048401610205565b03915afa908115612c21575f91612bf3575b50610ee66020610ebc610eb7610eb2610162565b61025c565b610268565b6370a0823190610edb8692610ecf610032565b958694859384936101c5565b8352600483016102b8565b03915afa908115612bee575f91612bc0575b5090610f416020610f17610f12610f0d610238565b61025c565b610268565b6370a0823190610f368592610f2a610032565b958694859384936101c5565b8352600483016102b8565b03915afa908115612bbb575f91612b8d575b5092610f956020610f6b610f668861025c565b610268565b6370a0823190610f8a8592610f7e610032565b958694859384936101c5565b8352600483016102b8565b03915afa908115612b88575f91612b5a575b5090610fe96020610fbf610fba8961025c565b610268565b6370a0823190610fde8792610fd2610032565b958694859384936101c5565b8352600483016102b8565b03915afa908115612b55575f91612b27575b5091611030602061101a611015611010610162565b61025c565b610268565b6318160ddd90611028610032565b9384926101c5565b825281806110406004820161009c565b03915afa908115612b22575f91612af4575b50611086602061107061106b611066610238565b61025c565b610268565b6318160ddd9061107e610032565b9384926101c5565b825281806110966004820161009c565b03915afa908115612aef575f91612ac1575b50906110cf876110c96110c3681b1ae4d6e2ef5000006102d0565b91610274565b1161034e565b6110f6886110f06110ea6a01a784379d99db4200000061037a565b91610274565b116103ef565b611145602061111361110e611109610238565b61025c565b610268565b6370a082319061113a61112530610418565b9261112e610032565b958694859384936101c5565b8352600483016102b8565b03915afa908115612abc575f91612a8e575b5061116a6111645f610427565b91610274565b11612961575b6111bf602061118d611188611183610162565b61025c565b610268565b6370a08231906111b461119f30610418565b926111a8610032565b958694859384936101c5565b8352600483016102b8565b03915afa90811561295c575f9161292e575b506111e46111de5f610427565b91610274565b11612801575b61123260206112006111fb8c61025c565b610268565b6370a082319061122761121230610418565b9261121b610032565b958694859384936101c5565b8352600483016102b8565b03915afa9081156127fc575f916127ce575b506112576112515f610427565b91610274565b116126af575b61128687611280602861127a611274605092610504565b91610523565b90612dd0565b90610567565b5f611299611294600261058c565b6105f6565b6112bc6112a4610162565b6112b7836112b186610427565b90610635565b610655565b6112e06112c7610238565b6112db836112d56001610666565b90610635565b610655565b6112f06112eb6106b2565b6106da565b61131263d06ca61f94929461131d611306610032565b968795869485946101c5565b84526004840161083d565b03915afa9081156126aa5761134d91611348915f91612688575b506113426001610666565b90610867565b610887565b61135f61135a6003610897565b6105f6565b61138261136a610238565b61137d836113775f610427565b90610635565b610655565b61139f8b61139a836113946001610666565b90610635565b610655565b6113c36113aa610162565b6113be836113b8600261058c565b90610635565b610655565b6113db6113d66113d1610238565b6108bf565b6108cb565b6340c10f196113e930610418565b8492803b156126835761140f5f809461141a611403610032565b978896879586946101c5565b8452600484016104de565b03925af1801561267e57612652575b5061143c611437600261058c565b6105f6565b91611460611448610162565b61145b856114555f610427565b90610635565b610655565b61147d8c611478856114726001610666565b90610635565b610655565b61148d6114886106b2565b6106da565b635c11d79591905f93926114a030610418565b4291833b1561264d576114d46114c9935f979388946114bd610032565b9a8b998a9889976101c5565b8752600487016108e4565b03925af180156126485761261c575b506114fc6114f76114f2610162565b6108bf565b6108cb565b6340c10f1961150a30610418565b611559602061152761152261151d610162565b61025c565b610268565b6370a082319061154e61153930610418565b92611542610032565b958694859384936101c5565b8352600483016102b8565b03915afa80156126175761157f915f916125e9575b5061157960c8610938565b90610567565b92803b156125e4576115a45f80946115af611598610032565b978896879586946101c5565b8452600484016104de565b03925af180156125df576125b3575b5061160e60206115dc6115d76115d2610162565b61025c565b610268565b6370a08231906116036115ee30610418565b926115f7610032565b958694859384936101c5565b8352600483016102b8565b03915afa9081156125ae575f91612580575b506116358161162f600261058c565b90610567565b6116456116406106b2565b6106da565b635c11d795825f92869261165830610418565b4291833b1561257b5761168c611681935f97938894611675610032565b9a8b998a9889976101c5565b8752600487016108e4565b03925af180156125765761254a575b506116bb6116af6116aa6106b2565b6106da565b91635c11d79593610954565b905f93926116c830610418565b4291833b15612545576116fc6116f1935f979388946116e5610032565b9a8b998a9889976101c5565b8752600487016108e4565b03925af1801561254057612514575b5061171d6117188a61025c565b610268565b61176563a9059cbb9188908c60208b61173e6117398d9461025c565b610268565b61175a6370a0823161174e610032565b988994859384936101c5565b8352600483016102b8565b03915afa90811561250f576117896117a1925f9260209784926124e0575b50610954565b956117ac611795610032565b978896879586946101c5565b8452600484016104de565b03925af180156124db576124af575b506117cd6117c88a61025c565b610268565b61181d8a63a9059cbb9260206117eb6117e68a9461025c565b610268565b6370a08231906118126117fd30610418565b92611806610032565b978894859384936101c5565b8352600483016102b8565b03915afa9283156124aa575f93612474575b5061184f5f6020949561185a611843610032565b978896879586946101c5565b8452600484016104de565b03925af1801561246f57612443575b506118b2602061188061187b8c61025c565b610268565b6370a08231906118a761189230610418565b9261189b610032565b958694859384936101c5565b8352600483016102b8565b03915afa801561243e576118e0915f91612410575b506118da6118d45f610427565b91610274565b146109f8565b6118f86118f36118ee610238565b61044f565b61045b565b6379cc679087611945602061191b611916611911610238565b61025c565b610268565b6370a082319061193a8d9261192e610032565b958694859384936101c5565b8352600483016102b8565b03915afa801561240b57611962915f916123dd575b508c90610954565b92803b156123d8576119875f809461199261197b610032565b978896879586946101c5565b8452600484016104de565b03925af180156123d3576123a7575b506119ba6119b56119b0610162565b61044f565b61045b565b6379cc679085611a0760206119dd6119d86119d3610162565b61025c565b610268565b6370a08231906119fc8b926119f0610032565b958694859384936101c5565b8352600483016102b8565b03915afa80156123a257611a24915f91612374575b508b90610954565b92803b1561236f57611a495f8094611a54611a3d610032565b978896879586946101c5565b8452600484016104de565b03925af1801561236a5761233e575b50611a75611a7085610a2d565b610a39565b63fff6cae990803b1561233957611a98915f91611a90610032565b9384926101c5565b8252818381611aa96004820161009c565b03925af1801561233457612308575b50611aca611ac587610a2d565b610a39565b63fff6cae990803b1561230357611aed915f91611ae5610032565b9384926101c5565b8252818381611afe6004820161009c565b03925af180156122fe576122d2575b50611b5d6020611b2b611b26611b21610162565b61025c565b610268565b6370a0823190611b52611b3d30610418565b92611b46610032565b958694859384936101c5565b8352600483016102b8565b03915afa9081156122cd575f9161229f575b50611b82611b7c5f610427565b91610274565b11612172575b611bd76020611ba5611ba0611b9b610238565b61025c565b610268565b6370a0823190611bcc611bb730610418565b92611bc0610032565b958694859384936101c5565b8352600483016102b8565b03915afa90811561216d575f9161213f575b50611bfc611bf65f610427565b91610274565b1161200a575b611c36906020611c20611c1b611c16610162565b61025c565b610268565b6318160ddd90611c2e610032565b9485926101c5565b82528180611c466004820161009c565b03915afa801561200557611c68611c6e91611c74945f91611fd7575b50610274565b91610274565b14610a9e565b90611ca86020611c92611c8d611c88610238565b61025c565b610268565b6318160ddd90611ca0610032565b9384926101c5565b82528180611cb86004820161009c565b03915afa928315611fd257611ce4611cde611d2795611cea945f91611fa4575b50610274565b91610274565b14610b20565b6020611cfd611cf88a61025c565b610268565b6370a0823190611d1c8692611d10610032565b968794859384936101c5565b8352600483016102b8565b03915afa908115611f9f57611d9898611d64611d6e93611d69936020965f92611f68575b50611d58611d5e91610274565b91610274565b14610bc8565b61025c565b610268565b6370a0823190611d8d8692611d81610032565b9a8b94859384936101c5565b8352600483016102b8565b03915afa958615611f6357611e0d96602093611dce925f92611f2c575b50611dc2611dc891610274565b91610274565b14610c70565b611de6611de1611ddc610162565b61025c565b610268565b611e026370a08231611df6610032565b988994859384936101c5565b8352600483016102b8565b03915afa938415611f2757611e8294602093611e43925f92611ef0575b50611e37611e3d91610274565b91610274565b14610d18565b611e5b611e56611e51610238565b61025c565b610268565b611e776370a08231611e6b610032565b968794859384936101c5565b8352600483016102b8565b03915afa908115611eeb57611eb1925f92611eb3575b50611ea5611eab91610274565b91610274565b14610dc0565b565b611eab919250611edc611ea59160203d8111611ee4575b611ed4818361019c565b81019061029a565b929150611e98565b503d611eca565b610228565b611e3d919250611f18611e3791873d8111611f20575b611f10818361019c565b81019061029a565b929150611e2a565b503d611f06565b610228565b611dc8919250611f54611dc291873d8111611f5c575b611f4c818361019c565b81019061029a565b929150611db5565b503d611f42565b610228565b611d5e919250611f90611d5891893d8111611f98575b611f88818361019c565b81019061029a565b929150611d4b565b503d611f7e565b610228565b611fc5915060203d8111611fcb575b611fbd818361019c565b81019061029a565b5f611cd8565b503d611fb3565b610228565b611ff8915060203d8111611ffe575b611ff0818361019c565b81019061029a565b5f611c62565b503d611fe6565b610228565b61202261201d612018610238565b61044f565b61045b565b906342966c68612077602061204561204061203b610238565b61025c565b610268565b6370a082319061206c61205730610418565b92612060610032565b958694859384936101c5565b8352600483016102b8565b03915afa90811561213a575f9161210c575b50833b15612107576120ba936120af5f80946120a3610032565b978895869485936101c5565b835260048301610483565b03925af191821561210257611c36926120d6575b509050611c02565b6120f5905f3d81116120fb575b6120ed818361019c565b810190610467565b5f6120ce565b503d6120e3565b610228565b61017a565b61212d915060203d8111612133575b612125818361019c565b81019061029a565b5f612089565b503d61211b565b610228565b612160915060203d8111612166575b612158818361019c565b81019061029a565b5f611be9565b503d61214e565b610228565b61218a612185612180610162565b61044f565b61045b565b6342966c686121de60206121ac6121a76121a2610162565b61025c565b610268565b6370a08231906121d36121be30610418565b926121c7610032565b958694859384936101c5565b8352600483016102b8565b03915afa90811561229a575f9161226c575b50823b1561226757612221926122165f809461220a610032565b968795869485936101c5565b835260048301610483565b03925af1801561226257612236575b50611b88565b612255905f3d811161225b575b61224d818361019c565b810190610467565b5f612230565b503d612243565b610228565b61017a565b61228d915060203d8111612293575b612285818361019c565b81019061029a565b5f6121f0565b503d61227b565b610228565b6122c0915060203d81116122c6575b6122b8818361019c565b81019061029a565b5f611b6f565b503d6122ae565b610228565b6122f1905f3d81116122f7575b6122e9818361019c565b810190610467565b5f611b0d565b503d6122df565b610228565b61017a565b612327905f3d811161232d575b61231f818361019c565b810190610467565b5f611ab8565b503d612315565b610228565b61017a565b61235d905f3d8111612363575b612355818361019c565b810190610467565b5f611a63565b503d61234b565b610228565b61017a565b612395915060203d811161239b575b61238d818361019c565b81019061029a565b5f611a1c565b503d612383565b610228565b6123c6905f3d81116123cc575b6123be818361019c565b810190610467565b5f6119a1565b503d6123b4565b610228565b61017a565b6123fe915060203d8111612404575b6123f6818361019c565b81019061029a565b5f61195a565b503d6123ec565b610228565b612431915060203d8111612437575b612429818361019c565b81019061029a565b5f6118c7565b503d61241f565b610228565b6124639060203d8111612468575b61245b818361019c565b8101906104c0565b611869565b503d612451565b610228565b602093505f61249b61184f92863d81116124a3575b612493818361019c565b81019061029a565b94505061182f565b503d612489565b610228565b6124cf9060203d81116124d4575b6124c7818361019c565b8101906104c0565b6117bb565b503d6124bd565b610228565b612501919250883d8111612508575b6124f9818361019c565b81019061029a565b905f611783565b503d6124ef565b610228565b612533905f3d8111612539575b61252b818361019c565b810190610467565b5f61170b565b503d612521565b610228565b61017a565b612569905f3d811161256f575b612561818361019c565b810190610467565b5f61169b565b503d612557565b610228565b61017a565b6125a1915060203d81116125a7575b612599818361019c565b81019061029a565b5f611620565b503d61258f565b610228565b6125d2905f3d81116125d8575b6125ca818361019c565b810190610467565b5f6115be565b503d6125c0565b610228565b61017a565b61260a915060203d8111612610575b612602818361019c565b81019061029a565b5f61156e565b503d6125f8565b610228565b61263b905f3d8111612641575b612633818361019c565b810190610467565b5f6114e3565b503d612629565b610228565b61017a565b612671905f3d8111612677575b612669818361019c565b810190610467565b5f611429565b503d61265f565b610228565b61017a565b6126a491503d805f833e61269c818361019c565b810190610785565b5f611337565b610228565b6126c06126bb8a61025c565b610268565b6127108a63a9059cbb9260206126de6126d9339461025c565b610268565b6370a08231906127056126f030610418565b926126f9610032565b978894859384936101c5565b8352600483016102b8565b03915afa9283156127c9575f93612793575b506127425f6020949561274d612736610032565b978896879586946101c5565b8452600484016104de565b03925af1801561278e57612762575b5061125d565b6127829060203d8111612787575b61277a818361019c565b8101906104c0565b61275c565b503d612770565b610228565b602093505f6127ba61274292863d81116127c2575b6127b2818361019c565b81019061029a565b945050612722565b503d6127a8565b610228565b6127ef915060203d81116127f5575b6127e7818361019c565b81019061029a565b5f611244565b503d6127dd565b610228565b61281961281461280f610162565b61044f565b61045b565b6342966c6861286d602061283b612836612831610162565b61025c565b610268565b6370a082319061286261284d30610418565b92612856610032565b958694859384936101c5565b8352600483016102b8565b03915afa908115612929575f916128fb575b50823b156128f6576128b0926128a55f8094612899610032565b968795869485936101c5565b835260048301610483565b03925af180156128f1576128c5575b506111ea565b6128e4905f3d81116128ea575b6128dc818361019c565b810190610467565b5f6128bf565b503d6128d2565b610228565b61017a565b61291c915060203d8111612922575b612914818361019c565b81019061029a565b5f61287f565b503d61290a565b610228565b61294f915060203d8111612955575b612947818361019c565b81019061029a565b5f6111d1565b503d61293d565b610228565b61297961297461296f610238565b61044f565b61045b565b6342966c686129cd602061299b612996612991610238565b61025c565b610268565b6370a08231906129c26129ad30610418565b926129b6610032565b958694859384936101c5565b8352600483016102b8565b03915afa908115612a89575f91612a5b575b50823b15612a5657612a1092612a055f80946129f9610032565b968795869485936101c5565b835260048301610483565b03925af18015612a5157612a25575b50611170565b612a44905f3d8111612a4a575b612a3c818361019c565b810190610467565b5f612a1f565b503d612a32565b610228565b61017a565b612a7c915060203d8111612a82575b612a74818361019c565b81019061029a565b5f6129df565b503d612a6a565b610228565b612aaf915060203d8111612ab5575b612aa7818361019c565b81019061029a565b5f611157565b503d612a9d565b610228565b612ae2915060203d8111612ae8575b612ada818361019c565b81019061029a565b5f6110a8565b503d612ad0565b610228565b612b15915060203d8111612b1b575b612b0d818361019c565b81019061029a565b5f611052565b503d612b03565b610228565b612b48915060203d8111612b4e575b612b40818361019c565b81019061029a565b5f610ffb565b503d612b36565b610228565b612b7b915060203d8111612b81575b612b73818361019c565b81019061029a565b5f610fa7565b503d612b69565b610228565b612bae915060203d8111612bb4575b612ba6818361019c565b81019061029a565b5f610f53565b503d612b9c565b610228565b612be1915060203d8111612be7575b612bd9818361019c565b81019061029a565b5f610ef8565b503d612bcf565b610228565b612c14915060203d8111612c1a575b612c0c818361019c565b8101906101da565b5f610e9e565b503d612c02565b610228565b612c47915060203d8111612c4d575b612c3f818361019c565b8101906101da565b5f610e43565b503d612c35565b610228565b612c62906100d8565b565b5f1c90565b90565b612c78612c7d91612c64565b612c69565b90565b612c8a9054612c6c565b90565b612c97600261058c565b90565b5f1b90565b90612cab5f1991612c9a565b9181191691161790565b612cc9612cc4612cce92610274565b6100f3565b610274565b90565b90565b90612ce9612ce4612cf092612cb5565b612cd1565b8254612c9f565b9055565b612cfd5f612c80565b612d16612d10612d0b612c8d565b610274565b91610274565b14612d2e57612d2c612d26612c8d565b5f612cd4565b565b612d36610032565b633ee5aeb560e01b815280612d4d6004820161009c565b0390fd5b612d5b6001610666565b90565b612d6f612d69612d51565b5f612cd4565b565b5f90565b612d81612d8691612c64565b612cb5565b90565b612d98612d9e91939293610274565b92610274565b8201809211612da957565b610553565b612dba612dc091610274565b91610274565b908115612dcb570690565b61053f565b612e21612e2692612ddf612d71565b50612e1b612e0b612e03612dfd43612df76001610666565b90610954565b40612d75565b928590610954565b612e156001610666565b90612d89565b90612dae565b612d89565b9056fea26469706673582212201f4ed96e8a44875e7913691669d23a8210410e917281e1e25f35271c0f938efc64736f6c63430008170033","linkReferences":{}},"methodIdentifiers":{"run(address)":"522bb704"},"id":48}