{"abi":[{"type":"constructor","inputs":[{"name":"_admin","type":"address","internalType":"address"},{"name":"_subjectToken","type":"address","internalType":"contract IERC20Burnable"},{"name":"_baseToken","type":"address","internalType":"contract IERC20"},{"name":"_intermediateToken","type":"address","internalType":"contract IERC20"},{"name":"_router","type":"address","internalType":"contract IAmmRouter02"},{"name":"_liquidityRatio","type":"uint256","internalType":"uint256"}],"stateMutability":"nonpayable"},{"type":"function","name":"DEFAULT_ADMIN_ROLE","inputs":[],"outputs":[{"name":"","type":"bytes32","internalType":"bytes32"}],"stateMutability":"view"},{"type":"function","name":"SWAPPER_ROLE","inputs":[],"outputs":[{"name":"","type":"bytes32","internalType":"bytes32"}],"stateMutability":"view"},{"type":"function","name":"baseToken","inputs":[],"outputs":[{"name":"","type":"address","internalType":"contract IERC20"}],"stateMutability":"view"},{"type":"function","name":"getRoleAdmin","inputs":[{"name":"role","type":"bytes32","internalType":"bytes32"}],"outputs":[{"name":"","type":"bytes32","internalType":"bytes32"}],"stateMutability":"view"},{"type":"function","name":"getRoleMember","inputs":[{"name":"role","type":"bytes32","internalType":"bytes32"},{"name":"index","type":"uint256","internalType":"uint256"}],"outputs":[{"name":"","type":"address","internalType":"address"}],"stateMutability":"view"},{"type":"function","name":"getRoleMemberCount","inputs":[{"name":"role","type":"bytes32","internalType":"bytes32"}],"outputs":[{"name":"","type":"uint256","internalType":"uint256"}],"stateMutability":"view"},{"type":"function","name":"getRoleMembers","inputs":[{"name":"role","type":"bytes32","internalType":"bytes32"}],"outputs":[{"name":"","type":"address[]","internalType":"address[]"}],"stateMutability":"view"},{"type":"function","name":"grantRole","inputs":[{"name":"role","type":"bytes32","internalType":"bytes32"},{"name":"account","type":"address","internalType":"address"}],"outputs":[],"stateMutability":"nonpayable"},{"type":"function","name":"hasRole","inputs":[{"name":"role","type":"bytes32","internalType":"bytes32"},{"name":"account","type":"address","internalType":"address"}],"outputs":[{"name":"","type":"bool","internalType":"bool"}],"stateMutability":"view"},{"type":"function","name":"intermediateToken","inputs":[],"outputs":[{"name":"","type":"address","internalType":"contract IERC20"}],"stateMutability":"view"},{"type":"function","name":"liquidityRatio","inputs":[],"outputs":[{"name":"","type":"uint256","internalType":"uint256"}],"stateMutability":"view"},{"type":"function","name":"receiveETH","inputs":[],"outputs":[],"stateMutability":"payable"},{"type":"function","name":"renounceRole","inputs":[{"name":"role","type":"bytes32","internalType":"bytes32"},{"name":"callerConfirmation","type":"address","internalType":"address"}],"outputs":[],"stateMutability":"nonpayable"},{"type":"function","name":"revokeRole","inputs":[{"name":"role","type":"bytes32","internalType":"bytes32"},{"name":"account","type":"address","internalType":"address"}],"outputs":[],"stateMutability":"nonpayable"},{"type":"function","name":"router","inputs":[],"outputs":[{"name":"","type":"address","internalType":"contract IAmmRouter02"}],"stateMutability":"view"},{"type":"function","name":"subjectToken","inputs":[],"outputs":[{"name":"","type":"address","internalType":"contract IERC20Burnable"}],"stateMutability":"view"},{"type":"function","name":"supportsInterface","inputs":[{"name":"interfaceId","type":"bytes4","internalType":"bytes4"}],"outputs":[{"name":"","type":"bool","internalType":"bool"}],"stateMutability":"view"},{"type":"function","name":"swapBaseTokenForSubjectToken","inputs":[{"name":"_amount","type":"uint256","internalType":"uint256"},{"name":"_minAmountOut","type":"uint256","internalType":"uint256"}],"outputs":[],"stateMutability":"nonpayable"},{"type":"function","name":"swapIntermediateTokenForBaseToken","inputs":[{"name":"_amount","type":"uint256","internalType":"uint256"},{"name":"_minAmountOut","type":"uint256","internalType":"uint256"}],"outputs":[],"stateMutability":"nonpayable"},{"type":"function","name":"swapReceivedTokenForBaseToken","inputs":[{"name":"_receivedToken","type":"address","internalType":"contract IERC20"},{"name":"_minAmountOut","type":"uint256","internalType":"uint256"}],"outputs":[],"stateMutability":"nonpayable"},{"type":"function","name":"transferReceivedToken","inputs":[{"name":"_receivedToken","type":"address","internalType":"contract IERC20"},{"name":"_amount","type":"uint256","internalType":"uint256"}],"outputs":[],"stateMutability":"nonpayable"},{"type":"event","name":"RoleAdminChanged","inputs":[{"name":"role","type":"bytes32","indexed":true,"internalType":"bytes32"},{"name":"previousAdminRole","type":"bytes32","indexed":true,"internalType":"bytes32"},{"name":"newAdminRole","type":"bytes32","indexed":true,"internalType":"bytes32"}],"anonymous":false},{"type":"event","name":"RoleGranted","inputs":[{"name":"role","type":"bytes32","indexed":true,"internalType":"bytes32"},{"name":"account","type":"address","indexed":true,"internalType":"address"},{"name":"sender","type":"address","indexed":true,"internalType":"address"}],"anonymous":false},{"type":"event","name":"RoleRevoked","inputs":[{"name":"role","type":"bytes32","indexed":true,"internalType":"bytes32"},{"name":"account","type":"address","indexed":true,"internalType":"address"},{"name":"sender","type":"address","indexed":true,"internalType":"address"}],"anonymous":false},{"type":"error","name":"AccessControlBadConfirmation","inputs":[]},{"type":"error","name":"AccessControlUnauthorizedAccount","inputs":[{"name":"account","type":"address","internalType":"address"},{"name":"neededRole","type":"bytes32","internalType":"bytes32"}]},{"type":"error","name":"SafeERC20FailedOperation","inputs":[{"name":"token","type":"address","internalType":"address"}]}],"bytecode":{"object":"0x610120604052346200013f57620000266200001962000335565b949390939291926200039b565b6200003062000145565b612d6762000d63823960805181818161068a0152818161124a015281816113a0015281816113fe015281816115df01528181611635015281816116f9015261172c015260a051818181610904015281816112060152818161128c015281816114a60152818161150401528181611609015281816119f001528181611b5c0152611e96015260c05181818161023a01528181611b1701528181611e5201528181611ed80152611f36015260e051818181610a2a01528181610cb7015281816112bd0152818161131f015281816113d2015281816114d8015281816115ac01528181611bb101528181611c6b01528181611f0a0152611fde015261010051818181610889015261119c0152612d6790f35b6200014b565b60405190565b5f80fd5b601f801991011690565b634e487b7160e01b5f52604160045260245ffd5b9062000179906200014f565b810190811060018060401b038211176200019257604052565b62000159565b90620001af620001a762000145565b92836200016d565b565b5f80fd5b60018060a01b031690565b620001cb90620001b5565b90565b620001d981620001c0565b03620001e157565b5f80fd5b90505190620001f482620001ce565b565b6200020190620001c0565b90565b6200020f81620001f6565b036200021757565b5f80fd5b905051906200022a8262000204565b565b6200023790620001c0565b90565b62000245816200022c565b036200024d57565b5f80fd5b9050519062000260826200023a565b565b6200026d90620001c0565b90565b6200027b8162000262565b036200028357565b5f80fd5b90505190620002968262000270565b565b90565b620002a68162000298565b03620002ae57565b5f80fd5b90505190620002c1826200029b565b565b909160c0828403126200032f57620002de835f8401620001e5565b92620002ee81602085016200021b565b92620002fe826040830162000251565b926200032c62000312846060850162000251565b9362000322816080860162000287565b9360a001620002b2565b90565b620001b1565b6200035862003aca803803806200034c8162000198565b928339810190620002c3565b909192939495565b90565b90565b5f1b90565b620003846200037e6200038a9262000360565b62000366565b62000363565b90565b620003985f6200036b565b90565b9391620003c495939160805260a05260c05260e05261010052620003be6200038d565b6200040b565b50620003db620003d36200038d565b33906200045a565b50565b5f90565b620003ed9062000363565b90565b90620003fc90620003e2565b5f5260205260405f2090565b90565b62000415620003de565b506200042381839062000573565b918262000430575b505090565b6200044b6200044562000451936001620003f0565b62000408565b6200068c565b505f806200042b565b62000464620003de565b5062000472818390620006d2565b91826200047f575b505090565b6200049a62000494620004a0936001620003f0565b62000408565b6200078a565b505f806200047a565b151590565b90620004ba90620003e2565b5f5260205260405f2090565b90565b620004e2620004dc620004e892620001b5565b620004c6565b620001b5565b90565b620004f690620004c9565b90565b6200050490620004eb565b90565b906200051390620004f9565b5f5260205260405f2090565b906200052d60ff9162000366565b9181191691161790565b6200054290620004a9565b90565b90565b90620005626200055c6200056a9262000537565b62000545565b82546200051f565b9055565b5f0190565b6200057d620003de565b50620005966200058f82849062000802565b15620004a9565b5f146200063157620005c46001620005be5f620005b5818690620004ae565b01859062000507565b62000548565b90620005cf62000837565b90620006126200060b620006047f2f8788117e7eff1d82e926ec794901d17c78024a50270940304540a733656f0d95620003e2565b92620004f9565b92620004f9565b926200061d62000145565b8062000629816200056e565b0390a4600190565b50505f90565b6200064290620004c9565b90565b6200065e620006586200066492620001b5565b620004c6565b62000298565b90565b620006806200067a620006869262000298565b62000366565b62000363565b90565b90565b90620006c9620006c2620006bc620006b65f620006cf96620006ad620003de565b50019462000637565b62000645565b62000667565b9162000689565b620009b5565b90565b620006dc620003de565b50620006ea81839062000802565b5f146200078457620007175f620007115f62000708818690620004ae565b01859062000507565b62000548565b906200072262000837565b90620007656200075e620007577ff6391f5c32d9c69d2a47ea670b442974b53935d1edc7fd64eb21e047a839171b95620003e2565b92620004f9565b92620004f9565b926200077062000145565b806200077c816200056e565b0390a4600190565b50505f90565b90620007c7620007c0620007ba620007b45f620007cd96620007ab620003de565b50019462000637565b62000645565b62000667565b9162000689565b62000bee565b90565b5f1c90565b60ff1690565b620007ea620007f091620007d0565b620007d5565b90565b620007ff9054620007db565b90565b62000830915f620008236200082a936200081b620003de565b5082620004ae565b0162000507565b620007f3565b90565b5f90565b6200084162000833565b503390565b90565b5f5260205f2090565b634e487b7160e01b5f52603260045260245ffd5b5490565b620008758162000866565b82101562000892576200088a60019162000849565b910201905f90565b62000852565b1b90565b91906008620008bb910291620008b45f198462000898565b9262000898565b9181191691161790565b620008d090620007d0565b90565b9190620008ee620008e8620008f793620003e2565b620008c5565b9083546200089c565b9055565b9081549168010000000000000000831015620009305782620009279160016200092e950181556200086a565b90620008d3565b565b62000159565b5490565b906200094690620003e2565b5f5260205260405f2090565b90620009605f199162000366565b9181191691161790565b620009836200097d620009899262000298565b620004c6565b62000298565b90565b90565b90620009a9620009a3620009b1926200096a565b6200098c565b825462000952565b9055565b620009bf620003de565b50620009d8620009d182849062000d23565b15620004a9565b5f1462000a235762000a1862000a1e9262000a01620009f95f850162000846565b8290620008fb565b600162000a105f850162000936565b93016200093a565b6200098f565b600190565b50505f90565b90565b62000a3b62000a4191620007d0565b62000a29565b90565b62000a50905462000a2c565b90565b62000a6c62000a6662000a729262000360565b620004c6565b62000298565b90565b90565b62000a9162000a8b62000a979262000a75565b620004c6565b62000298565b90565b634e487b7160e01b5f52601160045260245ffd5b62000ac062000ac79193929362000298565b9262000298565b820391821162000ad357565b62000a9a565b5f5260205f2090565b62000aed8162000936565b82101562000b0a5762000b0260019162000ad9565b910201905f90565b62000852565b1c90565b90565b62000b2a90600862000b30930262000b10565b62000b14565b90565b9062000b40915462000b17565b90565b634e487b7160e01b5f52603160045260245ffd5b5f90565b62000b719162000b6a62000b57565b91620008d3565b565b62000b7e8162000866565b801562000ba457600190039062000ba162000b9a83836200086a565b9062000b5b565b55565b62000b43565b919062000bc562000bbf62000bce936200096a565b6200098c565b9083546200089c565b9055565b5f90565b62000bec9162000be562000bd2565b9162000baa565b565b62000bf8620003de565b5062000c1362000c0d6001830184906200093a565b62000a44565b908162000c2b62000c245f62000a53565b9162000298565b14155f1462000d1c5762000cc192600162000cbb928462000c595f9662000c528562000a78565b9062000aae565b62000c7c62000c6a88850162000936565b62000c758662000a78565b9062000aae565b8162000c9362000c8c8362000298565b9162000298565b0362000cc6575b50505062000cb462000cae86830162000846565b62000b73565b016200093a565b62000bd6565b600190565b62000d139262000d0362000cec62000ce562000d0d948c890162000ae2565b9062000b33565b9362000cfc85918c890162000ae2565b90620008d3565b918585016200093a565b6200098f565b5f808062000c9a565b5050505f90565b62000d4791600162000d419262000d39620003de565b50016200093a565b62000a44565b62000d5d62000d565f62000a53565b9162000298565b14159056fe60806040526004361015610013575b610aaf565b61001d5f3561016c565b806301ffc9a7146101675780630f24df5d14610162578063248a9ca31461015d5780632f2ff15d1461015857806336568abe146101535780633ecfd51e1461014e57806340e003d2146101495780634120599d146101445780635182ff501461013f5780639010d07c1461013a57806391d14854146101355780639cbdbd2614610130578063a09e4e1c1461012b578063a217fddf14610126578063a3246ad314610121578063a83019fa1461011c578063c55dae6314610117578063ca15c87314610112578063d547741f1461010d578063df668eca146101085763f887ea400361000e57610a7a565b6109f3565b610990565b61095b565b610926565b6108cd565b610852565b61077e565b61070f565b6106da565b610652565b61061c565b610599565b610565565b6104d5565b610459565b610425565b6103f1565b61035b565b6102c0565b6101f4565b60e01c90565b60405190565b5f80fd5b5f80fd5b63ffffffff60e01b1690565b61019581610180565b0361019c57565b5f80fd5b905035906101ad8261018c565b565b906020828203126101c8576101c5915f016101a0565b90565b61017c565b151590565b6101db906101cd565b9052565b91906101f2905f602085019401906101d2565b565b346102245761022061020f61020a3660046101af565b610ab7565b610217610172565b918291826101df565b0390f35b610178565b5f91031261023357565b61017c565b7f000000000000000000000000000000000000000000000000000000000000000090565b60018060a01b031690565b90565b61027e6102796102839261025c565b610267565b61025c565b90565b61028f9061026a565b90565b61029b90610286565b90565b6102a790610292565b9052565b91906102be905f6020850194019061029e565b565b346102f0576102d0366004610229565b6102ec6102db610238565b6102e3610172565b918291826102ab565b0390f35b610178565b90565b610301816102f5565b0361030857565b5f80fd5b90503590610319826102f8565b565b9060208282031261033457610331915f0161030c565b90565b61017c565b610342906102f5565b9052565b9190610359905f60208501940190610339565b565b3461038b5761038761037661037136600461031b565b610b46565b61037e610172565b91829182610346565b0390f35b610178565b6103999061025c565b90565b6103a581610390565b036103ac57565b5f80fd5b905035906103bd8261039c565b565b91906040838203126103e757806103db6103e4925f860161030c565b936020016103b0565b90565b61017c565b5f0190565b346104205761040a6104043660046103bf565b90610b91565b610412610172565b8061041c816103ec565b0390f35b610178565b346104545761043e6104383660046103bf565b90610b9d565b610446610172565b80610450816103ec565b0390f35b610178565b610464366004610229565b61046c610cad565b610474610172565b8061047e816103ec565b0390f35b90565b61048e81610482565b0361049557565b5f80fd5b905035906104a682610485565b565b91906040838203126104d057806104c46104cd925f8601610499565b93602001610499565b90565b61017c565b34610504576104ee6104e83660046104a8565b90611a91565b6104f6610172565b80610500816103ec565b0390f35b610178565b61051290610390565b90565b61051e81610509565b0361052557565b5f80fd5b9050359061053682610515565b565b9190604083820312610560578061055461055d925f8601610529565b93602001610499565b90565b61017c565b346105945761057e610578366004610538565b90611e0f565b610586610172565b80610590816103ec565b0390f35b610178565b346105c8576105b26105ac3660046104a8565b906120fc565b6105ba610172565b806105c4816103ec565b0390f35b610178565b91906040838203126105f557806105e96105f2925f860161030c565b93602001610499565b90565b61017c565b61060390610390565b9052565b919061061a905f602085019401906105fa565b565b3461064d576106496106386106323660046105cd565b90612125565b610640610172565b91829182610607565b0390f35b610178565b346106835761067f61066e6106683660046103bf565b90612196565b610676610172565b918291826101df565b0390f35b610178565b7f000000000000000000000000000000000000000000000000000000000000000090565b6106b590610286565b90565b6106c1906106ac565b9052565b91906106d8905f602085019401906106b8565b565b3461070a576106ea366004610229565b6107066106f5610688565b6106fd610172565b918291826106c5565b0390f35b610178565b3461073e57610728610722366004610538565b906121bf565b610730610172565b8061073a816103ec565b0390f35b610178565b90565b5f1b90565b61075f61075a61076492610743565b610746565b6102f5565b90565b6107705f61074b565b90565b61077b610767565b90565b346107ae5761078e366004610229565b6107aa610799610773565b6107a1610172565b91829182610346565b0390f35b610178565b5190565b60209181520190565b60200190565b6107cf90610390565b9052565b906107e0816020936107c6565b0190565b60200190565b906108076108016107fa846107b3565b80936107b7565b926107c0565b905f5b8181106108175750505090565b90919261083061082a60019286516107d3565b946107e4565b910191909161080a565b61084f9160208201915f8184039101526107ea565b90565b346108825761087e61086d61086836600461031b565b6121dd565b610875610172565b9182918261083a565b0390f35b610178565b7f000000000000000000000000000000000000000000000000000000000000000090565b6108b490610482565b9052565b91906108cb905f602085019401906108ab565b565b346108fd576108dd366004610229565b6108f96108e8610887565b6108f0610172565b918291826108b8565b0390f35b610178565b7f000000000000000000000000000000000000000000000000000000000000000090565b3461095657610936366004610229565b610952610941610902565b610949610172565b918291826102ab565b0390f35b610178565b3461098b5761098761097661097136600461031b565b612208565b61097e610172565b918291826108b8565b0390f35b610178565b346109bf576109a96109a33660046103bf565b90612259565b6109b1610172565b806109bb816103ec565b0390f35b610178565b7f724f6a44d576143e18c60911798b2b15551ca96bd8f7cb7524b8fa36253a26d890565b6109f06109c4565b90565b34610a2357610a03366004610229565b610a1f610a0e6109e8565b610a16610172565b91829182610346565b0390f35b610178565b7f000000000000000000000000000000000000000000000000000000000000000090565b610a5590610286565b90565b610a6190610a4c565b9052565b9190610a78905f60208501940190610a58565b565b34610aaa57610a8a366004610229565b610aa6610a95610a28565b610a9d610172565b91829182610a65565b0390f35b610178565b5f80fd5b5f90565b610abf610ab3565b5080610ada610ad4635a05180f60e01b610180565b91610180565b14908115610ae7575b5090565b610af19150612265565b5f610ae3565b5f90565b610b04906102f5565b90565b90610b1190610afb565b5f5260205260405f2090565b5f1c90565b90565b610b31610b3691610b1d565b610b22565b90565b610b439054610b25565b90565b6001610b5e610b6492610b57610af7565b505f610b07565b01610b39565b90565b90610b8291610b7d610b7882610b46565b6122a5565b610b84565b565b90610b8e916122b9565b50565b90610b9b91610b67565b565b9080610bb8610bb2610bad6122fc565b610390565b91610390565b03610bc957610bc691612309565b50565b610bd1610172565b63334bd91960e11b815280610be8600482016103ec565b0390fd5b5f80fd5b601f801991011690565b634e487b7160e01b5f52604160045260245ffd5b90610c1890610bf0565b810190811067ffffffffffffffff821117610c3257604052565b610bfa565b60e01b90565b90505190610c4a8261039c565b565b90602082820312610c6557610c62915f01610c3d565b90565b61017c565b610c72610172565b3d5f823e3d90fd5b610c839061026a565b90565b610c8f90610c7a565b90565b610c9b90610286565b90565b5f910312610ca857565b61017c565b610cf16020610cdb7f0000000000000000000000000000000000000000000000000000000000000000610a4c565b63ad5c464890610ce9610172565b938492610c37565b82528180610d01600482016103ec565b03915afa908115610dd257610d2691610d21915f91610da4575b50610c86565b610c92565b63d0e30db0349190813b15610d9f575f91610d4d91610d43610172565b9485938492610c37565b825281610d5c600482016103ec565b03925af18015610d9a57610d6e575b50565b610d8d905f3d8111610d93575b610d858183610c0e565b810190610c9e565b5f610d6b565b503d610d7b565b610c6a565b610bec565b610dc5915060203d8111610dcb575b610dbd8183610c0e565b810190610c4c565b5f610d1b565b503d610db3565b610c6a565b90610df191610dec610de76109c4565b6122a5565b611174565b565b610e07610e02610e0c92610743565b610267565b610482565b90565b610e1890610286565b90565b90505190610e2882610485565b565b90602082820312610e4357610e40915f01610e1b565b90565b61017c565b634e487b7160e01b5f52601160045260245ffd5b610e6b610e7191939293610482565b92610482565b91610e7d838202610482565b928184041490151715610e8c57565b610e48565b90565b610ea8610ea3610ead92610e91565b610267565b610482565b90565b634e487b7160e01b5f52601260045260245ffd5b610ed0610ed691610482565b91610482565b908115610ee1570490565b610eb0565b90565b610efd610ef8610f0292610ee6565b610267565b610482565b90565b610f14610f1a91939293610482565b92610482565b8203918211610f2557565b610e48565b90610f3d610f36610172565b9283610c0e565b565b67ffffffffffffffff8111610f575760208091020190565b610bfa565b90610f6e610f6983610f3f565b610f2a565b918252565b369037565b90610f9d610f8583610f5c565b92602080610f938693610f3f565b9201910390610f73565b565b634e487b7160e01b5f52603260045260245ffd5b90610fbd826107b3565b811015610fce576020809102010190565b610f9f565b90610fdd90610390565b9052565b90565b610ff8610ff3610ffd92610fe1565b610267565b610482565b90565b611009816101cd565b0361101057565b5f80fd5b9050519061102182611000565b565b9060208282031261103c57611039915f01611014565b90565b61017c565b91602061106292949361105b60408201965f8301906105fa565b01906108ab565b565b906110a16110ac916110b39698979561109460809661108a60a08801945f8901906108ab565b60208701906108ab565b84820360408601526107ea565b9660608301906105fa565b01906108ab565b565b90916060828403126110ea576110e76110d0845f8501610e1b565b936110de8160208601610e1b565b93604001610e1b565b90565b61017c565b6110f890610fe4565b9052565b959391989796949290986101008701995f8801611118916105fa565b60208701611125916105fa565b60408601611132916108ab565b6060850161113f916108ab565b6080840161114c916110ef565b60a08301611159916110ef565b60c08201611166916105fa565b60e001611172916108ab565b565b806111876111815f610df3565b91610482565b146119e5575b6111ea6111e26111d16111c1847f000000000000000000000000000000000000000000000000000000000000000090610e5c565b6111cb6002610e94565b90610ec4565b6111dc612710610ee9565b90610ec4565b918290610f05565b916111fd6111f86002610e94565b610f78565b9061124261122a7f0000000000000000000000000000000000000000000000000000000000000000610292565b61123d846112375f610df3565b90610fb3565b610fd3565b61128761126e7f00000000000000000000000000000000000000000000000000000000000000006106ac565b6112828461127c6001610fe4565b90610fb3565b610fd3565b6112b07f0000000000000000000000000000000000000000000000000000000000000000610292565b602063095ea7b3916112e17f0000000000000000000000000000000000000000000000000000000000000000610a4c565b906112ff5f899561130a6112f3610172565b97889687958694610c37565b845260048401611041565b03925af180156119e0576119b4575b506113437f0000000000000000000000000000000000000000000000000000000000000000610a4c565b90635c11d795918591939261135730610e0f565b4291833b156119af5761138b611380935f97938894611374610172565b9a8b998a988997610c37565b875260048701611064565b03925af180156119aa5761197e575b506113c47f00000000000000000000000000000000000000000000000000000000000000006106ac565b61145463095ea7b3916113f67f0000000000000000000000000000000000000000000000000000000000000000610a4c565b9060206114227f00000000000000000000000000000000000000000000000000000000000000006106ac565b6370a082319061144961143430610e0f565b9261143d610172565b97889485938493610c37565b835260048301610607565b03915afa928315611979575f93611943575b506114865f6020949561149161147a610172565b97889687958694610c37565b845260048401611041565b03925af1801561193e57611912575b506114ca7f0000000000000000000000000000000000000000000000000000000000000000610292565b61155a63095ea7b3916114fc7f0000000000000000000000000000000000000000000000000000000000000000610a4c565b9060206115287f0000000000000000000000000000000000000000000000000000000000000000610292565b6370a082319061154f61153a30610e0f565b92611543610172565b97889485938493610c37565b835260048301610607565b03915afa92831561190d575f936118d7575b5061158c5f60209495611597611580610172565b97889687958694610c37565b845260048401611041565b03925af180156118d2576118a6575b506115d07f0000000000000000000000000000000000000000000000000000000000000000610a4c565b9163e8e337009261168b6116037f00000000000000000000000000000000000000000000000000000000000000006106ac565b9261162d7f0000000000000000000000000000000000000000000000000000000000000000610292565b9560206116597f00000000000000000000000000000000000000000000000000000000000000006106ac565b6370a082319061168061166b30610e0f565b92611674610172565b97889485938493610c37565b835260048301610607565b03915afa9283156118a1576060966116bd5f946116b86116d9976116e4958891611873575b508290610e5c565b610ec4565b90600180869242946116cd610172565b9d8e9c8d9b8c9a610c37565b8a5260048a016110fc565b03925af1801561186e57611840575b5061171d7f00000000000000000000000000000000000000000000000000000000000000006106ac565b6342966c6861178260206117507f00000000000000000000000000000000000000000000000000000000000000006106ac565b6370a082319061177761176230610e0f565b9261176b610172565b95869485938493610c37565b835260048301610607565b03915afa90811561183b575f9161180d575b50823b15611808576117c5926117ba5f80946117ae610172565b96879586948593610c37565b8352600483016108b8565b03925af18015611803576117d7575b50565b6117f6905f3d81116117fc575b6117ee8183610c0e565b810190610c9e565b5f6117d4565b503d6117e4565b610c6a565b610bec565b61182e915060203d8111611834575b6118268183610c0e565b810190610e2a565b5f611794565b503d61181c565b610c6a565b6118609060603d8111611867575b6118588183610c0e565b8101906110b5565b50506116f3565b503d61184e565b610c6a565b611894915060203d811161189a575b61188c8183610c0e565b810190610e2a565b5f6116b0565b503d611882565b610c6a565b6118c69060203d81116118cb575b6118be8183610c0e565b810190611023565b6115a6565b503d6118b4565b610c6a565b602093505f6118fe61158c92863d8111611906575b6118f68183610c0e565b810190610e2a565b94505061156c565b503d6118ec565b610c6a565b6119329060203d8111611937575b61192a8183610c0e565b810190611023565b6114a0565b503d611920565b610c6a565b602093505f61196a61148692863d8111611972575b6119628183610c0e565b810190610e2a565b945050611466565b503d611958565b610c6a565b61199d905f3d81116119a3575b6119958183610c0e565b810190610c9e565b5f61139a565b503d61198b565b610c6a565b610bec565b6119d49060203d81116119d9575b6119cc8183610c0e565b810190611023565b611319565b503d6119c2565b610c6a565b50611a466020611a147f0000000000000000000000000000000000000000000000000000000000000000610292565b6370a0823190611a3b611a2630610e0f565b92611a2f610172565b95869485938493610c37565b835260048301610607565b03915afa908115611a8c575f91611a5e575b5061118d565b611a7f915060203d8111611a85575b611a778183610c0e565b810190610e2a565b5f611a58565b503d611a6d565b610c6a565b90611a9b91610dd7565b565b90611ab791611ab2611aad6109c4565b6122a5565b611ad8565b565b90565b611ad0611acb611ad592611ab9565b610267565b610482565b90565b611aea611ae56003611abc565b610f78565b91611b0f611af783610292565b611b0a85611b045f610df3565b90610fb3565b610fd3565b611b54611b3b7f0000000000000000000000000000000000000000000000000000000000000000610292565b611b4f85611b496001610fe4565b90610fb3565b610fd3565b611b99611b807f0000000000000000000000000000000000000000000000000000000000000000610292565b611b9485611b8e6002610e94565b90610fb3565b610fd3565b611c13611ba583610292565b9163095ea7b392611bd57f0000000000000000000000000000000000000000000000000000000000000000610a4c565b906020611be187610292565b6370a0823190611c08611bf330610e0f565b92611bfc610172565b98899485938493610c37565b835260048301610607565b03915afa938415611e0a575f94611dd2575b50611c465f6020949596611c51611c3a610172565b98899687958694610c37565b845260048401611041565b03925af1918215611dcd57611cd292611da1575b50611c8f7f0000000000000000000000000000000000000000000000000000000000000000610a4c565b906020611ca0635c11d79595610292565b6370a0823190611cc7611cb230610e0f565b92611cbb610172565b97889485938493610c37565b835260048301610607565b03915afa928315611d9c575f93611d6c575b509392611cf030610e0f565b4291833b15611d6757611d24611d19935f97938894611d0d610172565b9a8b998a988997610c37565b875260048701611064565b03925af18015611d6257611d36575b50565b611d55905f3d8111611d5b575b611d4d8183610c0e565b810190610c9e565b5f611d33565b503d611d43565b610c6a565b610bec565b611d8e91935060203d8111611d95575b611d868183610c0e565b810190610e2a565b915f611ce4565b503d611d7c565b610c6a565b611dc19060203d8111611dc6575b611db98183610c0e565b810190611023565b611c65565b503d611daf565b610c6a565b60209394505f611dfa611c4692863d8111611e03575b611df28183610c0e565b810190610e2a565b95945050611c25565b503d611de8565b610c6a565b90611e1991611a9d565b565b90611e3591611e30611e2b6109c4565b6122a5565b611e37565b565b611e49611e446002610e94565b610f78565b91611e8e611e767f0000000000000000000000000000000000000000000000000000000000000000610292565b611e8985611e835f610df3565b90610fb3565b610fd3565b611ed3611eba7f0000000000000000000000000000000000000000000000000000000000000000610292565b611ece85611ec86001610fe4565b90610fb3565b610fd3565b611efc7f0000000000000000000000000000000000000000000000000000000000000000610292565b611f8c63095ea7b391611f2e7f0000000000000000000000000000000000000000000000000000000000000000610a4c565b906020611f5a7f0000000000000000000000000000000000000000000000000000000000000000610292565b6370a0823190611f81611f6c30610e0f565b92611f75610172565b97889485938493610c37565b835260048301610607565b03915afa9283156120f7575f936120c1575b50611fbe5f60209495611fc9611fb2610172565b97889687958694610c37565b845260048401611041565b03925af180156120bc57612090575b506120027f0000000000000000000000000000000000000000000000000000000000000000610a4c565b635c11d7959291939261201430610e0f565b4291833b1561208b5761204861203d935f97938894612031610172565b9a8b998a988997610c37565b875260048701611064565b03925af180156120865761205a575b50565b612079905f3d811161207f575b6120718183610c0e565b810190610c9e565b5f612057565b503d612067565b610c6a565b610bec565b6120b09060203d81116120b5575b6120a88183610c0e565b810190611023565b611fd8565b503d61209e565b610c6a565b602093505f6120e8611fbe92863d81116120f0575b6120e08183610c0e565b810190610e2a565b945050611f9e565b503d6120d6565b610c6a565b9061210691611e1b565b565b5f90565b9061211690610afb565b5f5260205260405f2090565b90565b9061214561214061214a93612138612108565b50600161210c565b612122565b61239b565b90565b61215690610286565b90565b906121639061214d565b5f5260205260405f2090565b60ff1690565b61218161218691610b1d565b61216f565b90565b6121939054612175565b90565b6121bc915f6121b16121b7936121aa610ab3565b5082610b07565b01612159565b612189565b90565b906121d69190336121cf30610e0f565b919261242a565b565b606090565b6121fc6121f7612201926121ef6121d8565b50600161210c565b612122565b61247a565b90565b5f90565b61222761222261222c9261221a612204565b50600161210c565b612122565b6124a2565b90565b9061224a9161224561224082610b46565b6122a5565b61224c565b565b9061225691612309565b50565b906122639161222f565b565b61226d610ab3565b5080612288612282637965db0b60e01b610180565b91610180565b14908115612295575b5090565b61229f91506124c1565b5f612291565b6122b7906122b16122fc565b9061250a565b565b6122c1610ab3565b506122cd818390612591565b91826122d9575b505090565b6122ef6122ea6122f493600161210c565b612122565b612680565b505f806122d4565b612304612108565b503390565b612311610ab3565b5061231d8183906126ba565b9182612329575b505090565b61233f61233a61234493600161210c565b612122565b61275b565b505f80612324565b90565b61236361235e61236892610482565b610267565b610482565b90565b61237761237c91610b1d565b61234f565b90565b61239361238e61239892610482565b610267565b61025c565b90565b6123c66123c16123d0936123bc5f6123cb956123b5612108565b500161234c565b6127f4565b61236b565b61237f565b610286565b90565b63ffffffff1690565b6123f06123eb6123f5926123d3565b610c37565b610180565b90565b604090612421612428949695939661241760608401985f8501906105fa565b60208301906105fa565b01906108ab565b565b6004926124646124789593612473939461244b6323b872dd929491926123dc565b93612454610172565b97889560208701908152016123f8565b60208201810382520383610c0e565b612815565b565b6124915f6124969261248a6121d8565b500161234c565b6129a1565b61249e6121d8565b5090565b6124b95f6124be926124b2612204565b500161234c565b6129b8565b90565b6124c9610ab3565b506124e36124dd6301ffc9a760e01b610180565b91610180565b1490565b91602061250892949361250160408201965f8301906105fa565b0190610339565b565b9061251f612519838390612196565b156101cd565b612527575050565b612548612532610172565b92839263e2517d3f60e01b8452600484016124e7565b0390fd5b9061255860ff91610746565b9181191691161790565b61256b906101cd565b90565b90565b9061258661258161258d92612562565b61256e565b825461254c565b9055565b612599610ab3565b506125ae6125a8828490612196565b156101cd565b5f14612636576125d560016125d05f6125c8818690610b07565b018590612159565b612571565b906125de6122fc565b9061261b61261561260f7f2f8788117e7eff1d82e926ec794901d17c78024a50270940304540a733656f0d95610afb565b9261214d565b9261214d565b92612624610172565b8061262e816103ec565b0390a4600190565b50505f90565b6126459061026a565b90565b61265c6126576126619261025c565b610267565b610482565b90565b61267861267361267d92610482565b610746565b6102f5565b90565b906126b26126ac6126a76126a25f6126b79661269a610ab3565b50019461263c565b612648565b612664565b9161234c565b612ae2565b90565b6126c2610ab3565b506126ce818390612196565b5f14612755576126f45f6126ef5f6126e7818690610b07565b018590612159565b612571565b906126fd6122fc565b9061273a61273461272e7ff6391f5c32d9c69d2a47ea670b442974b53935d1edc7fd64eb21e047a839171b95610afb565b9261214d565b9261214d565b92612743610172565b8061274d816103ec565b0390a4600190565b50505f90565b9061278d61278761278261277d5f61279296612775610ab3565b50019461263c565b612648565b612664565b9161234c565b612bf6565b90565b5490565b5f5260205f2090565b6127ab81612795565b8210156127c5576127bd600191612799565b910201905f90565b610f9f565b1c90565b6127de9060086127e393026127ca565b610b22565b90565b906127f191546127ce565b90565b612812915f61280c92612805610af7565b50016127a2565b906127e6565b90565b905f602091612822612204565b5061282b612204565b50828151910182855af1156128c5573d5f519061285061284a5f610df3565b91610482565b145f146128ab575061286181610292565b3b61287461286e5f610df3565b91610482565b145b61287d5750565b6128896128a791610292565b612891610172565b918291635274afe760e01b835260048301610607565b0390fd5b6128be6128b86001610fe4565b91610482565b1415612876565b6040513d5f823e3d90fd5b606090565b60209181520190565b6128e7906102f5565b9052565b906128f8816020936128de565b0190565b6129069054610b25565b90565b60010190565b9061292c61292661291f84612795565b80936128d5565b92612799565b905f5b81811061293c5750505090565b90919261295c612956600192612951876128fc565b6128eb565b94612909565b910191909161292f565b906129709161290f565b90565b9061299361298c92612983610172565b93848092612966565b0383610c0e565b565b61299e90612973565b90565b5f6129b5916129ae6128d0565b5001612995565b90565b5f6129cc916129c5612204565b5001612795565b90565b90565b5f5260205f2090565b5490565b6129e8816129db565b821015612a02576129fa6001916129d2565b910201905f90565b610f9f565b1b90565b91906008612a26910291612a205f1984612a07565b92612a07565b9181191691161790565b612a3990610b1d565b90565b9190612a52612a4d612a5a93610afb565b612a30565b908354612a0b565b9055565b9081549168010000000000000000831015612a8e5782612a86916001612a8c950181556129df565b90612a3c565b565b610bfa565b90612a9d90610afb565b5f5260205260405f2090565b90612ab55f1991610746565b9181191691161790565b90565b90612ad7612ad2612ade9261234f565b612abf565b8254612aa9565b9055565b612aea610ab3565b50612aff612af9828490612cfc565b156101cd565b5f14612b3f57612b35612b3a92612b21612b1a5f85016129cf565b8290612a5e565b6001612b2e5f8501612795565b9301612a93565b612ac2565b600190565b50505f90565b90565b612b54612b5991610b1d565b612b45565b90565b612b669054612b48565b90565b634e487b7160e01b5f52603160045260245ffd5b612b8f91612b89610af7565b91612a3c565b565b612b9a816129db565b8015612bbb576001900390612bb8612bb283836129df565b90612b7d565b55565b612b69565b9190612bd6612bd1612bde9361234f565b612abf565b908354612a0b565b9055565b612bf491612bee612204565b91612bc0565b565b612bfe610ab3565b50612c15612c10600183018490612a93565b612b5c565b9081612c29612c235f610df3565b91610482565b14155f14612cf557612ca7926001612ca29284612c505f96612c4a85610fe4565b90610f05565b612c6d612c5e888501612795565b612c6786610fe4565b90610f05565b81612c80612c7a83610482565b91610482565b03612cac575b505050612c9c612c978683016129cf565b612b91565b01612a93565b612be2565b600190565b612ced92612cdf612ccb612cc5612ce8948c89016127a2565b906127e6565b93612cd985918c89016127a2565b90612a3c565b91858501612a93565b612ac2565b5f8080612c86565b5050505f90565b612d1a916001612d1592612d0e610ab3565b5001612a93565b612b5c565b612d2c612d265f610df3565b91610482565b14159056fea264697066735822122042dc86277e71632065dcff4db98b8fcd294c34db38ae2efb66f09f25fbd5842264736f6c63430008170033","linkReferences":{}},"methodIdentifiers":{"DEFAULT_ADMIN_ROLE()":"a217fddf","SWAPPER_ROLE()":"df668eca","baseToken()":"c55dae63","getRoleAdmin(bytes32)":"248a9ca3","getRoleMember(bytes32,uint256)":"9010d07c","getRoleMemberCount(bytes32)":"ca15c873","getRoleMembers(bytes32)":"a3246ad3","grantRole(bytes32,address)":"2f2ff15d","hasRole(bytes32,address)":"91d14854","intermediateToken()":"0f24df5d","liquidityRatio()":"a83019fa","receiveETH()":"3ecfd51e","renounceRole(bytes32,address)":"36568abe","revokeRole(bytes32,address)":"d547741f","router()":"f887ea40","subjectToken()":"9cbdbd26","supportsInterface(bytes4)":"01ffc9a7","swapBaseTokenForSubjectToken(uint256,uint256)":"40e003d2","swapIntermediateTokenForBaseToken(uint256,uint256)":"5182ff50","swapReceivedTokenForBaseToken(address,uint256)":"4120599d","transferReceivedToken(address,uint256)":"a09e4e1c"},"id":77}