{"abi":[{"type":"function","name":"Q112","inputs":[],"outputs":[{"name":"","type":"uint256","internalType":"uint256"}],"stateMutability":"view"},{"type":"function","name":"RESOLUTION","inputs":[],"outputs":[{"name":"","type":"uint8","internalType":"uint8"}],"stateMutability":"view"}],"bytecode":{"object":"0x60806040523461002357610011610028565b6101ac6100338239308150506101ac90f35b61002e565b60405190565b5f80fdfe60806040526004361015610013575b610172565b61001d5f3561003c565b80633bf7a83e146100375763552f888a0361000e57610147565b6100bd565b60e01c90565b60405190565b5f80fd5b5f91031261005657565b610048565b90565b90565b90565b61007861007361007d9261005b565b610061565b61005e565b90565b61008d600160701b610064565b90565b610098610080565b90565b6100a49061005e565b9052565b91906100bb905f6020850194019061009b565b565b6100c836600461004c565b6100e46100d3610090565b6100db610042565b918291826100a8565b0390f35b90565b60ff1690565b61010561010061010a926100e8565b610061565b6100eb565b90565b61011760706100f1565b90565b61012261010d565b90565b61012e906100eb565b9052565b9190610145905f60208501940190610125565b565b61015236600461004c565b61016e61015d61011a565b610165610042565b91829182610132565b0390f35b5f80fdfea2646970667358221220b63cf27d5f8dff5a1d63a3fa35a2f788f55802a5c7baadbb019ecc990eb5627b64736f6c63430008170033","linkReferences":{}},"methodIdentifiers":{"Q112()":"3bf7a83e","RESOLUTION()":"552f888a"},"id":58}